{
  "contractName": "AtomicSwapERC20ToEther",
  "abi": [
    {
      "anonymous": false,
      "inputs": [
        {
          "indexed": false,
          "name": "_swapID",
          "type": "bytes32"
        },
        {
          "indexed": false,
          "name": "_closeTrader",
          "type": "address"
        }
      ],
      "name": "Open",
      "type": "event"
    },
    {
      "anonymous": false,
      "inputs": [
        {
          "indexed": false,
          "name": "_swapID",
          "type": "bytes32"
        }
      ],
      "name": "Expire",
      "type": "event"
    },
    {
      "anonymous": false,
      "inputs": [
        {
          "indexed": false,
          "name": "_swapID",
          "type": "bytes32"
        }
      ],
      "name": "Close",
      "type": "event"
    },
    {
      "constant": false,
      "inputs": [
        {
          "name": "_swapID",
          "type": "bytes32"
        },
        {
          "name": "_erc20Value",
          "type": "uint256"
        },
        {
          "name": "_erc20ContractAddress",
          "type": "address"
        },
        {
          "name": "_ethValue",
          "type": "uint256"
        },
        {
          "name": "_ethTrader",
          "type": "address"
        }
      ],
      "name": "open",
      "outputs": [],
      "payable": false,
      "stateMutability": "nonpayable",
      "type": "function"
    },
    {
      "constant": false,
      "inputs": [
        {
          "name": "_swapID",
          "type": "bytes32"
        }
      ],
      "name": "close",
      "outputs": [],
      "payable": true,
      "stateMutability": "payable",
      "type": "function"
    },
    {
      "constant": false,
      "inputs": [
        {
          "name": "_swapID",
          "type": "bytes32"
        }
      ],
      "name": "expire",
      "outputs": [],
      "payable": false,
      "stateMutability": "nonpayable",
      "type": "function"
    },
    {
      "constant": true,
      "inputs": [
        {
          "name": "_swapID",
          "type": "bytes32"
        }
      ],
      "name": "check",
      "outputs": [
        {
          "name": "erc20Value",
          "type": "uint256"
        },
        {
          "name": "erc20Trader",
          "type": "address"
        },
        {
          "name": "erc20ContractAddress",
          "type": "address"
        },
        {
          "name": "ethValue",
          "type": "uint256"
        },
        {
          "name": "ethTrader",
          "type": "address"
        }
      ],
      "payable": false,
      "stateMutability": "view",
      "type": "function"
    }
  ],
  "bytecode": "0x6060604052341561000f57600080fd5b610eb38061001e6000396000f300606060405260043610610062576000357c0100000000000000000000000000000000000000000000000000000000900463ffffffff168063399e07921461006757806339c79e0c1461014257806399149a7f1461015e578063c6441798146101d5575b600080fd5b341561007257600080fd5b61008c6004808035600019169060200190919050506101fc565b604051808681526020018573ffffffffffffffffffffffffffffffffffffffff1673ffffffffffffffffffffffffffffffffffffffff1681526020018473ffffffffffffffffffffffffffffffffffffffff1673ffffffffffffffffffffffffffffffffffffffff1681526020018381526020018273ffffffffffffffffffffffffffffffffffffffff1673ffffffffffffffffffffffffffffffffffffffff1681526020019550505050505060405180910390f35b61015c600480803560001916906020019091905050610377565b005b341561016957600080fd5b6101d360048080356000191690602001909190803590602001909190803573ffffffffffffffffffffffffffffffffffffffff1690602001909190803590602001909190803573ffffffffffffffffffffffffffffffffffffffff169060200190919050506106b8565b005b34156101e057600080fd5b6101fa600480803560001916906020019091905050610b2a565b005b600080600080600061020c610e15565b600080886000191660001916815260200190815260200160002060a06040519081016040529081600082015481526020016001820160009054906101000a900473ffffffffffffffffffffffffffffffffffffffff1673ffffffffffffffffffffffffffffffffffffffff1673ffffffffffffffffffffffffffffffffffffffff168152602001600282015481526020016003820160009054906101000a900473ffffffffffffffffffffffffffffffffffffffff1673ffffffffffffffffffffffffffffffffffffffff1673ffffffffffffffffffffffffffffffffffffffff1681526020016004820160009054906101000a900473ffffffffffffffffffffffffffffffffffffffff1673ffffffffffffffffffffffffffffffffffffffff1673ffffffffffffffffffffffffffffffffffffffff1681525050905080604001518160600151826080015183600001518460200151955095509550955095505091939590929450565b61037f610e15565b6000826001600381111561038f57fe5b60016000836000191660001916815260200190815260200160002060009054906101000a900460ff1660038111156103c357fe5b1415156103cf57600080fd5b600080856000191660001916815260200190815260200160002060a06040519081016040529081600082015481526020016001820160009054906101000a900473ffffffffffffffffffffffffffffffffffffffff1673ffffffffffffffffffffffffffffffffffffffff1673ffffffffffffffffffffffffffffffffffffffff168152602001600282015481526020016003820160009054906101000a900473ffffffffffffffffffffffffffffffffffffffff1673ffffffffffffffffffffffffffffffffffffffff1673ffffffffffffffffffffffffffffffffffffffff1681526020016004820160009054906101000a900473ffffffffffffffffffffffffffffffffffffffff1673ffffffffffffffffffffffffffffffffffffffff1673ffffffffffffffffffffffffffffffffffffffff16815250509250600260016000866000191660001916815260200190815260200160002060006101000a81548160ff0219169083600381111561054557fe5b021790555082600001513414151561055c57600080fd5b826060015173ffffffffffffffffffffffffffffffffffffffff166108fc349081150290604051600060405180830381858888f1935050505015156105a057600080fd5b826080015191508173ffffffffffffffffffffffffffffffffffffffff1663a9059cbb846020015185604001516040518363ffffffff167c0100000000000000000000000000000000000000000000000000000000028152600401808373ffffffffffffffffffffffffffffffffffffffff1673ffffffffffffffffffffffffffffffffffffffff16815260200182815260200192505050602060405180830381600087803b151561065157600080fd5b5af1151561065e57600080fd5b50505060405180519050151561067357600080fd5b7fc9d8209586aca26a4f59cc70108e4cf2f637da8cb4133c78a3946bc50581ea288460405180826000191660001916815260200191505060405180910390a150505050565b60006106c2610e15565b86600060038111156106d057fe5b60016000836000191660001916815260200190815260200160002060009054906101000a900460ff16600381111561070457fe5b14151561071057600080fd5b8592508273ffffffffffffffffffffffffffffffffffffffff1663dd62ed3e33306040518363ffffffff167c0100000000000000000000000000000000000000000000000000000000028152600401808373ffffffffffffffffffffffffffffffffffffffff1673ffffffffffffffffffffffffffffffffffffffff1681526020018273ffffffffffffffffffffffffffffffffffffffff1673ffffffffffffffffffffffffffffffffffffffff16815260200192505050602060405180830381600087803b15156107e157600080fd5b5af115156107ee57600080fd5b50505060405180519050871115151561080657600080fd5b8273ffffffffffffffffffffffffffffffffffffffff166323b872dd33308a6040518463ffffffff167c0100000000000000000000000000000000000000000000000000000000028152600401808473ffffffffffffffffffffffffffffffffffffffff1673ffffffffffffffffffffffffffffffffffffffff1681526020018373ffffffffffffffffffffffffffffffffffffffff1673ffffffffffffffffffffffffffffffffffffffff1681526020018281526020019350505050602060405180830381600087803b15156108dc57600080fd5b5af115156108e957600080fd5b5050506040518051905015156108fe57600080fd5b60a0604051908101604052808681526020018573ffffffffffffffffffffffffffffffffffffffff1681526020018881526020013373ffffffffffffffffffffffffffffffffffffffff1681526020018773ffffffffffffffffffffffffffffffffffffffff168152509150816000808a600019166000191681526020019081526020016000206000820151816000015560208201518160010160006101000a81548173ffffffffffffffffffffffffffffffffffffffff021916908373ffffffffffffffffffffffffffffffffffffffff1602179055506040820151816002015560608201518160030160006101000a81548173ffffffffffffffffffffffffffffffffffffffff021916908373ffffffffffffffffffffffffffffffffffffffff16021790555060808201518160040160006101000a81548173ffffffffffffffffffffffffffffffffffffffff021916908373ffffffffffffffffffffffffffffffffffffffff16021790555090505060018060008a6000191660001916815260200190815260200160002060006101000a81548160ff02191690836003811115610aa857fe5b02179055507fb5894ff5a344c5160302de0b2027c5b55f4914e9d8e8c11b377b559e5ec789eb88856040518083600019166000191681526020018273ffffffffffffffffffffffffffffffffffffffff1673ffffffffffffffffffffffffffffffffffffffff1681526020019250505060405180910390a15050505050505050565b610b32610e15565b60008260016003811115610b4257fe5b60016000836000191660001916815260200190815260200160002060009054906101000a900460ff166003811115610b7657fe5b141515610b8257600080fd5b600080856000191660001916815260200190815260200160002060a06040519081016040529081600082015481526020016001820160009054906101000a900473ffffffffffffffffffffffffffffffffffffffff1673ffffffffffffffffffffffffffffffffffffffff1673ffffffffffffffffffffffffffffffffffffffff168152602001600282015481526020016003820160009054906101000a900473ffffffffffffffffffffffffffffffffffffffff1673ffffffffffffffffffffffffffffffffffffffff1673ffffffffffffffffffffffffffffffffffffffff1681526020016004820160009054906101000a900473ffffffffffffffffffffffffffffffffffffffff1673ffffffffffffffffffffffffffffffffffffffff1673ffffffffffffffffffffffffffffffffffffffff16815250509250600360016000866000191660001916815260200190815260200160002060006101000a81548160ff02191690836003811115610cf857fe5b0217905550826080015191508173ffffffffffffffffffffffffffffffffffffffff1663a9059cbb846060015185604001516040518363ffffffff167c0100000000000000000000000000000000000000000000000000000000028152600401808373ffffffffffffffffffffffffffffffffffffffff1673ffffffffffffffffffffffffffffffffffffffff16815260200182815260200192505050602060405180830381600087803b1515610dae57600080fd5b5af11515610dbb57600080fd5b505050604051805190501515610dd057600080fd5b7fbddd9b693ea862fad6ecf78fd51c065be26fda94d1f3cad3a7d691453a38a7358460405180826000191660001916815260200191505060405180910390a150505050565b60a06040519081016040528060008152602001600073ffffffffffffffffffffffffffffffffffffffff16815260200160008152602001600073ffffffffffffffffffffffffffffffffffffffff168152602001600073ffffffffffffffffffffffffffffffffffffffff16815250905600a165627a7a7230582022d076bc2adf465249cbe45d053e34093168650477f737c6efafe2ead61f8c470029",
  "source": "pragma solidity ^0.4.17;\r\n\r\nimport \"./ERC20.sol\";\r\n\r\ncontract AtomicSwapERC20ToEther {\r\n\r\n    struct Swap {\r\n        uint256 ethValue;\r\n        address ethTrader;\r\n        uint256 erc20Value;\r\n        address erc20Trader;\r\n        address erc20ContractAddress;\r\n    }\r\n\r\n    enum States {\r\n      INVALID,\r\n      OPEN,\r\n      CLOSED,\r\n      EXPIRED\r\n    }\r\n\r\n    mapping (bytes32 => Swap) private swaps;\r\n    mapping (bytes32 => States) private swapStates;\r\n\r\n    event Open(bytes32 _swapID, address _closeTrader);\r\n    event Expire(bytes32 _swapID);\r\n    event Close(bytes32 _swapID);\r\n\r\n    modifier onlyInvalidSwaps(bytes32 _swapID) {\r\n        require (swapStates[_swapID] == States.INVALID);\r\n        _;\r\n    }\r\n\r\n    modifier onlyOpenSwaps(bytes32 _swapID) {\r\n        require (swapStates[_swapID] == States.OPEN);\r\n        _;\r\n    }\r\n\r\n    function open(bytes32 _swapID, uint256 _erc20Value, address _erc20ContractAddress, uint256 _ethValue, address _ethTrader) public onlyInvalidSwaps(_swapID) {\r\n        // Transfer value from the ERC20 trader to this contract.\r\n        ERC20 openERC20Contract = ERC20(_erc20ContractAddress);\r\n        require(_erc20Value <= openERC20Contract.allowance(msg.sender, address(this)));\r\n        require(openERC20Contract.transferFrom(msg.sender, address(this), _erc20Value));\r\n        \r\n        // Store the details of the swap.\r\n        Swap memory swap = Swap({\r\n            ethValue: _ethValue,\r\n            ethTrader: _ethTrader,\r\n            erc20Value: _erc20Value,\r\n            erc20Trader: msg.sender,\r\n            erc20ContractAddress: _erc20ContractAddress\r\n        });\r\n        swaps[_swapID] = swap;\r\n        swapStates[_swapID] = States.OPEN;\r\n\r\n        emit Open(_swapID, _ethTrader);\r\n    }\r\n\r\n    function close(bytes32 _swapID) public onlyOpenSwaps(_swapID) payable {\r\n        // Close the swap.\r\n        Swap memory swap = swaps[_swapID];\r\n        swapStates[_swapID] = States.CLOSED;\r\n\r\n        // Transfer the ETH funds from ETH trader to ERC20 trader via contract\r\n        require(msg.value == swap.ethValue);\r\n        swap.erc20Trader.transfer(msg.value);\r\n\r\n        // Transfer the ERC20 funds from this contract to the ETH trader.\r\n        ERC20 erc20Contract = ERC20(swap.erc20ContractAddress);\r\n        require(erc20Contract.transfer(swap.ethTrader, swap.erc20Value));\r\n        \r\n        emit Close(_swapID);\r\n    }\r\n\r\n    function expire(bytes32 _swapID) public onlyOpenSwaps(_swapID) {\r\n        // Expire the swap.\r\n        Swap memory swap = swaps[_swapID];\r\n        swapStates[_swapID] = States.EXPIRED;\r\n\r\n        // Transfer ERC20 value from this contract back to the opening ERC20 trader.\r\n        ERC20 openERC20Contract = ERC20(swap.erc20ContractAddress);\r\n        require(openERC20Contract.transfer(swap.erc20Trader, swap.erc20Value));\r\n\r\n        emit Expire(_swapID);\r\n    }\r\n\r\n    function check(bytes32 _swapID) public view returns (uint256 erc20Value, address erc20Trader, address erc20ContractAddress, uint256 ethValue, address ethTrader) {\r\n        Swap memory swap = swaps[_swapID];\r\n        return  (swap.erc20Value, swap.erc20Trader, swap.erc20ContractAddress, swap.ethValue, swap.ethTrader);\r\n    }\r\n}\r\n",
  "sourcePath": "C:\\Projects\\Aerum\\aerumnet\\solidity-aerum-network\\contracts\\swap\\AtomicSwapERC20ToEther.sol",
  "compiler": {
    "name": "solc",
    "version": "0.4.21+commit.dfe3193c.Emscripten.clang"
  },
  "schemaVersion": "2.0.0",
  "updatedAt": "2018-04-26T20:57:37.452Z"
}