{
  "contractName": "AtomicSwapEtherToERC20",
  "abi": [
    {
      "anonymous": false,
      "inputs": [
        {
          "indexed": false,
          "name": "_swapID",
          "type": "bytes32"
        },
        {
          "indexed": false,
          "name": "_closeTrader",
          "type": "address"
        }
      ],
      "name": "Open",
      "type": "event"
    },
    {
      "anonymous": false,
      "inputs": [
        {
          "indexed": false,
          "name": "_swapID",
          "type": "bytes32"
        }
      ],
      "name": "Expire",
      "type": "event"
    },
    {
      "anonymous": false,
      "inputs": [
        {
          "indexed": false,
          "name": "_swapID",
          "type": "bytes32"
        }
      ],
      "name": "Close",
      "type": "event"
    },
    {
      "constant": false,
      "inputs": [
        {
          "name": "_swapID",
          "type": "bytes32"
        },
        {
          "name": "_erc20Value",
          "type": "uint256"
        },
        {
          "name": "_erc20Trader",
          "type": "address"
        },
        {
          "name": "_erc20ContractAddress",
          "type": "address"
        }
      ],
      "name": "open",
      "outputs": [],
      "payable": true,
      "stateMutability": "payable",
      "type": "function"
    },
    {
      "constant": false,
      "inputs": [
        {
          "name": "_swapID",
          "type": "bytes32"
        }
      ],
      "name": "close",
      "outputs": [],
      "payable": false,
      "stateMutability": "nonpayable",
      "type": "function"
    },
    {
      "constant": false,
      "inputs": [
        {
          "name": "_swapID",
          "type": "bytes32"
        }
      ],
      "name": "expire",
      "outputs": [],
      "payable": false,
      "stateMutability": "nonpayable",
      "type": "function"
    },
    {
      "constant": true,
      "inputs": [
        {
          "name": "_swapID",
          "type": "bytes32"
        }
      ],
      "name": "check",
      "outputs": [
        {
          "name": "ethValue",
          "type": "uint256"
        },
        {
          "name": "ethTrader",
          "type": "address"
        },
        {
          "name": "erc20Value",
          "type": "uint256"
        },
        {
          "name": "erc20Trader",
          "type": "address"
        },
        {
          "name": "erc20ContractAddress",
          "type": "address"
        },
        {
          "name": "state",
          "type": "uint8"
        }
      ],
      "payable": false,
      "stateMutability": "view",
      "type": "function"
    }
  ],
  "bytecode": "0x6060604052341561000f57600080fd5b610d908061001e6000396000f300606060405260043610610062576000357c0100000000000000000000000000000000000000000000000000000000900463ffffffff168063399e07921461006757806339c79e0c146101575780636e7923151461017e578063c6441798146101e1575b600080fd5b341561007257600080fd5b61008c600480803560001916906020019091905050610208565b604051808781526020018673ffffffffffffffffffffffffffffffffffffffff1673ffffffffffffffffffffffffffffffffffffffff1681526020018581526020018473ffffffffffffffffffffffffffffffffffffffff1673ffffffffffffffffffffffffffffffffffffffff1681526020018373ffffffffffffffffffffffffffffffffffffffff1673ffffffffffffffffffffffffffffffffffffffff16815260200182600381111561013e57fe5b60ff168152602001965050505050505060405180910390f35b341561016257600080fd5b61017c6004808035600019169060200190919050506103af565b005b6101df60048080356000191690602001909190803590602001909190803573ffffffffffffffffffffffffffffffffffffffff1690602001909190803573ffffffffffffffffffffffffffffffffffffffff16906020019091905050610815565b005b34156101ec57600080fd5b610206600480803560001916906020019091905050610a95565b005b600080600080600080610219610cf2565b600080896000191660001916815260200190815260200160002060a06040519081016040529081600082015481526020016001820160009054906101000a900473ffffffffffffffffffffffffffffffffffffffff1673ffffffffffffffffffffffffffffffffffffffff1673ffffffffffffffffffffffffffffffffffffffff168152602001600282015481526020016003820160009054906101000a900473ffffffffffffffffffffffffffffffffffffffff1673ffffffffffffffffffffffffffffffffffffffff1673ffffffffffffffffffffffffffffffffffffffff1681526020016004820160009054906101000a900473ffffffffffffffffffffffffffffffffffffffff1673ffffffffffffffffffffffffffffffffffffffff1673ffffffffffffffffffffffffffffffffffffffff1681525050905080600001518160200151826040015183606001518460800151600160008e6000191660001916815260200190815260200160002060009054906101000a900460ff169650965096509650965096505091939550919395565b6103b7610cf2565b600082600160038111156103c757fe5b60016000836000191660001916815260200190815260200160002060009054906101000a900460ff1660038111156103fb57fe5b14151561040757600080fd5b600080856000191660001916815260200190815260200160002060a06040519081016040529081600082015481526020016001820160009054906101000a900473ffffffffffffffffffffffffffffffffffffffff1673ffffffffffffffffffffffffffffffffffffffff1673ffffffffffffffffffffffffffffffffffffffff168152602001600282015481526020016003820160009054906101000a900473ffffffffffffffffffffffffffffffffffffffff1673ffffffffffffffffffffffffffffffffffffffff1673ffffffffffffffffffffffffffffffffffffffff1681526020016004820160009054906101000a900473ffffffffffffffffffffffffffffffffffffffff1673ffffffffffffffffffffffffffffffffffffffff1673ffffffffffffffffffffffffffffffffffffffff16815250509250600260016000866000191660001916815260200190815260200160002060006101000a81548160ff0219169083600381111561057d57fe5b0217905550826080015191508173ffffffffffffffffffffffffffffffffffffffff1663dd62ed3e8460600151306040518363ffffffff167c0100000000000000000000000000000000000000000000000000000000028152600401808373ffffffffffffffffffffffffffffffffffffffff1673ffffffffffffffffffffffffffffffffffffffff1681526020018273ffffffffffffffffffffffffffffffffffffffff1673ffffffffffffffffffffffffffffffffffffffff16815260200192505050602060405180830381600087803b151561065b57600080fd5b5af1151561066857600080fd5b5050506040518051905083604001511115151561068457600080fd5b8173ffffffffffffffffffffffffffffffffffffffff166323b872dd8460600151856020015186604001516040518463ffffffff167c0100000000000000000000000000000000000000000000000000000000028152600401808473ffffffffffffffffffffffffffffffffffffffff1673ffffffffffffffffffffffffffffffffffffffff1681526020018373ffffffffffffffffffffffffffffffffffffffff1673ffffffffffffffffffffffffffffffffffffffff1681526020018281526020019350505050602060405180830381600087803b151561076657600080fd5b5af1151561077357600080fd5b50505060405180519050151561078857600080fd5b826060015173ffffffffffffffffffffffffffffffffffffffff166108fc84600001519081150290604051600060405180830381858888f1935050505015156107d057600080fd5b7fc9d8209586aca26a4f59cc70108e4cf2f637da8cb4133c78a3946bc50581ea288460405180826000191660001916815260200191505060405180910390a150505050565b61081d610cf2565b846000600381111561082b57fe5b60016000836000191660001916815260200190815260200160002060009054906101000a900460ff16600381111561085f57fe5b14151561086b57600080fd5b60a0604051908101604052803481526020013373ffffffffffffffffffffffffffffffffffffffff1681526020018681526020018573ffffffffffffffffffffffffffffffffffffffff1681526020018473ffffffffffffffffffffffffffffffffffffffff1681525091508160008088600019166000191681526020019081526020016000206000820151816000015560208201518160010160006101000a81548173ffffffffffffffffffffffffffffffffffffffff021916908373ffffffffffffffffffffffffffffffffffffffff1602179055506040820151816002015560608201518160030160006101000a81548173ffffffffffffffffffffffffffffffffffffffff021916908373ffffffffffffffffffffffffffffffffffffffff16021790555060808201518160040160006101000a81548173ffffffffffffffffffffffffffffffffffffffff021916908373ffffffffffffffffffffffffffffffffffffffff1602179055509050506001806000886000191660001916815260200190815260200160002060006101000a81548160ff02191690836003811115610a1557fe5b02179055507fb5894ff5a344c5160302de0b2027c5b55f4914e9d8e8c11b377b559e5ec789eb86856040518083600019166000191681526020018273ffffffffffffffffffffffffffffffffffffffff1673ffffffffffffffffffffffffffffffffffffffff1681526020019250505060405180910390a1505050505050565b610a9d610cf2565b8160016003811115610aab57fe5b60016000836000191660001916815260200190815260200160002060009054906101000a900460ff166003811115610adf57fe5b141515610aeb57600080fd5b600080846000191660001916815260200190815260200160002060a06040519081016040529081600082015481526020016001820160009054906101000a900473ffffffffffffffffffffffffffffffffffffffff1673ffffffffffffffffffffffffffffffffffffffff1673ffffffffffffffffffffffffffffffffffffffff168152602001600282015481526020016003820160009054906101000a900473ffffffffffffffffffffffffffffffffffffffff1673ffffffffffffffffffffffffffffffffffffffff1673ffffffffffffffffffffffffffffffffffffffff1681526020016004820160009054906101000a900473ffffffffffffffffffffffffffffffffffffffff1673ffffffffffffffffffffffffffffffffffffffff1673ffffffffffffffffffffffffffffffffffffffff16815250509150600360016000856000191660001916815260200190815260200160002060006101000a81548160ff02191690836003811115610c6157fe5b0217905550816020015173ffffffffffffffffffffffffffffffffffffffff166108fc83600001519081150290604051600060405180830381858888f193505050501515610cae57600080fd5b7fbddd9b693ea862fad6ecf78fd51c065be26fda94d1f3cad3a7d691453a38a7358360405180826000191660001916815260200191505060405180910390a1505050565b60a06040519081016040528060008152602001600073ffffffffffffffffffffffffffffffffffffffff16815260200160008152602001600073ffffffffffffffffffffffffffffffffffffffff168152602001600073ffffffffffffffffffffffffffffffffffffffff16815250905600a165627a7a7230582016dc89899dc332df5c6cacb992e35d8b37cec62655707be7c91f177520fe70ec0029",
  "source": "pragma solidity ^0.4.17;\r\n\r\nimport \"./ERC20.sol\";\r\n\r\ncontract AtomicSwapEtherToERC20 {\r\n\r\n    struct Swap {\r\n        uint256 value;\r\n        address ethTrader;\r\n        uint256 erc20Value;\r\n        address erc20Trader;\r\n        address erc20ContractAddress;\r\n    }\r\n\r\n    enum States {\r\n      INVALID,\r\n      OPEN,\r\n      CLOSED,\r\n      EXPIRED\r\n    }\r\n\r\n    mapping (bytes32 => Swap) private swaps;\r\n    mapping (bytes32 => States) private swapStates;\r\n\r\n    event Open(bytes32 _swapID, address _closeTrader);\r\n    event Expire(bytes32 _swapID);\r\n    event Close(bytes32 _swapID);\r\n\r\n    modifier onlyInvalidSwaps(bytes32 _swapID) {\r\n        require (swapStates[_swapID] == States.INVALID);\r\n        _;\r\n    }\r\n\r\n    modifier onlyOpenSwaps(bytes32 _swapID) {\r\n        require (swapStates[_swapID] == States.OPEN);\r\n        _;\r\n    }\r\n\r\n    function open(bytes32 _swapID, uint256 _erc20Value, address _erc20Trader, address _erc20ContractAddress) public onlyInvalidSwaps(_swapID) payable {\r\n        // Store the details of the swap.\r\n        Swap memory swap = Swap({\r\n            value: msg.value,\r\n            ethTrader: msg.sender,\r\n            erc20Value: _erc20Value,\r\n            erc20Trader: _erc20Trader,\r\n            erc20ContractAddress: _erc20ContractAddress\r\n        });\r\n        swaps[_swapID] = swap;\r\n        swapStates[_swapID] = States.OPEN;\r\n\r\n        emit Open(_swapID, _erc20Trader);\r\n    }\r\n\r\n    function close(bytes32 _swapID) public onlyOpenSwaps(_swapID) {\r\n        // Close the swap.\r\n        Swap memory swap = swaps[_swapID];\r\n        swapStates[_swapID] = States.CLOSED;\r\n\r\n        // Transfer the ERC20 funds from the ERC20 trader to the ETH trader.\r\n        ERC20 erc20Contract = ERC20(swap.erc20ContractAddress);\r\n        require(swap.erc20Value <= erc20Contract.allowance(swap.erc20Trader, address(this)));\r\n        require(erc20Contract.transferFrom(swap.erc20Trader, swap.ethTrader, swap.erc20Value));\r\n\r\n        // Transfer the ETH funds from this contract to the ERC20 trader.\r\n        swap.erc20Trader.transfer(swap.value);\r\n        \r\n        emit Close(_swapID);\r\n    }\r\n\r\n    function expire(bytes32 _swapID) public onlyOpenSwaps(_swapID) {\r\n        // Expire the swap.\r\n        Swap memory swap = swaps[_swapID];\r\n        swapStates[_swapID] = States.EXPIRED;\r\n\r\n        // Transfer the ETH value from this contract back to the ETH trader.\r\n        swap.ethTrader.transfer(swap.value);\r\n        emit Expire(_swapID);\r\n    }\r\n\r\n    function check(bytes32 _swapID) public view returns (uint256 ethValue, address ethTrader, uint256 erc20Value, address erc20Trader, address erc20ContractAddress, States state) {\r\n        Swap memory swap = swaps[_swapID];\r\n        return  (swap.value, swap.ethTrader, swap.erc20Value, swap.erc20Trader, swap.erc20ContractAddress, swapStates[_swapID]);\r\n    }\r\n}\r\n",
  "sourcePath": "C:\\Projects\\Aerum\\aerumnet\\solidity-aerum-network\\contracts\\swap\\AtomicSwapEtherToERC20.sol",
  "compiler": {
    "name": "solc",
    "version": "0.4.21+commit.dfe3193c.Emscripten.clang"
  },
  "schemaVersion": "2.0.0",
  "updatedAt": "2018-05-02T11:01:40.606Z"
}