{
  "contractName": "AtomicSwapEtherToERC20",
  "abi": [
    {
      "anonymous": false,
      "inputs": [
        {
          "indexed": true,
          "name": "_swapID",
          "type": "bytes32"
        },
        {
          "indexed": true,
          "name": "_ethTrader",
          "type": "address"
        },
        {
          "indexed": true,
          "name": "_erc20Trader",
          "type": "address"
        },
        {
          "indexed": false,
          "name": "_openedOn",
          "type": "uint256"
        }
      ],
      "name": "Open",
      "type": "event"
    },
    {
      "anonymous": false,
      "inputs": [
        {
          "indexed": true,
          "name": "_swapID",
          "type": "bytes32"
        }
      ],
      "name": "Expire",
      "type": "event"
    },
    {
      "anonymous": false,
      "inputs": [
        {
          "indexed": true,
          "name": "_swapID",
          "type": "bytes32"
        }
      ],
      "name": "Close",
      "type": "event"
    },
    {
      "constant": false,
      "inputs": [
        {
          "name": "_swapID",
          "type": "bytes32"
        },
        {
          "name": "_erc20Value",
          "type": "uint256"
        },
        {
          "name": "_erc20Trader",
          "type": "address"
        },
        {
          "name": "_erc20ContractAddress",
          "type": "address"
        }
      ],
      "name": "open",
      "outputs": [],
      "payable": true,
      "stateMutability": "payable",
      "type": "function"
    },
    {
      "constant": false,
      "inputs": [
        {
          "name": "_swapID",
          "type": "bytes32"
        }
      ],
      "name": "close",
      "outputs": [],
      "payable": false,
      "stateMutability": "nonpayable",
      "type": "function"
    },
    {
      "constant": false,
      "inputs": [
        {
          "name": "_swapID",
          "type": "bytes32"
        }
      ],
      "name": "expire",
      "outputs": [],
      "payable": false,
      "stateMutability": "nonpayable",
      "type": "function"
    },
    {
      "constant": true,
      "inputs": [
        {
          "name": "_swapID",
          "type": "bytes32"
        }
      ],
      "name": "check",
      "outputs": [
        {
          "name": "ethValue",
          "type": "uint256"
        },
        {
          "name": "ethTrader",
          "type": "address"
        },
        {
          "name": "erc20Value",
          "type": "uint256"
        },
        {
          "name": "erc20Trader",
          "type": "address"
        },
        {
          "name": "erc20ContractAddress",
          "type": "address"
        },
        {
          "name": "openedOn",
          "type": "uint256"
        },
        {
          "name": "state",
          "type": "uint8"
        }
      ],
      "payable": false,
      "stateMutability": "view",
      "type": "function"
    },
    {
      "constant": true,
      "inputs": [
        {
          "name": "account",
          "type": "address"
        }
      ],
      "name": "getAccountSwaps",
      "outputs": [
        {
          "name": "",
          "type": "bytes32[]"
        }
      ],
      "payable": false,
      "stateMutability": "view",
      "type": "function"
    }
  ],
  "bytecode": "0x608060405234801561001057600080fd5b50611088806100206000396000f30060806040526004361061006d576000357c0100000000000000000000000000000000000000000000000000000000900463ffffffff168063368f923b14610072578063399e07921461010a57806339c79e0c1461020b5780636e7923151461023c578063c6441798146102aa575b600080fd5b34801561007e57600080fd5b506100b3600480360381019080803573ffffffffffffffffffffffffffffffffffffffff1690602001909291905050506102db565b6040518080602001828103825283818151815260200191508051906020019060200280838360005b838110156100f65780820151818401526020810190506100db565b505050509050019250505060405180910390f35b34801561011657600080fd5b506101396004803603810190808035600019169060200190929190505050610376565b604051808881526020018773ffffffffffffffffffffffffffffffffffffffff1673ffffffffffffffffffffffffffffffffffffffff1681526020018681526020018573ffffffffffffffffffffffffffffffffffffffff1673ffffffffffffffffffffffffffffffffffffffff1681526020018473ffffffffffffffffffffffffffffffffffffffff1673ffffffffffffffffffffffffffffffffffffffff1681526020018381526020018260038111156101f157fe5b60ff16815260200197505050505050505060405180910390f35b34801561021757600080fd5b5061023a6004803603810190808035600019169060200190929190505050610535565b005b6102a8600480360381019080803560001916906020019092919080359060200190929190803573ffffffffffffffffffffffffffffffffffffffff169060200190929190803573ffffffffffffffffffffffffffffffffffffffff1690602001909291905050506109e8565b005b3480156102b657600080fd5b506102d96004803603810190808035600019169060200190929190505050610d83565b005b6060600260008373ffffffffffffffffffffffffffffffffffffffff1673ffffffffffffffffffffffffffffffffffffffff16815260200190815260200160002080548060200260200160405190810160405280929190818152602001828054801561036a57602002820191906000526020600020905b81546000191681526020019060010190808311610352575b50505050509050919050565b6000806000806000806000610389610fe3565b600160008a6000191660001916815260200190815260200160002060009054906101000a900460ff1691506000808a6000191660001916815260200190815260200160002060c06040519081016040529081600082015481526020016001820160009054906101000a900473ffffffffffffffffffffffffffffffffffffffff1673ffffffffffffffffffffffffffffffffffffffff1673ffffffffffffffffffffffffffffffffffffffff168152602001600282015481526020016003820160009054906101000a900473ffffffffffffffffffffffffffffffffffffffff1673ffffffffffffffffffffffffffffffffffffffff1673ffffffffffffffffffffffffffffffffffffffff1681526020016004820160009054906101000a900473ffffffffffffffffffffffffffffffffffffffff1673ffffffffffffffffffffffffffffffffffffffff1673ffffffffffffffffffffffffffffffffffffffff1681526020016005820154815250509050806000015181602001518260400151836060015184608001518560a0015187975097509750975097509750975050919395979092949650565b61053d610fe3565b6000826001600381111561054d57fe5b60016000836000191660001916815260200190815260200160002060009054906101000a900460ff16600381111561058157fe5b14151561058d57600080fd5b600080856000191660001916815260200190815260200160002060c06040519081016040529081600082015481526020016001820160009054906101000a900473ffffffffffffffffffffffffffffffffffffffff1673ffffffffffffffffffffffffffffffffffffffff1673ffffffffffffffffffffffffffffffffffffffff168152602001600282015481526020016003820160009054906101000a900473ffffffffffffffffffffffffffffffffffffffff1673ffffffffffffffffffffffffffffffffffffffff1673ffffffffffffffffffffffffffffffffffffffff1681526020016004820160009054906101000a900473ffffffffffffffffffffffffffffffffffffffff1673ffffffffffffffffffffffffffffffffffffffff1673ffffffffffffffffffffffffffffffffffffffff1681526020016005820154815250509250600260016000866000191660001916815260200190815260200160002060006101000a81548160ff0219169083600381111561070d57fe5b0217905550826080015191508173ffffffffffffffffffffffffffffffffffffffff1663dd62ed3e8460600151306040518363ffffffff167c0100000000000000000000000000000000000000000000000000000000028152600401808373ffffffffffffffffffffffffffffffffffffffff1673ffffffffffffffffffffffffffffffffffffffff1681526020018273ffffffffffffffffffffffffffffffffffffffff1673ffffffffffffffffffffffffffffffffffffffff16815260200192505050602060405180830381600087803b1580156107ec57600080fd5b505af1158015610800573d6000803e3d6000fd5b505050506040513d602081101561081657600080fd5b810190808051906020019092919050505083604001511115151561083957600080fd5b8173ffffffffffffffffffffffffffffffffffffffff166323b872dd8460600151856020015186604001516040518463ffffffff167c0100000000000000000000000000000000000000000000000000000000028152600401808473ffffffffffffffffffffffffffffffffffffffff1673ffffffffffffffffffffffffffffffffffffffff1681526020018373ffffffffffffffffffffffffffffffffffffffff1673ffffffffffffffffffffffffffffffffffffffff1681526020018281526020019350505050602060405180830381600087803b15801561091c57600080fd5b505af1158015610930573d6000803e3d6000fd5b505050506040513d602081101561094657600080fd5b8101908080519060200190929190505050151561096257600080fd5b826060015173ffffffffffffffffffffffffffffffffffffffff166108fc84600001519081150290604051600060405180830381858888f193505050501580156109b0573d6000803e3d6000fd5b5083600019167fc9d8209586aca26a4f59cc70108e4cf2f637da8cb4133c78a3946bc50581ea2860405160405180910390a250505050565b6109f0610fe3565b84600060038111156109fe57fe5b60016000836000191660001916815260200190815260200160002060009054906101000a900460ff166003811115610a3257fe5b141515610a3e57600080fd5b60c0604051908101604052803481526020013373ffffffffffffffffffffffffffffffffffffffff1681526020018681526020018573ffffffffffffffffffffffffffffffffffffffff1681526020018473ffffffffffffffffffffffffffffffffffffffff1681526020014281525091508160008088600019166000191681526020019081526020016000206000820151816000015560208201518160010160006101000a81548173ffffffffffffffffffffffffffffffffffffffff021916908373ffffffffffffffffffffffffffffffffffffffff1602179055506040820151816002015560608201518160030160006101000a81548173ffffffffffffffffffffffffffffffffffffffff021916908373ffffffffffffffffffffffffffffffffffffffff16021790555060808201518160040160006101000a81548173ffffffffffffffffffffffffffffffffffffffff021916908373ffffffffffffffffffffffffffffffffffffffff16021790555060a082015181600501559050506001806000886000191660001916815260200190815260200160002060006101000a81548160ff02191690836003811115610bf857fe5b0217905550600260003373ffffffffffffffffffffffffffffffffffffffff1673ffffffffffffffffffffffffffffffffffffffff1681526020019081526020016000208690806001815401808255809150509060018203906000526020600020016000909192909190915090600019169055503373ffffffffffffffffffffffffffffffffffffffff168473ffffffffffffffffffffffffffffffffffffffff16141515610d1157600260008573ffffffffffffffffffffffffffffffffffffffff1673ffffffffffffffffffffffffffffffffffffffff1681526020019081526020016000208690806001815401808255809150509060018203906000526020600020016000909192909190915090600019169055505b8373ffffffffffffffffffffffffffffffffffffffff163373ffffffffffffffffffffffffffffffffffffffff1687600019167f6c0b85eadd04bc64f835668b3fc1e93b91dfbdf56daf11dc7d6f0b0d2c3d1c62426040518082815260200191505060405180910390a4505050505050565b610d8b610fe3565b8160016003811115610d9957fe5b60016000836000191660001916815260200190815260200160002060009054906101000a900460ff166003811115610dcd57fe5b141515610dd957600080fd5b600080846000191660001916815260200190815260200160002060c06040519081016040529081600082015481526020016001820160009054906101000a900473ffffffffffffffffffffffffffffffffffffffff1673ffffffffffffffffffffffffffffffffffffffff1673ffffffffffffffffffffffffffffffffffffffff168152602001600282015481526020016003820160009054906101000a900473ffffffffffffffffffffffffffffffffffffffff1673ffffffffffffffffffffffffffffffffffffffff1673ffffffffffffffffffffffffffffffffffffffff1681526020016004820160009054906101000a900473ffffffffffffffffffffffffffffffffffffffff1673ffffffffffffffffffffffffffffffffffffffff1673ffffffffffffffffffffffffffffffffffffffff1681526020016005820154815250509150600360016000856000191660001916815260200190815260200160002060006101000a81548160ff02191690836003811115610f5957fe5b0217905550816020015173ffffffffffffffffffffffffffffffffffffffff166108fc83600001519081150290604051600060405180830381858888f19350505050158015610fac573d6000803e3d6000fd5b5082600019167fbddd9b693ea862fad6ecf78fd51c065be26fda94d1f3cad3a7d691453a38a73560405160405180910390a2505050565b60c06040519081016040528060008152602001600073ffffffffffffffffffffffffffffffffffffffff16815260200160008152602001600073ffffffffffffffffffffffffffffffffffffffff168152602001600073ffffffffffffffffffffffffffffffffffffffff1681526020016000815250905600a165627a7a723058201f717fd1ad3f36c4c8d87d291e2b4ccf46f2caba395be714434c2d3a0c62582d0029",
  "source": "pragma solidity ^0.4.17;\r\n\r\nimport \"./ERC20.sol\";\r\n\r\ncontract AtomicSwapEtherToERC20 {\r\n\r\n    struct Swap {\r\n        uint256 value;\r\n        address ethTrader;\r\n        uint256 erc20Value;\r\n        address erc20Trader;\r\n        address erc20ContractAddress;\r\n        uint256 openedOn;\r\n    }\r\n\r\n    enum States {\r\n        INVALID,\r\n        OPEN,\r\n        CLOSED,\r\n        EXPIRED\r\n    }\r\n\r\n    mapping(bytes32 => Swap) private swaps;\r\n    mapping(bytes32 => States) private swapStates;\r\n    mapping(address => bytes32[]) accountSwaps;\r\n\r\n    event Open(bytes32 indexed _swapID, address indexed _ethTrader, address indexed _erc20Trader, uint256 _openedOn);\r\n    event Expire(bytes32 indexed _swapID);\r\n    event Close(bytes32 indexed _swapID);\r\n\r\n    modifier onlyInvalidSwaps(bytes32 _swapID) {\r\n        require(swapStates[_swapID] == States.INVALID);\r\n        _;\r\n    }\r\n\r\n    modifier onlyOpenSwaps(bytes32 _swapID) {\r\n        require(swapStates[_swapID] == States.OPEN);\r\n        _;\r\n    }\r\n\r\n    function open(bytes32 _swapID, uint256 _erc20Value, address _erc20Trader, address _erc20ContractAddress) external onlyInvalidSwaps(_swapID) payable {\r\n        // Store the details of the swap.\r\n        Swap memory swap = Swap({\r\n            value: msg.value,\r\n            ethTrader: msg.sender,\r\n            erc20Value: _erc20Value,\r\n            erc20Trader: _erc20Trader,\r\n            erc20ContractAddress: _erc20ContractAddress,\r\n            openedOn: now\r\n        });\r\n        swaps[_swapID] = swap;\r\n        swapStates[_swapID] = States.OPEN;\r\n\r\n        // Update account swaps. Make sure there is no duplicates.\r\n        accountSwaps[msg.sender].push(_swapID);\r\n        if (_erc20Trader != msg.sender) {\r\n            accountSwaps[_erc20Trader].push(_swapID);\r\n        }\r\n\r\n        emit Open(_swapID, msg.sender, _erc20Trader, now);\r\n    }\r\n\r\n    function close(bytes32 _swapID) external onlyOpenSwaps(_swapID) {\r\n        // Close the swap.\r\n        Swap memory swap = swaps[_swapID];\r\n        swapStates[_swapID] = States.CLOSED;\r\n\r\n        // Transfer the ERC20 funds from the ERC20 trader to the ETH trader.\r\n        ERC20 erc20Contract = ERC20(swap.erc20ContractAddress);\r\n        require(swap.erc20Value <= erc20Contract.allowance(swap.erc20Trader, address(this)));\r\n        require(erc20Contract.transferFrom(swap.erc20Trader, swap.ethTrader, swap.erc20Value));\r\n\r\n        // Transfer the ETH funds from this contract to the ERC20 trader.\r\n        swap.erc20Trader.transfer(swap.value);\r\n\r\n        emit Close(_swapID);\r\n    }\r\n\r\n    function expire(bytes32 _swapID) external onlyOpenSwaps(_swapID) {\r\n        // Expire the swap.\r\n        Swap memory swap = swaps[_swapID];\r\n        swapStates[_swapID] = States.EXPIRED;\r\n\r\n        // Transfer the ETH value from this contract back to the ETH trader.\r\n        swap.ethTrader.transfer(swap.value);\r\n        emit Expire(_swapID);\r\n    }\r\n\r\n    function check(bytes32 _swapID) external view returns (uint256 ethValue, address ethTrader, uint256 erc20Value, address erc20Trader, address erc20ContractAddress, uint256 openedOn, States state) {\r\n        state = swapStates[_swapID];\r\n        Swap memory swap = swaps[_swapID];\r\n        return (swap.value, swap.ethTrader, swap.erc20Value, swap.erc20Trader, swap.erc20ContractAddress, swap.openedOn, state);\r\n    }\r\n\r\n    function getAccountSwaps(address account) external view returns (bytes32[]) {\r\n        return accountSwaps[account];\r\n    }\r\n}\r\n",
  "sourcePath": "C:\\Projects\\Aerum\\aerumnet\\onchain-swap\\contracts\\swap\\AtomicSwapEtherToERC20.sol",
  "compiler": {
    "name": "solc",
    "version": "0.4.24+commit.e67f0147.Emscripten.clang"
  },
  "schemaVersion": "2.0.0",
  "updatedAt": "2018-06-19T19:39:04.870Z"
}