{
  "contractName": "AtomicSwapERC20ToEther",
  "abi": [
    {
      "anonymous": false,
      "inputs": [
        {
          "indexed": true,
          "name": "_swapID",
          "type": "bytes32"
        },
        {
          "indexed": true,
          "name": "_erc20Trader",
          "type": "address"
        },
        {
          "indexed": true,
          "name": "_ethTrader",
          "type": "address"
        },
        {
          "indexed": false,
          "name": "_openedOn",
          "type": "uint256"
        }
      ],
      "name": "Open",
      "type": "event"
    },
    {
      "anonymous": false,
      "inputs": [
        {
          "indexed": true,
          "name": "_swapID",
          "type": "bytes32"
        }
      ],
      "name": "Expire",
      "type": "event"
    },
    {
      "anonymous": false,
      "inputs": [
        {
          "indexed": true,
          "name": "_swapID",
          "type": "bytes32"
        }
      ],
      "name": "Close",
      "type": "event"
    },
    {
      "constant": false,
      "inputs": [
        {
          "name": "_swapID",
          "type": "bytes32"
        },
        {
          "name": "_erc20Value",
          "type": "uint256"
        },
        {
          "name": "_erc20ContractAddress",
          "type": "address"
        },
        {
          "name": "_ethValue",
          "type": "uint256"
        },
        {
          "name": "_ethTrader",
          "type": "address"
        }
      ],
      "name": "open",
      "outputs": [],
      "payable": false,
      "stateMutability": "nonpayable",
      "type": "function"
    },
    {
      "constant": false,
      "inputs": [
        {
          "name": "_swapID",
          "type": "bytes32"
        }
      ],
      "name": "close",
      "outputs": [],
      "payable": true,
      "stateMutability": "payable",
      "type": "function"
    },
    {
      "constant": false,
      "inputs": [
        {
          "name": "_swapID",
          "type": "bytes32"
        }
      ],
      "name": "expire",
      "outputs": [],
      "payable": false,
      "stateMutability": "nonpayable",
      "type": "function"
    },
    {
      "constant": true,
      "inputs": [
        {
          "name": "_swapID",
          "type": "bytes32"
        }
      ],
      "name": "check",
      "outputs": [
        {
          "name": "erc20Value",
          "type": "uint256"
        },
        {
          "name": "erc20Trader",
          "type": "address"
        },
        {
          "name": "erc20ContractAddress",
          "type": "address"
        },
        {
          "name": "ethValue",
          "type": "uint256"
        },
        {
          "name": "ethTrader",
          "type": "address"
        },
        {
          "name": "openedOn",
          "type": "uint256"
        },
        {
          "name": "state",
          "type": "uint8"
        }
      ],
      "payable": false,
      "stateMutability": "view",
      "type": "function"
    },
    {
      "constant": true,
      "inputs": [
        {
          "name": "account",
          "type": "address"
        }
      ],
      "name": "getAccountSwaps",
      "outputs": [
        {
          "name": "",
          "type": "bytes32[]"
        }
      ],
      "payable": false,
      "stateMutability": "view",
      "type": "function"
    }
  ],
  "bytecode": "0x608060405234801561001057600080fd5b50611230806100206000396000f30060806040526004361061006d576000357c0100000000000000000000000000000000000000000000000000000000900463ffffffff168063368f923b14610072578063399e07921461010a57806339c79e0c1461020b57806399149a7f1461022f578063c6441798146102b4575b600080fd5b34801561007e57600080fd5b506100b3600480360381019080803573ffffffffffffffffffffffffffffffffffffffff1690602001909291905050506102e5565b6040518080602001828103825283818151815260200191508051906020019060200280838360005b838110156100f65780820151818401526020810190506100db565b505050509050019250505060405180910390f35b34801561011657600080fd5b506101396004803603810190808035600019169060200190929190505050610380565b604051808881526020018773ffffffffffffffffffffffffffffffffffffffff1673ffffffffffffffffffffffffffffffffffffffff1681526020018673ffffffffffffffffffffffffffffffffffffffff1673ffffffffffffffffffffffffffffffffffffffff1681526020018581526020018473ffffffffffffffffffffffffffffffffffffffff1673ffffffffffffffffffffffffffffffffffffffff1681526020018381526020018260038111156101f157fe5b60ff16815260200197505050505050505060405180910390f35b61022d600480360381019080803560001916906020019092919050505061053f565b005b34801561023b57600080fd5b506102b2600480360381019080803560001916906020019092919080359060200190929190803573ffffffffffffffffffffffffffffffffffffffff16906020019092919080359060200190929190803573ffffffffffffffffffffffffffffffffffffffff1690602001909291905050506108a8565b005b3480156102c057600080fd5b506102e36004803603810190808035600019169060200190929190505050610e7f565b005b6060600260008373ffffffffffffffffffffffffffffffffffffffff1673ffffffffffffffffffffffffffffffffffffffff16815260200190815260200160002080548060200260200160405190810160405280929190818152602001828054801561037457602002820191906000526020600020905b8154600019168152602001906001019080831161035c575b50505050509050919050565b600080600080600080600061039361118b565b600160008a6000191660001916815260200190815260200160002060009054906101000a900460ff1691506000808a6000191660001916815260200190815260200160002060c06040519081016040529081600082015481526020016001820160009054906101000a900473ffffffffffffffffffffffffffffffffffffffff1673ffffffffffffffffffffffffffffffffffffffff1673ffffffffffffffffffffffffffffffffffffffff168152602001600282015481526020016003820160009054906101000a900473ffffffffffffffffffffffffffffffffffffffff1673ffffffffffffffffffffffffffffffffffffffff1673ffffffffffffffffffffffffffffffffffffffff1681526020016004820160009054906101000a900473ffffffffffffffffffffffffffffffffffffffff1673ffffffffffffffffffffffffffffffffffffffff1673ffffffffffffffffffffffffffffffffffffffff1681526020016005820154815250509050806040015181606001518260800151836000015184602001518560a0015187975097509750975097509750975050919395979092949650565b61054761118b565b6000826001600381111561055757fe5b60016000836000191660001916815260200190815260200160002060009054906101000a900460ff16600381111561058b57fe5b14151561059757600080fd5b600080856000191660001916815260200190815260200160002060c06040519081016040529081600082015481526020016001820160009054906101000a900473ffffffffffffffffffffffffffffffffffffffff1673ffffffffffffffffffffffffffffffffffffffff1673ffffffffffffffffffffffffffffffffffffffff168152602001600282015481526020016003820160009054906101000a900473ffffffffffffffffffffffffffffffffffffffff1673ffffffffffffffffffffffffffffffffffffffff1673ffffffffffffffffffffffffffffffffffffffff1681526020016004820160009054906101000a900473ffffffffffffffffffffffffffffffffffffffff1673ffffffffffffffffffffffffffffffffffffffff1673ffffffffffffffffffffffffffffffffffffffff1681526020016005820154815250509250600260016000866000191660001916815260200190815260200160002060006101000a81548160ff0219169083600381111561071757fe5b021790555082600001513414151561072e57600080fd5b826060015173ffffffffffffffffffffffffffffffffffffffff166108fc349081150290604051600060405180830381858888f19350505050158015610778573d6000803e3d6000fd5b50826080015191508173ffffffffffffffffffffffffffffffffffffffff1663a9059cbb846020015185604001516040518363ffffffff167c0100000000000000000000000000000000000000000000000000000000028152600401808373ffffffffffffffffffffffffffffffffffffffff1673ffffffffffffffffffffffffffffffffffffffff16815260200182815260200192505050602060405180830381600087803b15801561082b57600080fd5b505af115801561083f573d6000803e3d6000fd5b505050506040513d602081101561085557600080fd5b8101908080519060200190929190505050151561087157600080fd5b83600019167fc9d8209586aca26a4f59cc70108e4cf2f637da8cb4133c78a3946bc50581ea2860405160405180910390a250505050565b60006108b261118b565b86600060038111156108c057fe5b60016000836000191660001916815260200190815260200160002060009054906101000a900460ff1660038111156108f457fe5b14151561090057600080fd5b8592508273ffffffffffffffffffffffffffffffffffffffff1663dd62ed3e33306040518363ffffffff167c0100000000000000000000000000000000000000000000000000000000028152600401808373ffffffffffffffffffffffffffffffffffffffff1673ffffffffffffffffffffffffffffffffffffffff1681526020018273ffffffffffffffffffffffffffffffffffffffff1673ffffffffffffffffffffffffffffffffffffffff16815260200192505050602060405180830381600087803b1580156109d257600080fd5b505af11580156109e6573d6000803e3d6000fd5b505050506040513d60208110156109fc57600080fd5b81019080805190602001909291905050508711151515610a1b57600080fd5b8273ffffffffffffffffffffffffffffffffffffffff166323b872dd33308a6040518463ffffffff167c0100000000000000000000000000000000000000000000000000000000028152600401808473ffffffffffffffffffffffffffffffffffffffff1673ffffffffffffffffffffffffffffffffffffffff1681526020018373ffffffffffffffffffffffffffffffffffffffff1673ffffffffffffffffffffffffffffffffffffffff1681526020018281526020019350505050602060405180830381600087803b158015610af257600080fd5b505af1158015610b06573d6000803e3d6000fd5b505050506040513d6020811015610b1c57600080fd5b81019080805190602001909291905050501515610b3857600080fd5b60c0604051908101604052808681526020018573ffffffffffffffffffffffffffffffffffffffff1681526020018881526020013373ffffffffffffffffffffffffffffffffffffffff1681526020018773ffffffffffffffffffffffffffffffffffffffff168152602001428152509150816000808a600019166000191681526020019081526020016000206000820151816000015560208201518160010160006101000a81548173ffffffffffffffffffffffffffffffffffffffff021916908373ffffffffffffffffffffffffffffffffffffffff1602179055506040820151816002015560608201518160030160006101000a81548173ffffffffffffffffffffffffffffffffffffffff021916908373ffffffffffffffffffffffffffffffffffffffff16021790555060808201518160040160006101000a81548173ffffffffffffffffffffffffffffffffffffffff021916908373ffffffffffffffffffffffffffffffffffffffff16021790555060a0820151816005015590505060018060008a6000191660001916815260200190815260200160002060006101000a81548160ff02191690836003811115610cf257fe5b0217905550600260003373ffffffffffffffffffffffffffffffffffffffff1673ffffffffffffffffffffffffffffffffffffffff1681526020019081526020016000208890806001815401808255809150509060018203906000526020600020016000909192909190915090600019169055503373ffffffffffffffffffffffffffffffffffffffff168473ffffffffffffffffffffffffffffffffffffffff16141515610e0b57600260008573ffffffffffffffffffffffffffffffffffffffff1673ffffffffffffffffffffffffffffffffffffffff1681526020019081526020016000208890806001815401808255809150509060018203906000526020600020016000909192909190915090600019169055505b8373ffffffffffffffffffffffffffffffffffffffff163373ffffffffffffffffffffffffffffffffffffffff1689600019167f6c0b85eadd04bc64f835668b3fc1e93b91dfbdf56daf11dc7d6f0b0d2c3d1c62426040518082815260200191505060405180910390a45050505050505050565b610e8761118b565b60008260016003811115610e9757fe5b60016000836000191660001916815260200190815260200160002060009054906101000a900460ff166003811115610ecb57fe5b141515610ed757600080fd5b600080856000191660001916815260200190815260200160002060c06040519081016040529081600082015481526020016001820160009054906101000a900473ffffffffffffffffffffffffffffffffffffffff1673ffffffffffffffffffffffffffffffffffffffff1673ffffffffffffffffffffffffffffffffffffffff168152602001600282015481526020016003820160009054906101000a900473ffffffffffffffffffffffffffffffffffffffff1673ffffffffffffffffffffffffffffffffffffffff1673ffffffffffffffffffffffffffffffffffffffff1681526020016004820160009054906101000a900473ffffffffffffffffffffffffffffffffffffffff1673ffffffffffffffffffffffffffffffffffffffff1673ffffffffffffffffffffffffffffffffffffffff1681526020016005820154815250509250600360016000866000191660001916815260200190815260200160002060006101000a81548160ff0219169083600381111561105757fe5b0217905550826080015191508173ffffffffffffffffffffffffffffffffffffffff1663a9059cbb846060015185604001516040518363ffffffff167c0100000000000000000000000000000000000000000000000000000000028152600401808373ffffffffffffffffffffffffffffffffffffffff1673ffffffffffffffffffffffffffffffffffffffff16815260200182815260200192505050602060405180830381600087803b15801561110e57600080fd5b505af1158015611122573d6000803e3d6000fd5b505050506040513d602081101561113857600080fd5b8101908080519060200190929190505050151561115457600080fd5b83600019167fbddd9b693ea862fad6ecf78fd51c065be26fda94d1f3cad3a7d691453a38a73560405160405180910390a250505050565b60c06040519081016040528060008152602001600073ffffffffffffffffffffffffffffffffffffffff16815260200160008152602001600073ffffffffffffffffffffffffffffffffffffffff168152602001600073ffffffffffffffffffffffffffffffffffffffff1681526020016000815250905600a165627a7a7230582015407553059920b3d4ca8f1a0736ad0eac0c3f75b0008fb03a3998f7970eea270029",
  "source": "pragma solidity ^0.4.17;\r\n\r\nimport \"./ERC20.sol\";\r\n\r\ncontract AtomicSwapERC20ToEther {\r\n\r\n    struct Swap {\r\n        uint256 ethValue;\r\n        address ethTrader;\r\n        uint256 erc20Value;\r\n        address erc20Trader;\r\n        address erc20ContractAddress;\r\n        uint256 openedOn;\r\n    }\r\n\r\n    enum States {\r\n        INVALID,\r\n        OPEN,\r\n        CLOSED,\r\n        EXPIRED\r\n    }\r\n\r\n    mapping(bytes32 => Swap) private swaps;\r\n    mapping(bytes32 => States) private swapStates;\r\n    mapping(address => bytes32[]) accountSwaps;\r\n\r\n    event Open(bytes32 indexed _swapID, address indexed _erc20Trader, address indexed _ethTrader, uint256 _openedOn);\r\n    event Expire(bytes32 indexed _swapID);\r\n    event Close(bytes32 indexed _swapID);\r\n\r\n    modifier onlyInvalidSwaps(bytes32 _swapID) {\r\n        require(swapStates[_swapID] == States.INVALID);\r\n        _;\r\n    }\r\n\r\n    modifier onlyOpenSwaps(bytes32 _swapID) {\r\n        require(swapStates[_swapID] == States.OPEN);\r\n        _;\r\n    }\r\n\r\n    function open(bytes32 _swapID, uint256 _erc20Value, address _erc20ContractAddress, uint256 _ethValue, address _ethTrader) external onlyInvalidSwaps(_swapID) {\r\n        // Transfer value from the ERC20 trader to this contract.\r\n        ERC20 openERC20Contract = ERC20(_erc20ContractAddress);\r\n        require(_erc20Value <= openERC20Contract.allowance(msg.sender, address(this)));\r\n        require(openERC20Contract.transferFrom(msg.sender, address(this), _erc20Value));\r\n\r\n        // Store the details of the swap.\r\n        Swap memory swap = Swap({\r\n            ethValue: _ethValue,\r\n            ethTrader: _ethTrader,\r\n            erc20Value: _erc20Value,\r\n            erc20Trader: msg.sender,\r\n            erc20ContractAddress: _erc20ContractAddress,\r\n            openedOn: now\r\n        });\r\n        swaps[_swapID] = swap;\r\n        swapStates[_swapID] = States.OPEN;\r\n\r\n        // Update account swaps. Make sure there is no duplicates.\r\n        accountSwaps[msg.sender].push(_swapID);\r\n        if (_ethTrader != msg.sender) {\r\n            accountSwaps[_ethTrader].push(_swapID);\r\n        }\r\n\r\n        emit Open(_swapID, msg.sender, _ethTrader, now);\r\n    }\r\n\r\n    function close(bytes32 _swapID) external onlyOpenSwaps(_swapID) payable {\r\n        // Close the swap.\r\n        Swap memory swap = swaps[_swapID];\r\n        swapStates[_swapID] = States.CLOSED;\r\n\r\n        // Transfer the ETH funds from ETH trader to ERC20 trader via contract\r\n        require(msg.value == swap.ethValue);\r\n        swap.erc20Trader.transfer(msg.value);\r\n\r\n        // Transfer the ERC20 funds from this contract to the ETH trader.\r\n        ERC20 erc20Contract = ERC20(swap.erc20ContractAddress);\r\n        require(erc20Contract.transfer(swap.ethTrader, swap.erc20Value));\r\n\r\n        emit Close(_swapID);\r\n    }\r\n\r\n    function expire(bytes32 _swapID) external onlyOpenSwaps(_swapID) {\r\n        // Expire the swap.\r\n        Swap memory swap = swaps[_swapID];\r\n        swapStates[_swapID] = States.EXPIRED;\r\n\r\n        // Transfer ERC20 value from this contract back to the opening ERC20 trader.\r\n        ERC20 openERC20Contract = ERC20(swap.erc20ContractAddress);\r\n        require(openERC20Contract.transfer(swap.erc20Trader, swap.erc20Value));\r\n\r\n        emit Expire(_swapID);\r\n    }\r\n\r\n    function check(bytes32 _swapID) external view returns (uint256 erc20Value, address erc20Trader, address erc20ContractAddress, uint256 ethValue, address ethTrader, uint256 openedOn, States state) {\r\n        state = swapStates[_swapID];\r\n        Swap memory swap = swaps[_swapID];\r\n        return (swap.erc20Value, swap.erc20Trader, swap.erc20ContractAddress, swap.ethValue, swap.ethTrader, swap.openedOn, state);\r\n    }\r\n\r\n    function getAccountSwaps(address account) external view returns (bytes32[]) {\r\n        return accountSwaps[account];\r\n    }\r\n}\r\n",
  "sourcePath": "C:\\Projects\\Aerum\\aerumnet\\onchain-swap\\contracts\\swap\\AtomicSwapERC20ToEther.sol",
  "compiler": {
    "name": "solc",
    "version": "0.4.24+commit.e67f0147.Emscripten.clang"
  },
  "schemaVersion": "2.0.0",
  "updatedAt": "2018-06-19T10:19:17.318Z"
}