{
  "contractName": "AtomicSwapERC20",
  "abi": [
    {
      "anonymous": false,
      "inputs": [
        {
          "indexed": true,
          "name": "_hash",
          "type": "bytes32"
        },
        {
          "indexed": true,
          "name": "_withdrawTrader",
          "type": "address"
        }
      ],
      "name": "Open",
      "type": "event"
    },
    {
      "anonymous": false,
      "inputs": [
        {
          "indexed": true,
          "name": "_hash",
          "type": "bytes32"
        }
      ],
      "name": "Expire",
      "type": "event"
    },
    {
      "anonymous": false,
      "inputs": [
        {
          "indexed": true,
          "name": "_hash",
          "type": "bytes32"
        },
        {
          "indexed": false,
          "name": "_secretKey",
          "type": "bytes"
        }
      ],
      "name": "Close",
      "type": "event"
    },
    {
      "constant": false,
      "inputs": [
        {
          "name": "_hash",
          "type": "bytes32"
        },
        {
          "name": "_erc20Value",
          "type": "uint256"
        },
        {
          "name": "_erc20ContractAddress",
          "type": "address"
        },
        {
          "name": "_withdrawTrader",
          "type": "address"
        },
        {
          "name": "_timelock",
          "type": "uint256"
        }
      ],
      "name": "open",
      "outputs": [],
      "payable": false,
      "stateMutability": "nonpayable",
      "type": "function"
    },
    {
      "constant": false,
      "inputs": [
        {
          "name": "_hash",
          "type": "bytes32"
        },
        {
          "name": "_secretKey",
          "type": "bytes"
        }
      ],
      "name": "close",
      "outputs": [],
      "payable": false,
      "stateMutability": "nonpayable",
      "type": "function"
    },
    {
      "constant": false,
      "inputs": [
        {
          "name": "_hash",
          "type": "bytes32"
        }
      ],
      "name": "expire",
      "outputs": [],
      "payable": false,
      "stateMutability": "nonpayable",
      "type": "function"
    },
    {
      "constant": true,
      "inputs": [
        {
          "name": "_hash",
          "type": "bytes32"
        }
      ],
      "name": "check",
      "outputs": [
        {
          "name": "timelock",
          "type": "uint256"
        },
        {
          "name": "erc20Value",
          "type": "uint256"
        },
        {
          "name": "erc20ContractAddress",
          "type": "address"
        },
        {
          "name": "withdrawTrader",
          "type": "address"
        },
        {
          "name": "hash",
          "type": "bytes32"
        }
      ],
      "payable": false,
      "stateMutability": "view",
      "type": "function"
    },
    {
      "constant": true,
      "inputs": [
        {
          "name": "_hash",
          "type": "bytes32"
        }
      ],
      "name": "checkSecretKey",
      "outputs": [
        {
          "name": "secretKey",
          "type": "bytes"
        }
      ],
      "payable": false,
      "stateMutability": "view",
      "type": "function"
    }
  ],
  "bytecode": "0x608060405234801561001057600080fd5b506116f1806100206000396000f30060806040526004361061006d576000357c0100000000000000000000000000000000000000000000000000000000900463ffffffff1680631a26720c146100725780632a5de6a8146100bb578063399e079214610140578063c644179814610201578063f200e40414610232575b600080fd5b34801561007e57600080fd5b506100b960048036038101908080356000191690602001909291908035906020019082018035906020019190919293919293905050506102dc565b005b3480156100c757600080fd5b5061013e600480360381019080803560001916906020019092919080359060200190929190803573ffffffffffffffffffffffffffffffffffffffff169060200190929190803573ffffffffffffffffffffffffffffffffffffffff169060200190929190803590602001909291905050506107c1565b005b34801561014c57600080fd5b5061016f6004803603810190808035600019169060200190929190505050610cf6565b604051808681526020018581526020018473ffffffffffffffffffffffffffffffffffffffff1673ffffffffffffffffffffffffffffffffffffffff1681526020018373ffffffffffffffffffffffffffffffffffffffff1673ffffffffffffffffffffffffffffffffffffffff16815260200182600019166000191681526020019550505050505060405180910390f35b34801561020d57600080fd5b506102306004803603810190808035600019169060200190929190505050610f0f565b005b34801561023e57600080fd5b5061026160048036038101908080356000191690602001909291905050506112e1565b6040518080602001828103825283818151815260200191508051906020019080838360005b838110156102a1578082015181840152602081019050610286565b50505050905090810190601f1680156102ce5780820380516001836020036101000a031916815260200191505b509250505060405180910390f35b6102e4611527565b600084600160038111156102f457fe5b60016000836000191660001916815260200190815260200160002060009054906101000a900460ff16600381111561032857fe5b14151561033457600080fd5b8585858080601f0160208091040260200160405190810160405280939291908181526020018383808284378201915050505050506002816040518082805190602001908083835b6020831015156103a0578051825260208201915060208101905060208303925061037b565b6001836020036101000a0380198251168184511680821785525050505050509050019150506020604051808303816000865af11580156103e4573d6000803e3d6000fd5b5050506040513d60208110156103f957600080fd5b810190808051906020019092919050505060001916826000191614151561041f57600080fd5b600080896000191660001916815260200190815260200160002060c0604051908101604052908160008201548152602001600182015481526020016002820160009054906101000a900473ffffffffffffffffffffffffffffffffffffffff1673ffffffffffffffffffffffffffffffffffffffff1673ffffffffffffffffffffffffffffffffffffffff1681526020016003820160009054906101000a900473ffffffffffffffffffffffffffffffffffffffff1673ffffffffffffffffffffffffffffffffffffffff1673ffffffffffffffffffffffffffffffffffffffff1681526020016004820160009054906101000a900473ffffffffffffffffffffffffffffffffffffffff1673ffffffffffffffffffffffffffffffffffffffff1673ffffffffffffffffffffffffffffffffffffffff168152602001600582018054600181600116156101000203166002900480601f0160208091040260200160405190810160405280929190818152602001828054600181600116156101000203166002900480156105f45780601f106105c9576101008083540402835291602001916105f4565b820191906000526020600020905b8154815290600101906020018083116105d757829003601f168201915b505050505081525050945086866000808b60001916600019168152602001908152602001600020600501919061062b9291906115a0565b506002600160008a6000191660001916815260200190815260200160002060006101000a81548160ff0219169083600381111561066457fe5b0217905550846060015193508373ffffffffffffffffffffffffffffffffffffffff1663a9059cbb866080015187602001516040518363ffffffff167c0100000000000000000000000000000000000000000000000000000000028152600401808373ffffffffffffffffffffffffffffffffffffffff1673ffffffffffffffffffffffffffffffffffffffff16815260200182815260200192505050602060405180830381600087803b15801561071b57600080fd5b505af115801561072f573d6000803e3d6000fd5b505050506040513d602081101561074557600080fd5b8101908080519060200190929190505050151561076157600080fd5b87600019167f692fd10a275135b9a2a2f5819db3d9965a5129ea2ad3640a0156dbce2fc81bdd8888604051808060200182810382528484828181526020019250808284378201915050935050505060405180910390a25050505050505050565b60006107cb611527565b86600060038111156107d957fe5b60016000836000191660001916815260200190815260200160002060009054906101000a900460ff16600381111561080d57fe5b14151561081957600080fd5b6000600381111561082657fe5b600160008a6000191660001916815260200190815260200160002060009054906101000a900460ff16600381111561085a57fe5b14151561086657600080fd5b8592508273ffffffffffffffffffffffffffffffffffffffff1663dd62ed3e33306040518363ffffffff167c0100000000000000000000000000000000000000000000000000000000028152600401808373ffffffffffffffffffffffffffffffffffffffff1673ffffffffffffffffffffffffffffffffffffffff1681526020018273ffffffffffffffffffffffffffffffffffffffff1673ffffffffffffffffffffffffffffffffffffffff16815260200192505050602060405180830381600087803b15801561093857600080fd5b505af115801561094c573d6000803e3d6000fd5b505050506040513d602081101561096257600080fd5b8101908080519060200190929190505050871115151561098157600080fd5b8273ffffffffffffffffffffffffffffffffffffffff166323b872dd33308a6040518463ffffffff167c0100000000000000000000000000000000000000000000000000000000028152600401808473ffffffffffffffffffffffffffffffffffffffff1673ffffffffffffffffffffffffffffffffffffffff1681526020018373ffffffffffffffffffffffffffffffffffffffff1673ffffffffffffffffffffffffffffffffffffffff1681526020018281526020019350505050602060405180830381600087803b158015610a5857600080fd5b505af1158015610a6c573d6000803e3d6000fd5b505050506040513d6020811015610a8257600080fd5b81019080805190602001909291905050501515610a9e57600080fd5b60c0604051908101604052808581526020018881526020013373ffffffffffffffffffffffffffffffffffffffff1681526020018773ffffffffffffffffffffffffffffffffffffffff1681526020018673ffffffffffffffffffffffffffffffffffffffff16815260200160006040519080825280601f01601f191660200182016040528015610b3e5781602001602082028038833980820191505090505b508152509150816000808a60001916600019168152602001908152602001600020600082015181600001556020820151816001015560408201518160020160006101000a81548173ffffffffffffffffffffffffffffffffffffffff021916908373ffffffffffffffffffffffffffffffffffffffff16021790555060608201518160030160006101000a81548173ffffffffffffffffffffffffffffffffffffffff021916908373ffffffffffffffffffffffffffffffffffffffff16021790555060808201518160040160006101000a81548173ffffffffffffffffffffffffffffffffffffffff021916908373ffffffffffffffffffffffffffffffffffffffff16021790555060a0820151816005019080519060200190610c64929190611620565b5090505060018060008a6000191660001916815260200190815260200160002060006101000a81548160ff02191690836003811115610c9f57fe5b02179055508473ffffffffffffffffffffffffffffffffffffffff1688600019167fb5894ff5a344c5160302de0b2027c5b55f4914e9d8e8c11b377b559e5ec789eb60405160405180910390a35050505050505050565b6000806000806000610d06611527565b600080886000191660001916815260200190815260200160002060c0604051908101604052908160008201548152602001600182015481526020016002820160009054906101000a900473ffffffffffffffffffffffffffffffffffffffff1673ffffffffffffffffffffffffffffffffffffffff1673ffffffffffffffffffffffffffffffffffffffff1681526020016003820160009054906101000a900473ffffffffffffffffffffffffffffffffffffffff1673ffffffffffffffffffffffffffffffffffffffff1673ffffffffffffffffffffffffffffffffffffffff1681526020016004820160009054906101000a900473ffffffffffffffffffffffffffffffffffffffff1673ffffffffffffffffffffffffffffffffffffffff1673ffffffffffffffffffffffffffffffffffffffff168152602001600582018054600181600116156101000203166002900480601f016020809104026020016040519081016040528092919081815260200182805460018160011615610100020316600290048015610edb5780601f10610eb057610100808354040283529160200191610edb565b820191906000526020600020905b815481529060010190602001808311610ebe57829003601f168201915b505050505081525050905080600001518160200151826060015183608001518a955095509550955095505091939590929450565b610f17611527565b60008260016003811115610f2757fe5b60016000836000191660001916815260200190815260200160002060009054906101000a900460ff166003811115610f5b57fe5b141515610f6757600080fd5b836000808260001916600019168152602001908152602001600020600001544210151515610f9457600080fd5b600080866000191660001916815260200190815260200160002060c0604051908101604052908160008201548152602001600182015481526020016002820160009054906101000a900473ffffffffffffffffffffffffffffffffffffffff1673ffffffffffffffffffffffffffffffffffffffff1673ffffffffffffffffffffffffffffffffffffffff1681526020016003820160009054906101000a900473ffffffffffffffffffffffffffffffffffffffff1673ffffffffffffffffffffffffffffffffffffffff1673ffffffffffffffffffffffffffffffffffffffff1681526020016004820160009054906101000a900473ffffffffffffffffffffffffffffffffffffffff1673ffffffffffffffffffffffffffffffffffffffff1673ffffffffffffffffffffffffffffffffffffffff168152602001600582018054600181600116156101000203166002900480601f0160208091040260200160405190810160405280929190818152602001828054600181600116156101000203166002900480156111695780601f1061113e57610100808354040283529160200191611169565b820191906000526020600020905b81548152906001019060200180831161114c57829003601f168201915b5050505050815250509350600360016000876000191660001916815260200190815260200160002060006101000a81548160ff021916908360038111156111ac57fe5b0217905550836060015192508273ffffffffffffffffffffffffffffffffffffffff1663a9059cbb856040015186602001516040518363ffffffff167c0100000000000000000000000000000000000000000000000000000000028152600401808373ffffffffffffffffffffffffffffffffffffffff1673ffffffffffffffffffffffffffffffffffffffff16815260200182815260200192505050602060405180830381600087803b15801561126357600080fd5b505af1158015611277573d6000803e3d6000fd5b505050506040513d602081101561128d57600080fd5b810190808051906020019092919050505015156112a957600080fd5b84600019167fbddd9b693ea862fad6ecf78fd51c065be26fda94d1f3cad3a7d691453a38a73560405160405180910390a25050505050565b60606112eb611527565b82600260038111156112f957fe5b60016000836000191660001916815260200190815260200160002060009054906101000a900460ff16600381111561132d57fe5b14151561133957600080fd5b600080856000191660001916815260200190815260200160002060c0604051908101604052908160008201548152602001600182015481526020016002820160009054906101000a900473ffffffffffffffffffffffffffffffffffffffff1673ffffffffffffffffffffffffffffffffffffffff1673ffffffffffffffffffffffffffffffffffffffff1681526020016003820160009054906101000a900473ffffffffffffffffffffffffffffffffffffffff1673ffffffffffffffffffffffffffffffffffffffff1673ffffffffffffffffffffffffffffffffffffffff1681526020016004820160009054906101000a900473ffffffffffffffffffffffffffffffffffffffff1673ffffffffffffffffffffffffffffffffffffffff1673ffffffffffffffffffffffffffffffffffffffff168152602001600582018054600181600116156101000203166002900480601f01602080910402602001604051908101604052809291908181526020018280546001816001161561010002031660029004801561150e5780601f106114e35761010080835404028352916020019161150e565b820191906000526020600020905b8154815290600101906020018083116114f157829003601f168201915b50505050508152505091508160a0015192505050919050565b60c0604051908101604052806000815260200160008152602001600073ffffffffffffffffffffffffffffffffffffffff168152602001600073ffffffffffffffffffffffffffffffffffffffff168152602001600073ffffffffffffffffffffffffffffffffffffffff168152602001606081525090565b828054600181600116156101000203166002900490600052602060002090601f016020900481019282601f106115e157803560ff191683800117855561160f565b8280016001018555821561160f579182015b8281111561160e5782358255916020019190600101906115f3565b5b50905061161c91906116a0565b5090565b828054600181600116156101000203166002900490600052602060002090601f016020900481019282601f1061166157805160ff191683800117855561168f565b8280016001018555821561168f579182015b8281111561168e578251825591602001919060010190611673565b5b50905061169c91906116a0565b5090565b6116c291905b808211156116be5760008160009055506001016116a6565b5090565b905600a165627a7a72305820e2e21c2855e8adad3cffb5deaeabe81d08a577cb5b5f5bce3a5fa526e7cdf3760029",
  "source": "pragma solidity ^0.4.24;\r\n\r\nimport \"./ERC20.sol\";\r\n\r\ncontract AtomicSwapERC20 {\r\n\r\n    struct Swap {\r\n        uint256 timelock;\r\n        uint256 erc20Value;\r\n        address erc20Trader;\r\n        address erc20ContractAddress;\r\n        address withdrawTrader;\r\n        bytes secretKey;\r\n    }\r\n\r\n    enum States {\r\n        INVALID,\r\n        OPEN,\r\n        CLOSED,\r\n        EXPIRED\r\n    }\r\n\r\n    mapping(bytes32 => Swap) private swaps;\r\n    mapping(bytes32 => States) private swapStates;\r\n\r\n    event Open(bytes32 indexed _hash, address indexed _withdrawTrader);\r\n    event Expire(bytes32 indexed _hash);\r\n    event Close(bytes32 indexed _hash, bytes _secretKey);\r\n\r\n    modifier onlyInvalidSwaps(bytes32 _hash) {\r\n        require(swapStates[_hash] == States.INVALID);\r\n        _;\r\n    }\r\n\r\n    modifier onlyOpenSwaps(bytes32 _hash) {\r\n        require(swapStates[_hash] == States.OPEN);\r\n        _;\r\n    }\r\n\r\n    modifier onlyClosedSwaps(bytes32 _hash) {\r\n        require(swapStates[_hash] == States.CLOSED);\r\n        _;\r\n    }\r\n\r\n    modifier onlyExpirableSwaps(bytes32 _hash) {\r\n        require(now >= swaps[_hash].timelock);\r\n        _;\r\n    }\r\n\r\n    modifier onlyWithSecretKey(bytes32 _hash, bytes _secretKey) {\r\n        require(_hash == sha256(_secretKey));\r\n        _;\r\n    }\r\n\r\n    function open(bytes32 _hash, uint256 _erc20Value, address _erc20ContractAddress, address _withdrawTrader, uint256 _timelock) external onlyInvalidSwaps(_hash) {\r\n        require(swapStates[_hash] == States.INVALID);\r\n        // Transfer value from the ERC20 trader to this contract.\r\n        ERC20 erc20Contract = ERC20(_erc20ContractAddress);\r\n        require(_erc20Value <= erc20Contract.allowance(msg.sender, address(this)));\r\n        require(erc20Contract.transferFrom(msg.sender, address(this), _erc20Value));\r\n\r\n        // Store the details of the swap.\r\n        Swap memory swap = Swap({\r\n            timelock : _timelock,\r\n            erc20Value : _erc20Value,\r\n            erc20Trader : msg.sender,\r\n            erc20ContractAddress : _erc20ContractAddress,\r\n            withdrawTrader : _withdrawTrader,\r\n            secretKey : new bytes(0)\r\n            });\r\n        swaps[_hash] = swap;\r\n        swapStates[_hash] = States.OPEN;\r\n        emit Open(_hash, _withdrawTrader);\r\n    }\r\n\r\n    function close(bytes32 _hash, bytes _secretKey) external onlyOpenSwaps(_hash) onlyWithSecretKey(_hash, _secretKey) {\r\n        // Close the swap.\r\n        Swap memory swap = swaps[_hash];\r\n        swaps[_hash].secretKey = _secretKey;\r\n        swapStates[_hash] = States.CLOSED;\r\n\r\n        // Transfer the ERC20 funds from this contract to the withdrawing trader.\r\n        ERC20 erc20Contract = ERC20(swap.erc20ContractAddress);\r\n        require(erc20Contract.transfer(swap.withdrawTrader, swap.erc20Value));\r\n\r\n        emit Close(_hash, _secretKey);\r\n    }\r\n\r\n    function expire(bytes32 _hash) external onlyOpenSwaps(_hash) onlyExpirableSwaps(_hash) {\r\n        // Expire the swap.\r\n        Swap memory swap = swaps[_hash];\r\n        swapStates[_hash] = States.EXPIRED;\r\n\r\n        // Transfer the ERC20 value from this contract back to the ERC20 trader.\r\n        ERC20 erc20Contract = ERC20(swap.erc20ContractAddress);\r\n        require(erc20Contract.transfer(swap.erc20Trader, swap.erc20Value));\r\n\r\n        emit Expire(_hash);\r\n    }\r\n\r\n    function check(bytes32 _hash) external view returns (uint256 timelock, uint256 erc20Value, address erc20ContractAddress, address withdrawTrader, bytes32 hash) {\r\n        Swap memory swap = swaps[_hash];\r\n        return (swap.timelock, swap.erc20Value, swap.erc20ContractAddress, swap.withdrawTrader, _hash);\r\n    }\r\n\r\n    function checkSecretKey(bytes32 _hash) external view onlyClosedSwaps(_hash) returns (bytes secretKey) {\r\n        Swap memory swap = swaps[_hash];\r\n        return swap.secretKey;\r\n    }\r\n}\r\n",
  "sourcePath": "C:\\Projects\\Aerum\\aerumnet\\crosschain-swap\\contracts\\swap\\AtomicSwapERC20.sol",
  "compiler": {
    "name": "solc",
    "version": "0.4.24+commit.e67f0147.Emscripten.clang"
  },
  "schemaVersion": "2.0.0",
  "updatedAt": "2018-06-03T19:52:08.934Z"
}