{
  "contractName": "AtomicSwapEther",
  "abi": [
    {
      "anonymous": false,
      "inputs": [
        {
          "indexed": true,
          "name": "_hash",
          "type": "bytes32"
        },
        {
          "indexed": true,
          "name": "_withdrawTrader",
          "type": "address"
        }
      ],
      "name": "Open",
      "type": "event"
    },
    {
      "anonymous": false,
      "inputs": [
        {
          "indexed": true,
          "name": "_hash",
          "type": "bytes32"
        }
      ],
      "name": "Expire",
      "type": "event"
    },
    {
      "anonymous": false,
      "inputs": [
        {
          "indexed": true,
          "name": "_hash",
          "type": "bytes32"
        },
        {
          "indexed": false,
          "name": "_secretKey",
          "type": "bytes"
        }
      ],
      "name": "Close",
      "type": "event"
    },
    {
      "constant": false,
      "inputs": [
        {
          "name": "_hash",
          "type": "bytes32"
        },
        {
          "name": "_withdrawTrader",
          "type": "address"
        },
        {
          "name": "_timelock",
          "type": "uint256"
        }
      ],
      "name": "open",
      "outputs": [],
      "payable": true,
      "stateMutability": "payable",
      "type": "function"
    },
    {
      "constant": false,
      "inputs": [
        {
          "name": "_hash",
          "type": "bytes32"
        },
        {
          "name": "_secretKey",
          "type": "bytes"
        }
      ],
      "name": "close",
      "outputs": [],
      "payable": false,
      "stateMutability": "nonpayable",
      "type": "function"
    },
    {
      "constant": false,
      "inputs": [
        {
          "name": "_hash",
          "type": "bytes32"
        }
      ],
      "name": "expire",
      "outputs": [],
      "payable": false,
      "stateMutability": "nonpayable",
      "type": "function"
    },
    {
      "constant": true,
      "inputs": [
        {
          "name": "_hash",
          "type": "bytes32"
        }
      ],
      "name": "check",
      "outputs": [
        {
          "name": "timelock",
          "type": "uint256"
        },
        {
          "name": "value",
          "type": "uint256"
        },
        {
          "name": "withdrawTrader",
          "type": "address"
        },
        {
          "name": "hash",
          "type": "bytes32"
        }
      ],
      "payable": false,
      "stateMutability": "view",
      "type": "function"
    },
    {
      "constant": true,
      "inputs": [
        {
          "name": "_hash",
          "type": "bytes32"
        }
      ],
      "name": "checkSecretKey",
      "outputs": [
        {
          "name": "secretKey",
          "type": "bytes"
        }
      ],
      "payable": false,
      "stateMutability": "view",
      "type": "function"
    }
  ],
  "bytecode": "0x608060405234801561001057600080fd5b506110c2806100206000396000f30060806040526004361061006d576000357c0100000000000000000000000000000000000000000000000000000000900463ffffffff1680631a26720c14610072578063399e0792146100bb578063c644179814610149578063f200e4041461017a578063fd745bce14610224575b600080fd5b34801561007e57600080fd5b506100b96004803603810190808035600019169060200190929190803590602001908201803590602001919091929391929390505050610272565b005b3480156100c757600080fd5b506100ea6004803603810190808035600019169060200190929190505050610655565b604051808581526020018481526020018373ffffffffffffffffffffffffffffffffffffffff1673ffffffffffffffffffffffffffffffffffffffff168152602001826000191660001916815260200194505050505060405180910390f35b34801561015557600080fd5b50610178600480360381019080803560001916906020019092919050505061080d565b005b34801561018657600080fd5b506101a96004803603810190808035600019169060200190929190505050610add565b6040518080602001828103825283818151815260200191508051906020019080838360005b838110156101e95780820151818401526020810190506101ce565b50505050905090810190601f1680156102165780820380516001836020036101000a031916815260200191505b509250505060405180910390f35b6102706004803603810190808035600019169060200190929190803573ffffffffffffffffffffffffffffffffffffffff16906020019092919080359060200190929190505050610ccd565b005b61027a610f15565b836001600381111561028857fe5b60016000836000191660001916815260200190815260200160002060009054906101000a900460ff1660038111156102bc57fe5b1415156102c857600080fd5b8484848080601f0160208091040260200160405190810160405280939291908181526020018383808284378201915050505050506002816040518082805190602001908083835b602083101515610334578051825260208201915060208101905060208303925061030f565b6001836020036101000a0380198251168184511680821785525050505050509050019150506020604051808303816000865af1158015610378573d6000803e3d6000fd5b5050506040513d602081101561038d57600080fd5b81019080805190602001909291905050506000191682600019161415156103b357600080fd5b600080886000191660001916815260200190815260200160002060a0604051908101604052908160008201548152602001600182015481526020016002820160009054906101000a900473ffffffffffffffffffffffffffffffffffffffff1673ffffffffffffffffffffffffffffffffffffffff1673ffffffffffffffffffffffffffffffffffffffff1681526020016003820160009054906101000a900473ffffffffffffffffffffffffffffffffffffffff1673ffffffffffffffffffffffffffffffffffffffff1673ffffffffffffffffffffffffffffffffffffffff168152602001600482018054600181600116156101000203166002900480601f0160208091040260200160405190810160405280929190818152602001828054600181600116156101000203166002900480156105325780601f1061050757610100808354040283529160200191610532565b820191906000526020600020905b81548152906001019060200180831161051557829003601f168201915b505050505081525050935085856000808a600019166000191681526020019081526020016000206004019190610569929190610f71565b50600260016000896000191660001916815260200190815260200160002060006101000a81548160ff021916908360038111156105a257fe5b0217905550836060015173ffffffffffffffffffffffffffffffffffffffff166108fc85602001519081150290604051600060405180830381858888f193505050501580156105f5573d6000803e3d6000fd5b5086600019167f692fd10a275135b9a2a2f5819db3d9965a5129ea2ad3640a0156dbce2fc81bdd8787604051808060200182810382528484828181526020019250808284378201915050935050505060405180910390a250505050505050565b600080600080610663610f15565b600080876000191660001916815260200190815260200160002060a0604051908101604052908160008201548152602001600182015481526020016002820160009054906101000a900473ffffffffffffffffffffffffffffffffffffffff1673ffffffffffffffffffffffffffffffffffffffff1673ffffffffffffffffffffffffffffffffffffffff1681526020016003820160009054906101000a900473ffffffffffffffffffffffffffffffffffffffff1673ffffffffffffffffffffffffffffffffffffffff1673ffffffffffffffffffffffffffffffffffffffff168152602001600482018054600181600116156101000203166002900480601f0160208091040260200160405190810160405280929190818152602001828054600181600116156101000203166002900480156107e25780601f106107b7576101008083540402835291602001916107e2565b820191906000526020600020905b8154815290600101906020018083116107c557829003601f168201915b5050505050815250509050806000015181602001518260600151889450945094509450509193509193565b610815610f15565b816001600381111561082357fe5b60016000836000191660001916815260200190815260200160002060009054906101000a900460ff16600381111561085757fe5b14151561086357600080fd5b82600080826000191660001916815260200190815260200160002060000154421015151561089057600080fd5b600080856000191660001916815260200190815260200160002060a0604051908101604052908160008201548152602001600182015481526020016002820160009054906101000a900473ffffffffffffffffffffffffffffffffffffffff1673ffffffffffffffffffffffffffffffffffffffff1673ffffffffffffffffffffffffffffffffffffffff1681526020016003820160009054906101000a900473ffffffffffffffffffffffffffffffffffffffff1673ffffffffffffffffffffffffffffffffffffffff1673ffffffffffffffffffffffffffffffffffffffff168152602001600482018054600181600116156101000203166002900480601f016020809104026020016040519081016040528092919081815260200182805460018160011615610100020316600290048015610a0f5780601f106109e457610100808354040283529160200191610a0f565b820191906000526020600020905b8154815290600101906020018083116109f257829003601f168201915b5050505050815250509250600360016000866000191660001916815260200190815260200160002060006101000a81548160ff02191690836003811115610a5257fe5b0217905550826040015173ffffffffffffffffffffffffffffffffffffffff166108fc84602001519081150290604051600060405180830381858888f19350505050158015610aa5573d6000803e3d6000fd5b5083600019167fbddd9b693ea862fad6ecf78fd51c065be26fda94d1f3cad3a7d691453a38a73560405160405180910390a250505050565b6060610ae7610f15565b8260026003811115610af557fe5b60016000836000191660001916815260200190815260200160002060009054906101000a900460ff166003811115610b2957fe5b141515610b3557600080fd5b600080856000191660001916815260200190815260200160002060a0604051908101604052908160008201548152602001600182015481526020016002820160009054906101000a900473ffffffffffffffffffffffffffffffffffffffff1673ffffffffffffffffffffffffffffffffffffffff1673ffffffffffffffffffffffffffffffffffffffff1681526020016003820160009054906101000a900473ffffffffffffffffffffffffffffffffffffffff1673ffffffffffffffffffffffffffffffffffffffff1673ffffffffffffffffffffffffffffffffffffffff168152602001600482018054600181600116156101000203166002900480601f016020809104026020016040519081016040528092919081815260200182805460018160011615610100020316600290048015610cb45780601f10610c8957610100808354040283529160200191610cb4565b820191906000526020600020905b815481529060010190602001808311610c9757829003601f168201915b5050505050815250509150816080015192505050919050565b610cd5610f15565b8360006003811115610ce357fe5b60016000836000191660001916815260200190815260200160002060009054906101000a900460ff166003811115610d1757fe5b141515610d2357600080fd5b60a0604051908101604052808481526020013481526020013373ffffffffffffffffffffffffffffffffffffffff1681526020018573ffffffffffffffffffffffffffffffffffffffff16815260200160006040519080825280601f01601f191660200182016040528015610da75781602001602082028038833980820191505090505b508152509150816000808760001916600019168152602001908152602001600020600082015181600001556020820151816001015560408201518160020160006101000a81548173ffffffffffffffffffffffffffffffffffffffff021916908373ffffffffffffffffffffffffffffffffffffffff16021790555060608201518160030160006101000a81548173ffffffffffffffffffffffffffffffffffffffff021916908373ffffffffffffffffffffffffffffffffffffffff1602179055506080820151816004019080519060200190610e86929190610ff1565b509050506001806000876000191660001916815260200190815260200160002060006101000a81548160ff02191690836003811115610ec157fe5b02179055508373ffffffffffffffffffffffffffffffffffffffff1685600019167fb5894ff5a344c5160302de0b2027c5b55f4914e9d8e8c11b377b559e5ec789eb60405160405180910390a35050505050565b60a0604051908101604052806000815260200160008152602001600073ffffffffffffffffffffffffffffffffffffffff168152602001600073ffffffffffffffffffffffffffffffffffffffff168152602001606081525090565b828054600181600116156101000203166002900490600052602060002090601f016020900481019282601f10610fb257803560ff1916838001178555610fe0565b82800160010185558215610fe0579182015b82811115610fdf578235825591602001919060010190610fc4565b5b509050610fed9190611071565b5090565b828054600181600116156101000203166002900490600052602060002090601f016020900481019282601f1061103257805160ff1916838001178555611060565b82800160010185558215611060579182015b8281111561105f578251825591602001919060010190611044565b5b50905061106d9190611071565b5090565b61109391905b8082111561108f576000816000905550600101611077565b5090565b905600a165627a7a72305820a331b1be10ba5f8a123ae2dddda8be57beab9a7554ab4c561bb781236293cac10029",
  "source": "pragma solidity ^0.4.24;\r\n\r\ncontract AtomicSwapEther {\r\n\r\n    struct Swap {\r\n        uint256 timelock;\r\n        uint256 value;\r\n        address ethTrader;\r\n        address withdrawTrader;\r\n        bytes secretKey;\r\n    }\r\n\r\n    enum States {\r\n        INVALID,\r\n        OPEN,\r\n        CLOSED,\r\n        EXPIRED\r\n    }\r\n\r\n    mapping(bytes32 => Swap) private swaps;\r\n    mapping(bytes32 => States) private swapStates;\r\n\r\n    event Open(bytes32 indexed _hash, address indexed _withdrawTrader);\r\n    event Expire(bytes32 indexed _hash);\r\n    event Close(bytes32 indexed _hash, bytes _secretKey);\r\n\r\n    modifier onlyInvalidSwaps(bytes32 _hash) {\r\n        require(swapStates[_hash] == States.INVALID);\r\n        _;\r\n    }\r\n\r\n    modifier onlyOpenSwaps(bytes32 _hash) {\r\n        require(swapStates[_hash] == States.OPEN);\r\n        _;\r\n    }\r\n\r\n    modifier onlyClosedSwaps(bytes32 _hash) {\r\n        require(swapStates[_hash] == States.CLOSED);\r\n        _;\r\n    }\r\n\r\n    modifier onlyExpirableSwaps(bytes32 _hash) {\r\n        require(now >= swaps[_hash].timelock);\r\n        _;\r\n    }\r\n\r\n    modifier onlyWithSecretKey(bytes32 _hash, bytes _secretKey) {\r\n        require(_hash == sha256(_secretKey));\r\n        _;\r\n    }\r\n\r\n    function open(bytes32 _hash, address _withdrawTrader, uint256 _timelock) external onlyInvalidSwaps(_hash) payable {\r\n        // Store the details of the swap.\r\n        Swap memory swap = Swap({\r\n            timelock : _timelock,\r\n            value : msg.value,\r\n            ethTrader : msg.sender,\r\n            withdrawTrader : _withdrawTrader,\r\n            secretKey : new bytes(0)\r\n        });\r\n        swaps[_hash] = swap;\r\n        swapStates[_hash] = States.OPEN;\r\n\r\n        // Trigger open event.\r\n        emit Open(_hash, _withdrawTrader);\r\n    }\r\n\r\n    function close(bytes32 _hash, bytes _secretKey) external onlyOpenSwaps(_hash) onlyWithSecretKey(_hash, _secretKey) {\r\n        // Close the swap.\r\n        Swap memory swap = swaps[_hash];\r\n        swaps[_hash].secretKey = _secretKey;\r\n        swapStates[_hash] = States.CLOSED;\r\n\r\n        // Transfer the ETH funds from this contract to the withdrawing trader.\r\n        swap.withdrawTrader.transfer(swap.value);\r\n\r\n        // Trigger close event.\r\n        emit Close(_hash, _secretKey);\r\n    }\r\n\r\n    function expire(bytes32 _hash) external onlyOpenSwaps(_hash) onlyExpirableSwaps(_hash) {\r\n        // Expire the swap.\r\n        Swap memory swap = swaps[_hash];\r\n        swapStates[_hash] = States.EXPIRED;\r\n\r\n        // Transfer the ETH value from this contract back to the ETH trader.\r\n        swap.ethTrader.transfer(swap.value);\r\n\r\n        // Trigger expire event.\r\n        emit Expire(_hash);\r\n    }\r\n\r\n    function check(bytes32 _hash) external view returns (uint256 timelock, uint256 value, address withdrawTrader, bytes32 hash) {\r\n        Swap memory swap = swaps[_hash];\r\n        return (swap.timelock, swap.value, swap.withdrawTrader, _hash);\r\n    }\r\n\r\n    function checkSecretKey(bytes32 _hash) external view onlyClosedSwaps(_hash) returns (bytes secretKey) {\r\n        Swap memory swap = swaps[_hash];\r\n        return swap.secretKey;\r\n    }\r\n}\r\n",
  "sourcePath": "C:\\Projects\\Aerum\\aerumnet\\crosschain-swap\\contracts\\swap\\AtomicSwapEther.sol",
  "compiler": {
    "name": "solc",
    "version": "0.4.24+commit.e67f0147.Emscripten.clang"
  },
  "schemaVersion": "2.0.0",
  "updatedAt": "2018-06-03T19:52:08.920Z"
}