{
  "contractName": "AtomicSwapERC20ToERC20",
  "abi": [
    {
      "anonymous": false,
      "inputs": [
        {
          "indexed": true,
          "name": "_swapID",
          "type": "bytes32"
        },
        {
          "indexed": true,
          "name": "_openTrader",
          "type": "address"
        },
        {
          "indexed": true,
          "name": "_closeTrader",
          "type": "address"
        },
        {
          "indexed": false,
          "name": "_openedOn",
          "type": "uint256"
        }
      ],
      "name": "Open",
      "type": "event"
    },
    {
      "anonymous": false,
      "inputs": [
        {
          "indexed": true,
          "name": "_swapID",
          "type": "bytes32"
        }
      ],
      "name": "Expire",
      "type": "event"
    },
    {
      "anonymous": false,
      "inputs": [
        {
          "indexed": true,
          "name": "_swapID",
          "type": "bytes32"
        }
      ],
      "name": "Close",
      "type": "event"
    },
    {
      "constant": false,
      "inputs": [
        {
          "name": "_swapID",
          "type": "bytes32"
        },
        {
          "name": "_openValue",
          "type": "uint256"
        },
        {
          "name": "_openContractAddress",
          "type": "address"
        },
        {
          "name": "_closeValue",
          "type": "uint256"
        },
        {
          "name": "_closeTrader",
          "type": "address"
        },
        {
          "name": "_closeContractAddress",
          "type": "address"
        }
      ],
      "name": "open",
      "outputs": [],
      "payable": false,
      "stateMutability": "nonpayable",
      "type": "function"
    },
    {
      "constant": false,
      "inputs": [
        {
          "name": "_swapID",
          "type": "bytes32"
        }
      ],
      "name": "close",
      "outputs": [],
      "payable": false,
      "stateMutability": "nonpayable",
      "type": "function"
    },
    {
      "constant": false,
      "inputs": [
        {
          "name": "_swapID",
          "type": "bytes32"
        }
      ],
      "name": "expire",
      "outputs": [],
      "payable": false,
      "stateMutability": "nonpayable",
      "type": "function"
    },
    {
      "constant": true,
      "inputs": [
        {
          "name": "_swapID",
          "type": "bytes32"
        }
      ],
      "name": "check",
      "outputs": [
        {
          "name": "openValue",
          "type": "uint256"
        },
        {
          "name": "openTrader",
          "type": "address"
        },
        {
          "name": "openContractAddress",
          "type": "address"
        },
        {
          "name": "closeValue",
          "type": "uint256"
        },
        {
          "name": "closeTrader",
          "type": "address"
        },
        {
          "name": "closeContractAddress",
          "type": "address"
        },
        {
          "name": "openedOn",
          "type": "uint256"
        },
        {
          "name": "state",
          "type": "uint8"
        }
      ],
      "payable": false,
      "stateMutability": "view",
      "type": "function"
    },
    {
      "constant": true,
      "inputs": [
        {
          "name": "account",
          "type": "address"
        }
      ],
      "name": "getAccountSwaps",
      "outputs": [
        {
          "name": "",
          "type": "bytes32[]"
        }
      ],
      "payable": false,
      "stateMutability": "view",
      "type": "function"
    }
  ],
  "bytecode": "0x608060405234801561001057600080fd5b50611610806100206000396000f30060806040526004361061006d576000357c0100000000000000000000000000000000000000000000000000000000900463ffffffff168063368f923b14610072578063399e07921461010a57806339c79e0c1461023e5780635454a4381461026f578063c644179814610314575b600080fd5b34801561007e57600080fd5b506100b3600480360381019080803573ffffffffffffffffffffffffffffffffffffffff169060200190929190505050610345565b6040518080602001828103825283818151815260200191508051906020019060200280838360005b838110156100f65780820151818401526020810190506100db565b505050509050019250505060405180910390f35b34801561011657600080fd5b5061013960048036038101908080356000191690602001909291905050506103e0565b604051808981526020018873ffffffffffffffffffffffffffffffffffffffff1673ffffffffffffffffffffffffffffffffffffffff1681526020018773ffffffffffffffffffffffffffffffffffffffff1673ffffffffffffffffffffffffffffffffffffffff1681526020018681526020018573ffffffffffffffffffffffffffffffffffffffff1673ffffffffffffffffffffffffffffffffffffffff1681526020018473ffffffffffffffffffffffffffffffffffffffff1673ffffffffffffffffffffffffffffffffffffffff16815260200183815260200182600381111561022357fe5b60ff1681526020019850505050505050505060405180910390f35b34801561024a57600080fd5b5061026d60048036038101908080356000191690602001909291905050506105fd565b005b34801561027b57600080fd5b50610312600480360381019080803560001916906020019092919080359060200190929190803573ffffffffffffffffffffffffffffffffffffffff16906020019092919080359060200190929190803573ffffffffffffffffffffffffffffffffffffffff169060200190929190803573ffffffffffffffffffffffffffffffffffffffff169060200190929190505050610bb1565b005b34801561032057600080fd5b5061034360048036038101908080356000191690602001909291905050506111ec565b005b6060600260008373ffffffffffffffffffffffffffffffffffffffff1673ffffffffffffffffffffffffffffffffffffffff1681526020019081526020016000208054806020026020016040519081016040528092919081815260200182805480156103d457602002820191906000526020600020905b815460001916815260200190600101908083116103bc575b50505050509050919050565b6000806000806000806000806103f461154e565b600160008b6000191660001916815260200190815260200160002060009054906101000a900460ff1691506000808b6000191660001916815260200190815260200160002060e06040519081016040529081600082015481526020016001820160009054906101000a900473ffffffffffffffffffffffffffffffffffffffff1673ffffffffffffffffffffffffffffffffffffffff1673ffffffffffffffffffffffffffffffffffffffff1681526020016002820160009054906101000a900473ffffffffffffffffffffffffffffffffffffffff1673ffffffffffffffffffffffffffffffffffffffff1673ffffffffffffffffffffffffffffffffffffffff168152602001600382015481526020016004820160009054906101000a900473ffffffffffffffffffffffffffffffffffffffff1673ffffffffffffffffffffffffffffffffffffffff1673ffffffffffffffffffffffffffffffffffffffff1681526020016005820160009054906101000a900473ffffffffffffffffffffffffffffffffffffffff1673ffffffffffffffffffffffffffffffffffffffff1673ffffffffffffffffffffffffffffffffffffffff1681526020016006820154815250509050806000015181602001518260400151836060015184608001518560a001518660c00151889850985098509850985098509850985050919395975091939597565b61060561154e565b600080836001600381111561061657fe5b60016000836000191660001916815260200190815260200160002060009054906101000a900460ff16600381111561064a57fe5b14151561065657600080fd5b600080866000191660001916815260200190815260200160002060e06040519081016040529081600082015481526020016001820160009054906101000a900473ffffffffffffffffffffffffffffffffffffffff1673ffffffffffffffffffffffffffffffffffffffff1673ffffffffffffffffffffffffffffffffffffffff1681526020016002820160009054906101000a900473ffffffffffffffffffffffffffffffffffffffff1673ffffffffffffffffffffffffffffffffffffffff1673ffffffffffffffffffffffffffffffffffffffff168152602001600382015481526020016004820160009054906101000a900473ffffffffffffffffffffffffffffffffffffffff1673ffffffffffffffffffffffffffffffffffffffff1673ffffffffffffffffffffffffffffffffffffffff1681526020016005820160009054906101000a900473ffffffffffffffffffffffffffffffffffffffff1673ffffffffffffffffffffffffffffffffffffffff1673ffffffffffffffffffffffffffffffffffffffff1681526020016006820154815250509350600260016000876000191660001916815260200190815260200160002060006101000a81548160ff0219169083600381111561082c57fe5b02179055508360a0015192508273ffffffffffffffffffffffffffffffffffffffff1663dd62ed3e8560800151306040518363ffffffff167c0100000000000000000000000000000000000000000000000000000000028152600401808373ffffffffffffffffffffffffffffffffffffffff1673ffffffffffffffffffffffffffffffffffffffff1681526020018273ffffffffffffffffffffffffffffffffffffffff1673ffffffffffffffffffffffffffffffffffffffff16815260200192505050602060405180830381600087803b15801561090b57600080fd5b505af115801561091f573d6000803e3d6000fd5b505050506040513d602081101561093557600080fd5b810190808051906020019092919050505084606001511115151561095857600080fd5b8273ffffffffffffffffffffffffffffffffffffffff166323b872dd8560800151866020015187606001516040518463ffffffff167c0100000000000000000000000000000000000000000000000000000000028152600401808473ffffffffffffffffffffffffffffffffffffffff1673ffffffffffffffffffffffffffffffffffffffff1681526020018373ffffffffffffffffffffffffffffffffffffffff1673ffffffffffffffffffffffffffffffffffffffff1681526020018281526020019350505050602060405180830381600087803b158015610a3b57600080fd5b505af1158015610a4f573d6000803e3d6000fd5b505050506040513d6020811015610a6557600080fd5b81019080805190602001909291905050501515610a8157600080fd5b836040015191508173ffffffffffffffffffffffffffffffffffffffff1663a9059cbb856080015186600001516040518363ffffffff167c0100000000000000000000000000000000000000000000000000000000028152600401808373ffffffffffffffffffffffffffffffffffffffff1673ffffffffffffffffffffffffffffffffffffffff16815260200182815260200192505050602060405180830381600087803b158015610b3357600080fd5b505af1158015610b47573d6000803e3d6000fd5b505050506040513d6020811015610b5d57600080fd5b81019080805190602001909291905050501515610b7957600080fd5b84600019167fc9d8209586aca26a4f59cc70108e4cf2f637da8cb4133c78a3946bc50581ea2860405160405180910390a25050505050565b6000610bbb61154e565b8760006003811115610bc957fe5b60016000836000191660001916815260200190815260200160002060009054906101000a900460ff166003811115610bfd57fe5b141515610c0957600080fd5b8692508273ffffffffffffffffffffffffffffffffffffffff1663dd62ed3e33306040518363ffffffff167c0100000000000000000000000000000000000000000000000000000000028152600401808373ffffffffffffffffffffffffffffffffffffffff1673ffffffffffffffffffffffffffffffffffffffff1681526020018273ffffffffffffffffffffffffffffffffffffffff1673ffffffffffffffffffffffffffffffffffffffff16815260200192505050602060405180830381600087803b158015610cdb57600080fd5b505af1158015610cef573d6000803e3d6000fd5b505050506040513d6020811015610d0557600080fd5b81019080805190602001909291905050508811151515610d2457600080fd5b8273ffffffffffffffffffffffffffffffffffffffff166323b872dd33308b6040518463ffffffff167c0100000000000000000000000000000000000000000000000000000000028152600401808473ffffffffffffffffffffffffffffffffffffffff1673ffffffffffffffffffffffffffffffffffffffff1681526020018373ffffffffffffffffffffffffffffffffffffffff1673ffffffffffffffffffffffffffffffffffffffff1681526020018281526020019350505050602060405180830381600087803b158015610dfb57600080fd5b505af1158015610e0f573d6000803e3d6000fd5b505050506040513d6020811015610e2557600080fd5b81019080805190602001909291905050501515610e4157600080fd5b60e0604051908101604052808981526020013373ffffffffffffffffffffffffffffffffffffffff1681526020018873ffffffffffffffffffffffffffffffffffffffff1681526020018781526020018673ffffffffffffffffffffffffffffffffffffffff1681526020018573ffffffffffffffffffffffffffffffffffffffff168152602001428152509150816000808b600019166000191681526020019081526020016000206000820151816000015560208201518160010160006101000a81548173ffffffffffffffffffffffffffffffffffffffff021916908373ffffffffffffffffffffffffffffffffffffffff16021790555060408201518160020160006101000a81548173ffffffffffffffffffffffffffffffffffffffff021916908373ffffffffffffffffffffffffffffffffffffffff1602179055506060820151816003015560808201518160040160006101000a81548173ffffffffffffffffffffffffffffffffffffffff021916908373ffffffffffffffffffffffffffffffffffffffff16021790555060a08201518160050160006101000a81548173ffffffffffffffffffffffffffffffffffffffff021916908373ffffffffffffffffffffffffffffffffffffffff16021790555060c0820151816006015590505060018060008b6000191660001916815260200190815260200160002060006101000a81548160ff0219169083600381111561105e57fe5b0217905550600260003373ffffffffffffffffffffffffffffffffffffffff1673ffffffffffffffffffffffffffffffffffffffff1681526020019081526020016000208990806001815401808255809150509060018203906000526020600020016000909192909190915090600019169055503373ffffffffffffffffffffffffffffffffffffffff168573ffffffffffffffffffffffffffffffffffffffff1614151561117757600260008673ffffffffffffffffffffffffffffffffffffffff1673ffffffffffffffffffffffffffffffffffffffff1681526020019081526020016000208990806001815401808255809150509060018203906000526020600020016000909192909190915090600019169055505b8473ffffffffffffffffffffffffffffffffffffffff163373ffffffffffffffffffffffffffffffffffffffff168a600019167f6c0b85eadd04bc64f835668b3fc1e93b91dfbdf56daf11dc7d6f0b0d2c3d1c62426040518082815260200191505060405180910390a4505050505050505050565b6111f461154e565b6000826001600381111561120457fe5b60016000836000191660001916815260200190815260200160002060009054906101000a900460ff16600381111561123857fe5b14151561124457600080fd5b600080856000191660001916815260200190815260200160002060e06040519081016040529081600082015481526020016001820160009054906101000a900473ffffffffffffffffffffffffffffffffffffffff1673ffffffffffffffffffffffffffffffffffffffff1673ffffffffffffffffffffffffffffffffffffffff1681526020016002820160009054906101000a900473ffffffffffffffffffffffffffffffffffffffff1673ffffffffffffffffffffffffffffffffffffffff1673ffffffffffffffffffffffffffffffffffffffff168152602001600382015481526020016004820160009054906101000a900473ffffffffffffffffffffffffffffffffffffffff1673ffffffffffffffffffffffffffffffffffffffff1673ffffffffffffffffffffffffffffffffffffffff1681526020016005820160009054906101000a900473ffffffffffffffffffffffffffffffffffffffff1673ffffffffffffffffffffffffffffffffffffffff1673ffffffffffffffffffffffffffffffffffffffff1681526020016006820154815250509250600360016000866000191660001916815260200190815260200160002060006101000a81548160ff0219169083600381111561141a57fe5b0217905550826040015191508173ffffffffffffffffffffffffffffffffffffffff1663a9059cbb846020015185600001516040518363ffffffff167c0100000000000000000000000000000000000000000000000000000000028152600401808373ffffffffffffffffffffffffffffffffffffffff1673ffffffffffffffffffffffffffffffffffffffff16815260200182815260200192505050602060405180830381600087803b1580156114d157600080fd5b505af11580156114e5573d6000803e3d6000fd5b505050506040513d60208110156114fb57600080fd5b8101908080519060200190929190505050151561151757600080fd5b83600019167fbddd9b693ea862fad6ecf78fd51c065be26fda94d1f3cad3a7d691453a38a73560405160405180910390a250505050565b60e06040519081016040528060008152602001600073ffffffffffffffffffffffffffffffffffffffff168152602001600073ffffffffffffffffffffffffffffffffffffffff16815260200160008152602001600073ffffffffffffffffffffffffffffffffffffffff168152602001600073ffffffffffffffffffffffffffffffffffffffff1681526020016000815250905600a165627a7a72305820bac6edc391092fd0665416074ad12580cd2b95437a6cbe52e3741484116618860029",
  "source": "pragma solidity ^0.4.17;\r\n\r\nimport \"./ERC20.sol\";\r\n\r\ncontract AtomicSwapERC20ToERC20 {\r\n\r\n    struct Swap {\r\n        uint256 openValue;\r\n        address openTrader;\r\n        address openContractAddress;\r\n        uint256 closeValue;\r\n        address closeTrader;\r\n        address closeContractAddress;\r\n        uint256 openedOn;\r\n    }\r\n\r\n    enum States {\r\n        INVALID,\r\n        OPEN,\r\n        CLOSED,\r\n        EXPIRED\r\n    }\r\n\r\n    mapping (bytes32 => Swap) private swaps;\r\n    mapping (bytes32 => States) private swapStates;\r\n    mapping(address => bytes32[]) accountSwaps;\r\n\r\n    event Open(bytes32 indexed _swapID, address indexed _openTrader, address indexed _closeTrader, uint256 _openedOn);\r\n    event Expire(bytes32 indexed _swapID);\r\n    event Close(bytes32 indexed _swapID);\r\n\r\n    modifier onlyInvalidSwaps(bytes32 _swapID) {\r\n        require (swapStates[_swapID] == States.INVALID);\r\n        _;\r\n    }\r\n\r\n    modifier onlyOpenSwaps(bytes32 _swapID) {\r\n        require (swapStates[_swapID] == States.OPEN);\r\n        _;\r\n    }\r\n\r\n    function open(bytes32 _swapID, uint256 _openValue, address _openContractAddress, uint256 _closeValue, address _closeTrader, address _closeContractAddress) external onlyInvalidSwaps(_swapID) {\r\n        // Transfer value from the opening trader to this contract.\r\n        ERC20 openERC20Contract = ERC20(_openContractAddress);\r\n        require(_openValue <= openERC20Contract.allowance(msg.sender, address(this)));\r\n        require(openERC20Contract.transferFrom(msg.sender, address(this), _openValue));\r\n\r\n        // Store the details of the swap.\r\n        Swap memory swap = Swap({\r\n            openValue: _openValue,\r\n            openTrader: msg.sender,\r\n            openContractAddress: _openContractAddress,\r\n            closeValue: _closeValue,\r\n            closeTrader: _closeTrader,\r\n            closeContractAddress: _closeContractAddress,\r\n            openedOn: now\r\n        });\r\n        swaps[_swapID] = swap;\r\n        swapStates[_swapID] = States.OPEN;\r\n\r\n        // Update account swaps. Make sure there is no duplicates.\r\n        accountSwaps[msg.sender].push(_swapID);\r\n        if (_closeTrader != msg.sender) {\r\n            accountSwaps[_closeTrader].push(_swapID);\r\n        }\r\n\r\n        emit Open(_swapID, msg.sender, _closeTrader, now);\r\n    }\r\n\r\n    function close(bytes32 _swapID) external onlyOpenSwaps(_swapID) {\r\n        // Close the swap.\r\n        Swap memory swap = swaps[_swapID];\r\n        swapStates[_swapID] = States.CLOSED;\r\n\r\n        // Transfer the closing funds from the closing trader to the opening trader.\r\n        ERC20 closeERC20Contract = ERC20(swap.closeContractAddress);\r\n        require(swap.closeValue <= closeERC20Contract.allowance(swap.closeTrader, address(this)));\r\n        require(closeERC20Contract.transferFrom(swap.closeTrader, swap.openTrader, swap.closeValue));\r\n\r\n        // Transfer the opening funds from this contract to the closing trader.\r\n        ERC20 openERC20Contract = ERC20(swap.openContractAddress);\r\n        require(openERC20Contract.transfer(swap.closeTrader, swap.openValue));\r\n\r\n        emit Close(_swapID);\r\n    }\r\n\r\n    function expire(bytes32 _swapID) external onlyOpenSwaps(_swapID) {\r\n        // Expire the swap.\r\n        Swap memory swap = swaps[_swapID];\r\n        swapStates[_swapID] = States.EXPIRED;\r\n\r\n        // Transfer opening value from this contract back to the opening trader.\r\n        ERC20 openERC20Contract = ERC20(swap.openContractAddress);\r\n        require(openERC20Contract.transfer(swap.openTrader, swap.openValue));\r\n\r\n        emit Expire(_swapID);\r\n    }\r\n\r\n    function check(bytes32 _swapID) external view returns (uint256 openValue, address openTrader, address openContractAddress, uint256 closeValue, address closeTrader, address closeContractAddress, uint256 openedOn, States state) {\r\n        state = swapStates[_swapID];\r\n        Swap memory swap = swaps[_swapID];\r\n        return (swap.openValue, swap.openTrader, swap.openContractAddress, swap.closeValue, swap.closeTrader, swap.closeContractAddress, swap.openedOn, state);\r\n    }\r\n\r\n    function getAccountSwaps(address account) external view returns (bytes32[]) {\r\n        return accountSwaps[account];\r\n    }\r\n}",
  "sourcePath": "C:\\Projects\\Aerum\\aerumnet\\onchain-swap\\contracts\\swap\\AtomicSwapERC20ToERC20.sol",
  "compiler": {
    "name": "solc",
    "version": "0.4.24+commit.e67f0147.Emscripten.clang"
  },
  "schemaVersion": "2.0.0",
  "updatedAt": "2018-06-19T19:39:04.864Z"
}