{
  "contractName": "AtomicSwapERC20ToERC20",
  "abi": [
    {
      "anonymous": false,
      "inputs": [
        {
          "indexed": false,
          "name": "_swapID",
          "type": "bytes32"
        },
        {
          "indexed": false,
          "name": "_closeTrader",
          "type": "address"
        }
      ],
      "name": "Open",
      "type": "event"
    },
    {
      "anonymous": false,
      "inputs": [
        {
          "indexed": false,
          "name": "_swapID",
          "type": "bytes32"
        }
      ],
      "name": "Expire",
      "type": "event"
    },
    {
      "anonymous": false,
      "inputs": [
        {
          "indexed": false,
          "name": "_swapID",
          "type": "bytes32"
        }
      ],
      "name": "Close",
      "type": "event"
    },
    {
      "constant": false,
      "inputs": [
        {
          "name": "_swapID",
          "type": "bytes32"
        },
        {
          "name": "_openValue",
          "type": "uint256"
        },
        {
          "name": "_openContractAddress",
          "type": "address"
        },
        {
          "name": "_closeValue",
          "type": "uint256"
        },
        {
          "name": "_closeTrader",
          "type": "address"
        },
        {
          "name": "_closeContractAddress",
          "type": "address"
        }
      ],
      "name": "open",
      "outputs": [],
      "payable": false,
      "stateMutability": "nonpayable",
      "type": "function"
    },
    {
      "constant": false,
      "inputs": [
        {
          "name": "_swapID",
          "type": "bytes32"
        }
      ],
      "name": "close",
      "outputs": [],
      "payable": false,
      "stateMutability": "nonpayable",
      "type": "function"
    },
    {
      "constant": false,
      "inputs": [
        {
          "name": "_swapID",
          "type": "bytes32"
        }
      ],
      "name": "expire",
      "outputs": [],
      "payable": false,
      "stateMutability": "nonpayable",
      "type": "function"
    },
    {
      "constant": true,
      "inputs": [
        {
          "name": "_swapID",
          "type": "bytes32"
        }
      ],
      "name": "check",
      "outputs": [
        {
          "name": "openValue",
          "type": "uint256"
        },
        {
          "name": "openTrader",
          "type": "address"
        },
        {
          "name": "openContractAddress",
          "type": "address"
        },
        {
          "name": "closeValue",
          "type": "uint256"
        },
        {
          "name": "closeTrader",
          "type": "address"
        },
        {
          "name": "closeContractAddress",
          "type": "address"
        },
        {
          "name": "state",
          "type": "uint8"
        }
      ],
      "payable": false,
      "stateMutability": "view",
      "type": "function"
    }
  ],
  "bytecode": "0x6060604052341561000f57600080fd5b6112948061001e6000396000f300606060405260043610610062576000357c0100000000000000000000000000000000000000000000000000000000900463ffffffff168063399e07921461006757806339c79e0c1461018a5780635454a438146101b1578063c644179814610247575b600080fd5b341561007257600080fd5b61008c60048080356000191690602001909190505061026e565b604051808881526020018773ffffffffffffffffffffffffffffffffffffffff1673ffffffffffffffffffffffffffffffffffffffff1681526020018673ffffffffffffffffffffffffffffffffffffffff1673ffffffffffffffffffffffffffffffffffffffff1681526020018581526020018473ffffffffffffffffffffffffffffffffffffffff1673ffffffffffffffffffffffffffffffffffffffff1681526020018373ffffffffffffffffffffffffffffffffffffffff1673ffffffffffffffffffffffffffffffffffffffff16815260200182600381111561017057fe5b60ff16815260200197505050505050505060405180910390f35b341561019557600080fd5b6101af600480803560001916906020019091905050610479565b005b34156101bc57600080fd5b61024560048080356000191690602001909190803590602001909190803573ffffffffffffffffffffffffffffffffffffffff1690602001909190803590602001909190803573ffffffffffffffffffffffffffffffffffffffff1690602001909190803573ffffffffffffffffffffffffffffffffffffffff169060200190919050506109c2565b005b341561025257600080fd5b61026c600480803560001916906020019091905050610e98565b005b60008060008060008060006102816111d9565b6000808a6000191660001916815260200190815260200160002060c06040519081016040529081600082015481526020016001820160009054906101000a900473ffffffffffffffffffffffffffffffffffffffff1673ffffffffffffffffffffffffffffffffffffffff1673ffffffffffffffffffffffffffffffffffffffff1681526020016002820160009054906101000a900473ffffffffffffffffffffffffffffffffffffffff1673ffffffffffffffffffffffffffffffffffffffff1673ffffffffffffffffffffffffffffffffffffffff168152602001600382015481526020016004820160009054906101000a900473ffffffffffffffffffffffffffffffffffffffff1673ffffffffffffffffffffffffffffffffffffffff1673ffffffffffffffffffffffffffffffffffffffff1681526020016005820160009054906101000a900473ffffffffffffffffffffffffffffffffffffffff1673ffffffffffffffffffffffffffffffffffffffff1673ffffffffffffffffffffffffffffffffffffffff16815250509050600160008a6000191660001916815260200190815260200160002060009054906101000a900460ff169150806000015181602001518260400151836060015184608001518560a0015187975097509750975097509750975050919395979092949650565b6104816111d9565b600080836001600381111561049257fe5b60016000836000191660001916815260200190815260200160002060009054906101000a900460ff1660038111156104c657fe5b1415156104d257600080fd5b600080866000191660001916815260200190815260200160002060c06040519081016040529081600082015481526020016001820160009054906101000a900473ffffffffffffffffffffffffffffffffffffffff1673ffffffffffffffffffffffffffffffffffffffff1673ffffffffffffffffffffffffffffffffffffffff1681526020016002820160009054906101000a900473ffffffffffffffffffffffffffffffffffffffff1673ffffffffffffffffffffffffffffffffffffffff1673ffffffffffffffffffffffffffffffffffffffff168152602001600382015481526020016004820160009054906101000a900473ffffffffffffffffffffffffffffffffffffffff1673ffffffffffffffffffffffffffffffffffffffff1673ffffffffffffffffffffffffffffffffffffffff1681526020016005820160009054906101000a900473ffffffffffffffffffffffffffffffffffffffff1673ffffffffffffffffffffffffffffffffffffffff1673ffffffffffffffffffffffffffffffffffffffff16815250509350600260016000876000191660001916815260200190815260200160002060006101000a81548160ff0219169083600381111561069e57fe5b02179055508360a0015192508273ffffffffffffffffffffffffffffffffffffffff1663dd62ed3e8560800151306040518363ffffffff167c0100000000000000000000000000000000000000000000000000000000028152600401808373ffffffffffffffffffffffffffffffffffffffff1673ffffffffffffffffffffffffffffffffffffffff1681526020018273ffffffffffffffffffffffffffffffffffffffff1673ffffffffffffffffffffffffffffffffffffffff16815260200192505050602060405180830381600087803b151561077c57600080fd5b5af1151561078957600080fd5b505050604051805190508460600151111515156107a557600080fd5b8273ffffffffffffffffffffffffffffffffffffffff166323b872dd8560800151866020015187606001516040518463ffffffff167c0100000000000000000000000000000000000000000000000000000000028152600401808473ffffffffffffffffffffffffffffffffffffffff1673ffffffffffffffffffffffffffffffffffffffff1681526020018373ffffffffffffffffffffffffffffffffffffffff1673ffffffffffffffffffffffffffffffffffffffff1681526020018281526020019350505050602060405180830381600087803b151561088757600080fd5b5af1151561089457600080fd5b5050506040518051905015156108a957600080fd5b836040015191508173ffffffffffffffffffffffffffffffffffffffff1663a9059cbb856080015186600001516040518363ffffffff167c0100000000000000000000000000000000000000000000000000000000028152600401808373ffffffffffffffffffffffffffffffffffffffff1673ffffffffffffffffffffffffffffffffffffffff16815260200182815260200192505050602060405180830381600087803b151561095a57600080fd5b5af1151561096757600080fd5b50505060405180519050151561097c57600080fd5b7fc9d8209586aca26a4f59cc70108e4cf2f637da8cb4133c78a3946bc50581ea288560405180826000191660001916815260200191505060405180910390a15050505050565b60006109cc6111d9565b87600060038111156109da57fe5b60016000836000191660001916815260200190815260200160002060009054906101000a900460ff166003811115610a0e57fe5b141515610a1a57600080fd5b8692508273ffffffffffffffffffffffffffffffffffffffff1663dd62ed3e33306040518363ffffffff167c0100000000000000000000000000000000000000000000000000000000028152600401808373ffffffffffffffffffffffffffffffffffffffff1673ffffffffffffffffffffffffffffffffffffffff1681526020018273ffffffffffffffffffffffffffffffffffffffff1673ffffffffffffffffffffffffffffffffffffffff16815260200192505050602060405180830381600087803b1515610aeb57600080fd5b5af11515610af857600080fd5b505050604051805190508811151515610b1057600080fd5b8273ffffffffffffffffffffffffffffffffffffffff166323b872dd33308b6040518463ffffffff167c0100000000000000000000000000000000000000000000000000000000028152600401808473ffffffffffffffffffffffffffffffffffffffff1673ffffffffffffffffffffffffffffffffffffffff1681526020018373ffffffffffffffffffffffffffffffffffffffff1673ffffffffffffffffffffffffffffffffffffffff1681526020018281526020019350505050602060405180830381600087803b1515610be657600080fd5b5af11515610bf357600080fd5b505050604051805190501515610c0857600080fd5b60c0604051908101604052808981526020013373ffffffffffffffffffffffffffffffffffffffff1681526020018873ffffffffffffffffffffffffffffffffffffffff1681526020018781526020018673ffffffffffffffffffffffffffffffffffffffff1681526020018573ffffffffffffffffffffffffffffffffffffffff168152509150816000808b600019166000191681526020019081526020016000206000820151816000015560208201518160010160006101000a81548173ffffffffffffffffffffffffffffffffffffffff021916908373ffffffffffffffffffffffffffffffffffffffff16021790555060408201518160020160006101000a81548173ffffffffffffffffffffffffffffffffffffffff021916908373ffffffffffffffffffffffffffffffffffffffff1602179055506060820151816003015560808201518160040160006101000a81548173ffffffffffffffffffffffffffffffffffffffff021916908373ffffffffffffffffffffffffffffffffffffffff16021790555060a08201518160050160006101000a81548173ffffffffffffffffffffffffffffffffffffffff021916908373ffffffffffffffffffffffffffffffffffffffff16021790555090505060018060008b6000191660001916815260200190815260200160002060006101000a81548160ff02191690836003811115610e1557fe5b02179055507fb5894ff5a344c5160302de0b2027c5b55f4914e9d8e8c11b377b559e5ec789eb89866040518083600019166000191681526020018273ffffffffffffffffffffffffffffffffffffffff1673ffffffffffffffffffffffffffffffffffffffff1681526020019250505060405180910390a1505050505050505050565b610ea06111d9565b60008260016003811115610eb057fe5b60016000836000191660001916815260200190815260200160002060009054906101000a900460ff166003811115610ee457fe5b141515610ef057600080fd5b600080856000191660001916815260200190815260200160002060c06040519081016040529081600082015481526020016001820160009054906101000a900473ffffffffffffffffffffffffffffffffffffffff1673ffffffffffffffffffffffffffffffffffffffff1673ffffffffffffffffffffffffffffffffffffffff1681526020016002820160009054906101000a900473ffffffffffffffffffffffffffffffffffffffff1673ffffffffffffffffffffffffffffffffffffffff1673ffffffffffffffffffffffffffffffffffffffff168152602001600382015481526020016004820160009054906101000a900473ffffffffffffffffffffffffffffffffffffffff1673ffffffffffffffffffffffffffffffffffffffff1673ffffffffffffffffffffffffffffffffffffffff1681526020016005820160009054906101000a900473ffffffffffffffffffffffffffffffffffffffff1673ffffffffffffffffffffffffffffffffffffffff1673ffffffffffffffffffffffffffffffffffffffff16815250509250600360016000866000191660001916815260200190815260200160002060006101000a81548160ff021916908360038111156110bc57fe5b0217905550826040015191508173ffffffffffffffffffffffffffffffffffffffff1663a9059cbb846020015185600001516040518363ffffffff167c0100000000000000000000000000000000000000000000000000000000028152600401808373ffffffffffffffffffffffffffffffffffffffff1673ffffffffffffffffffffffffffffffffffffffff16815260200182815260200192505050602060405180830381600087803b151561117257600080fd5b5af1151561117f57600080fd5b50505060405180519050151561119457600080fd5b7fbddd9b693ea862fad6ecf78fd51c065be26fda94d1f3cad3a7d691453a38a7358460405180826000191660001916815260200191505060405180910390a150505050565b60c06040519081016040528060008152602001600073ffffffffffffffffffffffffffffffffffffffff168152602001600073ffffffffffffffffffffffffffffffffffffffff16815260200160008152602001600073ffffffffffffffffffffffffffffffffffffffff168152602001600073ffffffffffffffffffffffffffffffffffffffff16815250905600a165627a7a72305820550a18381f221fbba66c970c63e809f0d63aefac6bc9061f4ceba02fdc0b38590029",
  "source": "pragma solidity ^0.4.17;\r\n\r\nimport \"./ERC20.sol\";\r\n\r\ncontract AtomicSwapERC20ToERC20 {\r\n\r\n    struct Swap {\r\n        uint256 openValue;\r\n        address openTrader;\r\n        address openContractAddress;\r\n        uint256 closeValue;\r\n        address closeTrader;\r\n        address closeContractAddress;\r\n    }\r\n\r\n    enum States {\r\n        INVALID,\r\n        OPEN,\r\n        CLOSED,\r\n        EXPIRED\r\n    }\r\n\r\n    mapping (bytes32 => Swap) private swaps;\r\n    mapping (bytes32 => States) private swapStates;\r\n\r\n    event Open(bytes32 _swapID, address _closeTrader);\r\n    event Expire(bytes32 _swapID);\r\n    event Close(bytes32 _swapID);\r\n\r\n    modifier onlyInvalidSwaps(bytes32 _swapID) {\r\n        require (swapStates[_swapID] == States.INVALID);\r\n        _;\r\n    }\r\n\r\n    modifier onlyOpenSwaps(bytes32 _swapID) {\r\n        require (swapStates[_swapID] == States.OPEN);\r\n        _;\r\n    }\r\n\r\n    function open(bytes32 _swapID, uint256 _openValue, address _openContractAddress, uint256 _closeValue, address _closeTrader, address _closeContractAddress) public onlyInvalidSwaps(_swapID) {\r\n        // Transfer value from the opening trader to this contract.\r\n        ERC20 openERC20Contract = ERC20(_openContractAddress);\r\n        require(_openValue <= openERC20Contract.allowance(msg.sender, address(this)));\r\n        require(openERC20Contract.transferFrom(msg.sender, address(this), _openValue));\r\n\r\n        // Store the details of the swap.\r\n        Swap memory swap = Swap({\r\n            openValue: _openValue,\r\n            openTrader: msg.sender,\r\n            openContractAddress: _openContractAddress,\r\n            closeValue: _closeValue,\r\n            closeTrader: _closeTrader,\r\n            closeContractAddress: _closeContractAddress\r\n        });\r\n        swaps[_swapID] = swap;\r\n        swapStates[_swapID] = States.OPEN;\r\n\r\n        emit Open(_swapID, _closeTrader);\r\n    }\r\n\r\n    function close(bytes32 _swapID) public onlyOpenSwaps(_swapID) {\r\n        // Close the swap.\r\n        Swap memory swap = swaps[_swapID];\r\n        swapStates[_swapID] = States.CLOSED;\r\n\r\n        // Transfer the closing funds from the closing trader to the opening trader.\r\n        ERC20 closeERC20Contract = ERC20(swap.closeContractAddress);\r\n        require(swap.closeValue <= closeERC20Contract.allowance(swap.closeTrader, address(this)));\r\n        require(closeERC20Contract.transferFrom(swap.closeTrader, swap.openTrader, swap.closeValue));\r\n\r\n        // Transfer the opening funds from this contract to the closing trader.\r\n        ERC20 openERC20Contract = ERC20(swap.openContractAddress);\r\n        require(openERC20Contract.transfer(swap.closeTrader, swap.openValue));\r\n\r\n        emit Close(_swapID);\r\n    }\r\n\r\n    function expire(bytes32 _swapID) public onlyOpenSwaps(_swapID) {\r\n        // Expire the swap.\r\n        Swap memory swap = swaps[_swapID];\r\n        swapStates[_swapID] = States.EXPIRED;\r\n\r\n        // Transfer opening value from this contract back to the opening trader.\r\n        ERC20 openERC20Contract = ERC20(swap.openContractAddress);\r\n        require(openERC20Contract.transfer(swap.openTrader, swap.openValue));\r\n\r\n        emit Expire(_swapID);\r\n    }\r\n\r\n    function check(bytes32 _swapID) public view returns (uint256 openValue, address openTrader, address openContractAddress, uint256 closeValue, address closeTrader, address closeContractAddress, States state) {\r\n        Swap memory swap = swaps[_swapID];\r\n        state = swapStates[_swapID];\r\n        return (swap.openValue, swap.openTrader, swap.openContractAddress, swap.closeValue, swap.closeTrader, swap.closeContractAddress, state);\r\n    }\r\n}",
  "sourcePath": "C:\\Projects\\Aerum\\aerumnet\\solidity-aerum-network\\contracts\\swap\\AtomicSwapERC20ToERC20.sol",
  "compiler": {
    "name": "solc",
    "version": "0.4.21+commit.dfe3193c.Emscripten.clang"
  },
  "schemaVersion": "2.0.0",
  "updatedAt": "2018-05-02T11:01:40.614Z"
}