{
  "contractName": "CounterAtomicSwapERC20",
  "abi": [
    {
      "anonymous": false,
      "inputs": [
        {
          "indexed": true,
          "name": "_hash",
          "type": "bytes32"
        },
        {
          "indexed": true,
          "name": "_openTrader",
          "type": "address"
        },
        {
          "indexed": false,
          "name": "_openedOn",
          "type": "uint256"
        }
      ],
      "name": "Open",
      "type": "event"
    },
    {
      "anonymous": false,
      "inputs": [
        {
          "indexed": true,
          "name": "_hash",
          "type": "bytes32"
        }
      ],
      "name": "Expire",
      "type": "event"
    },
    {
      "anonymous": false,
      "inputs": [
        {
          "indexed": true,
          "name": "_hash",
          "type": "bytes32"
        },
        {
          "indexed": true,
          "name": "_withdrawTrader",
          "type": "address"
        },
        {
          "indexed": false,
          "name": "_secretKey",
          "type": "bytes"
        }
      ],
      "name": "Close",
      "type": "event"
    },
    {
      "constant": false,
      "inputs": [
        {
          "name": "_hash",
          "type": "bytes32"
        },
        {
          "name": "_erc20Value",
          "type": "uint256"
        },
        {
          "name": "_erc20ContractAddress",
          "type": "address"
        },
        {
          "name": "_timelock",
          "type": "uint256"
        }
      ],
      "name": "open",
      "outputs": [],
      "payable": false,
      "stateMutability": "nonpayable",
      "type": "function"
    },
    {
      "constant": false,
      "inputs": [
        {
          "name": "_hash",
          "type": "bytes32"
        },
        {
          "name": "_secretKey",
          "type": "bytes"
        }
      ],
      "name": "close",
      "outputs": [],
      "payable": false,
      "stateMutability": "nonpayable",
      "type": "function"
    },
    {
      "constant": false,
      "inputs": [
        {
          "name": "_hash",
          "type": "bytes32"
        }
      ],
      "name": "expire",
      "outputs": [],
      "payable": false,
      "stateMutability": "nonpayable",
      "type": "function"
    },
    {
      "constant": true,
      "inputs": [
        {
          "name": "_hash",
          "type": "bytes32"
        }
      ],
      "name": "check",
      "outputs": [
        {
          "name": "openTrader",
          "type": "address"
        },
        {
          "name": "withdrawTrader",
          "type": "address"
        },
        {
          "name": "erc20Value",
          "type": "uint256"
        },
        {
          "name": "erc20ContractAddress",
          "type": "address"
        },
        {
          "name": "timelock",
          "type": "uint256"
        },
        {
          "name": "openedOn",
          "type": "uint256"
        },
        {
          "name": "state",
          "type": "uint8"
        }
      ],
      "payable": false,
      "stateMutability": "view",
      "type": "function"
    },
    {
      "constant": true,
      "inputs": [
        {
          "name": "_hash",
          "type": "bytes32"
        }
      ],
      "name": "checkSecretKey",
      "outputs": [
        {
          "name": "secretKey",
          "type": "bytes"
        }
      ],
      "payable": false,
      "stateMutability": "view",
      "type": "function"
    },
    {
      "constant": true,
      "inputs": [
        {
          "name": "account",
          "type": "address"
        }
      ],
      "name": "getAccountSwaps",
      "outputs": [
        {
          "name": "",
          "type": "bytes32[]"
        }
      ],
      "payable": false,
      "stateMutability": "view",
      "type": "function"
    }
  ],
  "bytecode": "0x608060405234801561001057600080fd5b50611a1f806100206000396000f300608060405260043610610078576000357c0100000000000000000000000000000000000000000000000000000000900463ffffffff1680631a26720c1461007d578063368f923b146100c6578063399e07921461015e578063bec8f4e31461025f578063c6441798146102c4578063f200e404146102f5575b600080fd5b34801561008957600080fd5b506100c4600480360381019080803560001916906020019092919080359060200190820180359060200191909192939192939050505061039f565b005b3480156100d257600080fd5b50610107600480360381019080803573ffffffffffffffffffffffffffffffffffffffff169060200190929190505050610967565b6040518080602001828103825283818151815260200191508051906020019060200280838360005b8381101561014a57808201518184015260208101905061012f565b505050509050019250505060405180910390f35b34801561016a57600080fd5b5061018d6004803603810190808035600019169060200190929190505050610a02565b604051808873ffffffffffffffffffffffffffffffffffffffff1673ffffffffffffffffffffffffffffffffffffffff1681526020018773ffffffffffffffffffffffffffffffffffffffff1673ffffffffffffffffffffffffffffffffffffffff1681526020018681526020018573ffffffffffffffffffffffffffffffffffffffff1673ffffffffffffffffffffffffffffffffffffffff16815260200184815260200183815260200182600381111561024557fe5b60ff16815260200197505050505050505060405180910390f35b34801561026b57600080fd5b506102c2600480360381019080803560001916906020019092919080359060200190929190803573ffffffffffffffffffffffffffffffffffffffff16906020019092919080359060200190929190505050610c63565b005b3480156102d057600080fd5b506102f36004803603810190808035600019169060200190929190505050611222565b005b34801561030157600080fd5b5061032460048036038101908080356000191690602001909291905050506115fe565b6040518080602001828103825283818151815260200191508051906020019080838360005b83811015610364578082015181840152602081019050610349565b50505050905090810190601f1680156103915780820380516001836020036101000a031916815260200191505b509250505060405180910390f35b6103a761184e565b600084600160038111156103b757fe5b60016000836000191660001916815260200190815260200160002060009054906101000a900460ff1660038111156103eb57fe5b1415156103f757600080fd5b8585858080601f016020809104026020016040519081016040528093929190818152602001838380828437820191505050505050806040518082805190602001908083835b602083101515610461578051825260208201915060208101905060208303925061043c565b6001836020036101000a03801982511681845116808217855250505050505090500191505060405180910390206000191682600019161415156104a357600080fd5b600080896000191660001916815260200190815260200160002060e060405190810160405290816000820160009054906101000a900473ffffffffffffffffffffffffffffffffffffffff1673ffffffffffffffffffffffffffffffffffffffff1673ffffffffffffffffffffffffffffffffffffffff1681526020016001820160009054906101000a900473ffffffffffffffffffffffffffffffffffffffff1673ffffffffffffffffffffffffffffffffffffffff1673ffffffffffffffffffffffffffffffffffffffff168152602001600282015481526020016003820160009054906101000a900473ffffffffffffffffffffffffffffffffffffffff1673ffffffffffffffffffffffffffffffffffffffff1673ffffffffffffffffffffffffffffffffffffffff168152602001600482018054600181600116156101000203166002900480601f01602080910402602001604051908101604052809291908181526020018280546001816001161561010002031660029004801561066e5780601f106106435761010080835404028352916020019161066e565b820191906000526020600020905b81548152906001019060200180831161065157829003601f168201915b5050505050815260200160058201548152602001600682015481525050945086866000808b6000191660001916815260200190815260200160002060040191906106b99291906118ce565b50336000808a6000191660001916815260200190815260200160002060010160006101000a81548173ffffffffffffffffffffffffffffffffffffffff021916908373ffffffffffffffffffffffffffffffffffffffff1602179055506002600160008a6000191660001916815260200190815260200160002060006101000a81548160ff0219169083600381111561074e57fe5b02179055503373ffffffffffffffffffffffffffffffffffffffff16856000015173ffffffffffffffffffffffffffffffffffffffff161415156107fc57600260003373ffffffffffffffffffffffffffffffffffffffff1673ffffffffffffffffffffffffffffffffffffffff1681526020019081526020016000208890806001815401808255809150509060018203906000526020600020016000909192909190915090600019169055505b846060015193508373ffffffffffffffffffffffffffffffffffffffff1663a9059cbb3387604001516040518363ffffffff167c0100000000000000000000000000000000000000000000000000000000028152600401808373ffffffffffffffffffffffffffffffffffffffff1673ffffffffffffffffffffffffffffffffffffffff16815260200182815260200192505050602060405180830381600087803b1580156108aa57600080fd5b505af11580156108be573d6000803e3d6000fd5b505050506040513d60208110156108d457600080fd5b810190808051906020019092919050505015156108f057600080fd5b3373ffffffffffffffffffffffffffffffffffffffff1688600019167f5ba4d496ee2b8d87c92f60f44700c43fdee39ab246662d00311dbc31789d6f358989604051808060200182810382528484828181526020019250808284378201915050935050505060405180910390a35050505050505050565b6060600260008373ffffffffffffffffffffffffffffffffffffffff1673ffffffffffffffffffffffffffffffffffffffff1681526020019081526020016000208054806020026020016040519081016040528092919081815260200182805480156109f657602002820191906000526020600020905b815460001916815260200190600101908083116109de575b50505050509050919050565b6000806000806000806000610a1561184e565b600160008a6000191660001916815260200190815260200160002060009054906101000a900460ff1691506000808a6000191660001916815260200190815260200160002060e060405190810160405290816000820160009054906101000a900473ffffffffffffffffffffffffffffffffffffffff1673ffffffffffffffffffffffffffffffffffffffff1673ffffffffffffffffffffffffffffffffffffffff1681526020016001820160009054906101000a900473ffffffffffffffffffffffffffffffffffffffff1673ffffffffffffffffffffffffffffffffffffffff1673ffffffffffffffffffffffffffffffffffffffff168152602001600282015481526020016003820160009054906101000a900473ffffffffffffffffffffffffffffffffffffffff1673ffffffffffffffffffffffffffffffffffffffff1673ffffffffffffffffffffffffffffffffffffffff168152602001600482018054600181600116156101000203166002900480601f016020809104026020016040519081016040528092919081815260200182805460018160011615610100020316600290048015610c0b5780601f10610be057610100808354040283529160200191610c0b565b820191906000526020600020905b815481529060010190602001808311610bee57829003601f168201915b5050505050815260200160058201548152602001600682015481525050905080600001518160200151826040015183606001518460a001518560c0015187975097509750975097509750975050919395979092949650565b6000610c6d61184e565b8560006003811115610c7b57fe5b60016000836000191660001916815260200190815260200160002060009054906101000a900460ff166003811115610caf57fe5b141515610cbb57600080fd5b60006003811115610cc857fe5b60016000896000191660001916815260200190815260200160002060009054906101000a900460ff166003811115610cfc57fe5b141515610d0857600080fd5b8492508273ffffffffffffffffffffffffffffffffffffffff1663dd62ed3e33306040518363ffffffff167c0100000000000000000000000000000000000000000000000000000000028152600401808373ffffffffffffffffffffffffffffffffffffffff1673ffffffffffffffffffffffffffffffffffffffff1681526020018273ffffffffffffffffffffffffffffffffffffffff1673ffffffffffffffffffffffffffffffffffffffff16815260200192505050602060405180830381600087803b158015610dda57600080fd5b505af1158015610dee573d6000803e3d6000fd5b505050506040513d6020811015610e0457600080fd5b81019080805190602001909291905050508611151515610e2357600080fd5b8273ffffffffffffffffffffffffffffffffffffffff166323b872dd3330896040518463ffffffff167c0100000000000000000000000000000000000000000000000000000000028152600401808473ffffffffffffffffffffffffffffffffffffffff1673ffffffffffffffffffffffffffffffffffffffff1681526020018373ffffffffffffffffffffffffffffffffffffffff1673ffffffffffffffffffffffffffffffffffffffff1681526020018281526020019350505050602060405180830381600087803b158015610efa57600080fd5b505af1158015610f0e573d6000803e3d6000fd5b505050506040513d6020811015610f2457600080fd5b81019080805190602001909291905050501515610f4057600080fd5b60e0604051908101604052803373ffffffffffffffffffffffffffffffffffffffff168152602001600073ffffffffffffffffffffffffffffffffffffffff1681526020018781526020018673ffffffffffffffffffffffffffffffffffffffff16815260200160006040519080825280601f01601f191660200182016040528015610fdb5781602001602082028038833980820191505090505b50815260200185815260200142815250915081600080896000191660001916815260200190815260200160002060008201518160000160006101000a81548173ffffffffffffffffffffffffffffffffffffffff021916908373ffffffffffffffffffffffffffffffffffffffff16021790555060208201518160010160006101000a81548173ffffffffffffffffffffffffffffffffffffffff021916908373ffffffffffffffffffffffffffffffffffffffff1602179055506040820151816002015560608201518160030160006101000a81548173ffffffffffffffffffffffffffffffffffffffff021916908373ffffffffffffffffffffffffffffffffffffffff160217905550608082015181600401908051906020019061110392919061194e565b5060a0820151816005015560c082015181600601559050506001806000896000191660001916815260200190815260200160002060006101000a81548160ff0219169083600381111561115257fe5b0217905550600260003373ffffffffffffffffffffffffffffffffffffffff1673ffffffffffffffffffffffffffffffffffffffff1681526020019081526020016000208790806001815401808255809150509060018203906000526020600020016000909192909190915090600019169055503373ffffffffffffffffffffffffffffffffffffffff1687600019167ffa48ecb13b782c85d632bfbac8bacc5a9fccbacaf7807914c48e6d60f875b15a426040518082815260200191505060405180910390a350505050505050565b61122a61184e565b6000826001600381111561123a57fe5b60016000836000191660001916815260200190815260200160002060009054906101000a900460ff16600381111561126e57fe5b14151561127a57600080fd5b8360008082600019166000191681526020019081526020016000206005015442101515156112a757600080fd5b600080866000191660001916815260200190815260200160002060e060405190810160405290816000820160009054906101000a900473ffffffffffffffffffffffffffffffffffffffff1673ffffffffffffffffffffffffffffffffffffffff1673ffffffffffffffffffffffffffffffffffffffff1681526020016001820160009054906101000a900473ffffffffffffffffffffffffffffffffffffffff1673ffffffffffffffffffffffffffffffffffffffff1673ffffffffffffffffffffffffffffffffffffffff168152602001600282015481526020016003820160009054906101000a900473ffffffffffffffffffffffffffffffffffffffff1673ffffffffffffffffffffffffffffffffffffffff1673ffffffffffffffffffffffffffffffffffffffff168152602001600482018054600181600116156101000203166002900480601f0160208091040260200160405190810160405280929190818152602001828054600181600116156101000203166002900480156114725780601f1061144757610100808354040283529160200191611472565b820191906000526020600020905b81548152906001019060200180831161145557829003601f168201915b50505050508152602001600582015481526020016006820154815250509350600360016000876000191660001916815260200190815260200160002060006101000a81548160ff021916908360038111156114c957fe5b0217905550836060015192508273ffffffffffffffffffffffffffffffffffffffff1663a9059cbb856000015186604001516040518363ffffffff167c0100000000000000000000000000000000000000000000000000000000028152600401808373ffffffffffffffffffffffffffffffffffffffff1673ffffffffffffffffffffffffffffffffffffffff16815260200182815260200192505050602060405180830381600087803b15801561158057600080fd5b505af1158015611594573d6000803e3d6000fd5b505050506040513d60208110156115aa57600080fd5b810190808051906020019092919050505015156115c657600080fd5b84600019167fbddd9b693ea862fad6ecf78fd51c065be26fda94d1f3cad3a7d691453a38a73560405160405180910390a25050505050565b606061160861184e565b826002600381111561161657fe5b60016000836000191660001916815260200190815260200160002060009054906101000a900460ff16600381111561164a57fe5b14151561165657600080fd5b600080856000191660001916815260200190815260200160002060e060405190810160405290816000820160009054906101000a900473ffffffffffffffffffffffffffffffffffffffff1673ffffffffffffffffffffffffffffffffffffffff1673ffffffffffffffffffffffffffffffffffffffff1681526020016001820160009054906101000a900473ffffffffffffffffffffffffffffffffffffffff1673ffffffffffffffffffffffffffffffffffffffff1673ffffffffffffffffffffffffffffffffffffffff168152602001600282015481526020016003820160009054906101000a900473ffffffffffffffffffffffffffffffffffffffff1673ffffffffffffffffffffffffffffffffffffffff1673ffffffffffffffffffffffffffffffffffffffff168152602001600482018054600181600116156101000203166002900480601f0160208091040260200160405190810160405280929190818152602001828054600181600116156101000203166002900480156118215780601f106117f657610100808354040283529160200191611821565b820191906000526020600020905b81548152906001019060200180831161180457829003601f168201915b50505050508152602001600582015481526020016006820154815250509150816080015192505050919050565b60e060405190810160405280600073ffffffffffffffffffffffffffffffffffffffff168152602001600073ffffffffffffffffffffffffffffffffffffffff16815260200160008152602001600073ffffffffffffffffffffffffffffffffffffffff1681526020016060815260200160008152602001600081525090565b828054600181600116156101000203166002900490600052602060002090601f016020900481019282601f1061190f57803560ff191683800117855561193d565b8280016001018555821561193d579182015b8281111561193c578235825591602001919060010190611921565b5b50905061194a91906119ce565b5090565b828054600181600116156101000203166002900490600052602060002090601f016020900481019282601f1061198f57805160ff19168380011785556119bd565b828001600101855582156119bd579182015b828111156119bc5782518255916020019190600101906119a1565b5b5090506119ca91906119ce565b5090565b6119f091905b808211156119ec5760008160009055506001016119d4565b5090565b905600a165627a7a72305820588c44ca861bd1e86afb7b2456d4d3ea282b7f3337ee22f0883f4217add7c99b0029",
  "source": "pragma solidity ^0.4.24;\r\n\r\nimport \"./ERC20.sol\";\r\n\r\ncontract CounterAtomicSwapERC20 {\r\n\r\n    struct Swap {\r\n        address openTrader;\r\n        address withdrawTrader;\r\n        uint256 erc20Value;\r\n        address erc20ContractAddress;\r\n        bytes secretKey;\r\n        uint256 timelock;\r\n        uint256 openedOn;\r\n    }\r\n\r\n    enum States {\r\n        INVALID,\r\n        OPEN,\r\n        CLOSED,\r\n        EXPIRED\r\n    }\r\n\r\n    mapping(bytes32 => Swap) private swaps;\r\n    mapping(bytes32 => States) private swapStates;\r\n    mapping(address => bytes32[]) private accountSwaps;\r\n\r\n    event Open(bytes32 indexed _hash, address indexed _openTrader, uint256 _openedOn);\r\n    event Expire(bytes32 indexed _hash);\r\n    event Close(bytes32 indexed _hash, address indexed _withdrawTrader, bytes _secretKey);\r\n\r\n    modifier onlyInvalidSwaps(bytes32 _hash) {\r\n        require(swapStates[_hash] == States.INVALID);\r\n        _;\r\n    }\r\n\r\n    modifier onlyOpenSwaps(bytes32 _hash) {\r\n        require(swapStates[_hash] == States.OPEN);\r\n        _;\r\n    }\r\n\r\n    modifier onlyClosedSwaps(bytes32 _hash) {\r\n        require(swapStates[_hash] == States.CLOSED);\r\n        _;\r\n    }\r\n\r\n    modifier onlyExpirableSwaps(bytes32 _hash) {\r\n        require(now >= swaps[_hash].timelock);\r\n        _;\r\n    }\r\n\r\n    modifier onlyWithSecretKey(bytes32 _hash, bytes _secretKey) {\r\n        require(_hash == keccak256(_secretKey));\r\n        _;\r\n    }\r\n\r\n    function open(bytes32 _hash, uint256 _erc20Value, address _erc20ContractAddress, uint256 _timelock) external onlyInvalidSwaps(_hash) {\r\n        require(swapStates[_hash] == States.INVALID);\r\n        // Transfer value from the ERC20 trader to this contract.\r\n        ERC20 erc20Contract = ERC20(_erc20ContractAddress);\r\n        require(_erc20Value <= erc20Contract.allowance(msg.sender, address(this)));\r\n        require(erc20Contract.transferFrom(msg.sender, address(this), _erc20Value));\r\n\r\n        // Store the details of the swap.\r\n        Swap memory swap = Swap({\r\n            openTrader : msg.sender,\r\n            withdrawTrader : address(0x0),\r\n            erc20Value : _erc20Value,\r\n            erc20ContractAddress : _erc20ContractAddress,\r\n            secretKey : new bytes(0),\r\n            timelock : _timelock,\r\n            openedOn: now\r\n        });\r\n        swaps[_hash] = swap;\r\n        swapStates[_hash] = States.OPEN;\r\n\r\n        // Update open account swaps\r\n        accountSwaps[msg.sender].push(_hash);\r\n\r\n        // Trigger open event.\r\n        emit Open(_hash, msg.sender, now);\r\n    }\r\n\r\n    function close(bytes32 _hash, bytes _secretKey) external onlyOpenSwaps(_hash) onlyWithSecretKey(_hash, _secretKey) {\r\n        // Close the swap.\r\n        Swap memory swap = swaps[_hash];\r\n        swaps[_hash].secretKey = _secretKey;\r\n        swaps[_hash].withdrawTrader = msg.sender;\r\n        swapStates[_hash] = States.CLOSED;\r\n\r\n        // We know withdraw trader only here so store it in case it's different than opening one\r\n        if (swap.openTrader != msg.sender) {\r\n            accountSwaps[msg.sender].push(_hash);\r\n        }\r\n\r\n        // Transfer the ERC20 funds from this contract to the withdrawing trader.\r\n        ERC20 erc20Contract = ERC20(swap.erc20ContractAddress);\r\n        require(erc20Contract.transfer(msg.sender, swap.erc20Value));\r\n\r\n        emit Close(_hash, msg.sender, _secretKey);\r\n    }\r\n\r\n    function expire(bytes32 _hash) external onlyOpenSwaps(_hash) onlyExpirableSwaps(_hash) {\r\n        // Expire the swap.\r\n        Swap memory swap = swaps[_hash];\r\n        swapStates[_hash] = States.EXPIRED;\r\n\r\n        // Transfer the ERC20 value from this contract back to the ERC20 trader.\r\n        ERC20 erc20Contract = ERC20(swap.erc20ContractAddress);\r\n        require(erc20Contract.transfer(swap.openTrader, swap.erc20Value));\r\n\r\n        emit Expire(_hash);\r\n    }\r\n\r\n    function check(bytes32 _hash) external view returns (address openTrader, address withdrawTrader, uint256 erc20Value, address erc20ContractAddress, uint256 timelock, uint256 openedOn, States state) {\r\n        state = swapStates[_hash];\r\n        Swap memory swap = swaps[_hash];\r\n        return (swap.openTrader, swap.withdrawTrader, swap.erc20Value, swap.erc20ContractAddress, swap.timelock, swap.openedOn, state);\r\n    }\r\n\r\n    function checkSecretKey(bytes32 _hash) external view onlyClosedSwaps(_hash) returns (bytes secretKey) {\r\n        Swap memory swap = swaps[_hash];\r\n        return swap.secretKey;\r\n    }\r\n\r\n    function getAccountSwaps(address account) external view returns (bytes32[]) {\r\n        return accountSwaps[account];\r\n    }\r\n}\r\n",
  "sourcePath": "C:\\Projects\\Aerum\\aerumnet\\crosschain-swap\\contracts\\swap\\CounterAtomicSwapERC20.sol",
  "compiler": {
    "name": "solc",
    "version": "0.4.24+commit.e67f0147.Emscripten.clang"
  },
  "schemaVersion": "2.0.0",
  "updatedAt": "2018-06-19T11:24:18.824Z"
}