{
  "contractName": "CounterAtomicSwapEther",
  "abi": [
    {
      "anonymous": false,
      "inputs": [
        {
          "indexed": true,
          "name": "_hash",
          "type": "bytes32"
        },
        {
          "indexed": true,
          "name": "_openTrader",
          "type": "address"
        },
        {
          "indexed": false,
          "name": "_openedOn",
          "type": "uint256"
        }
      ],
      "name": "Open",
      "type": "event"
    },
    {
      "anonymous": false,
      "inputs": [
        {
          "indexed": true,
          "name": "_hash",
          "type": "bytes32"
        }
      ],
      "name": "Expire",
      "type": "event"
    },
    {
      "anonymous": false,
      "inputs": [
        {
          "indexed": true,
          "name": "_hash",
          "type": "bytes32"
        },
        {
          "indexed": true,
          "name": "_withdrawTrader",
          "type": "address"
        },
        {
          "indexed": false,
          "name": "_secretKey",
          "type": "bytes"
        }
      ],
      "name": "Close",
      "type": "event"
    },
    {
      "constant": false,
      "inputs": [
        {
          "name": "_hash",
          "type": "bytes32"
        },
        {
          "name": "_timelock",
          "type": "uint256"
        }
      ],
      "name": "open",
      "outputs": [],
      "payable": true,
      "stateMutability": "payable",
      "type": "function"
    },
    {
      "constant": false,
      "inputs": [
        {
          "name": "_hash",
          "type": "bytes32"
        },
        {
          "name": "_secretKey",
          "type": "bytes"
        }
      ],
      "name": "close",
      "outputs": [],
      "payable": false,
      "stateMutability": "nonpayable",
      "type": "function"
    },
    {
      "constant": false,
      "inputs": [
        {
          "name": "_hash",
          "type": "bytes32"
        }
      ],
      "name": "expire",
      "outputs": [],
      "payable": false,
      "stateMutability": "nonpayable",
      "type": "function"
    },
    {
      "constant": true,
      "inputs": [
        {
          "name": "_hash",
          "type": "bytes32"
        }
      ],
      "name": "check",
      "outputs": [
        {
          "name": "openTrader",
          "type": "address"
        },
        {
          "name": "withdrawTrader",
          "type": "address"
        },
        {
          "name": "value",
          "type": "uint256"
        },
        {
          "name": "timelock",
          "type": "uint256"
        },
        {
          "name": "openedOn",
          "type": "uint256"
        },
        {
          "name": "state",
          "type": "uint8"
        }
      ],
      "payable": false,
      "stateMutability": "view",
      "type": "function"
    },
    {
      "constant": true,
      "inputs": [
        {
          "name": "_hash",
          "type": "bytes32"
        }
      ],
      "name": "checkSecretKey",
      "outputs": [
        {
          "name": "secretKey",
          "type": "bytes"
        }
      ],
      "payable": false,
      "stateMutability": "view",
      "type": "function"
    },
    {
      "constant": true,
      "inputs": [
        {
          "name": "account",
          "type": "address"
        }
      ],
      "name": "getAccountSwaps",
      "outputs": [
        {
          "name": "",
          "type": "bytes32[]"
        }
      ],
      "payable": false,
      "stateMutability": "view",
      "type": "function"
    }
  ],
  "bytecode": "0x608060405234801561001057600080fd5b506113f4806100206000396000f300608060405260043610610078576000357c0100000000000000000000000000000000000000000000000000000000900463ffffffff1680631a26720c1461007d578063368f923b146100c6578063399e07921461015e57806357d1f3b81461022c578063c64417981461025a578063f200e4041461028b575b600080fd5b34801561008957600080fd5b506100c46004803603810190808035600019169060200190929190803590602001908201803590602001919091929391929390505050610335565b005b3480156100d257600080fd5b50610107600480360381019080803573ffffffffffffffffffffffffffffffffffffffff1690602001909291905050506107ff565b6040518080602001828103825283818151815260200191508051906020019060200280838360005b8381101561014a57808201518184015260208101905061012f565b505050509050019250505060405180910390f35b34801561016a57600080fd5b5061018d600480360381019080803560001916906020019092919050505061089a565b604051808773ffffffffffffffffffffffffffffffffffffffff1673ffffffffffffffffffffffffffffffffffffffff1681526020018673ffffffffffffffffffffffffffffffffffffffff1673ffffffffffffffffffffffffffffffffffffffff16815260200185815260200184815260200183815260200182600381111561021357fe5b60ff168152602001965050505050505060405180910390f35b610258600480360381019080803560001916906020019092919080359060200190929190505050610a9a565b005b34801561026657600080fd5b506102896004803603810190808035600019169060200190929190505050610d6c565b005b34801561029757600080fd5b506102ba6004803603810190808035600019169060200190929190505050611046565b6040518080602001828103825283818151815260200191508051906020019080838360005b838110156102fa5780820151818401526020810190506102df565b50505050905090810190601f1680156103275780820380516001836020036101000a031916815260200191505b509250505060405180910390f35b61033d611240565b836001600381111561034b57fe5b60016000836000191660001916815260200190815260200160002060009054906101000a900460ff16600381111561037f57fe5b14151561038b57600080fd5b8484848080601f016020809104026020016040519081016040528093929190818152602001838380828437820191505050505050806040518082805190602001908083835b6020831015156103f557805182526020820191506020810190506020830392506103d0565b6001836020036101000a038019825116818451168082178552505050505050905001915050604051809103902060001916826000191614151561043757600080fd5b600080886000191660001916815260200190815260200160002060c060405190810160405290816000820160009054906101000a900473ffffffffffffffffffffffffffffffffffffffff1673ffffffffffffffffffffffffffffffffffffffff1673ffffffffffffffffffffffffffffffffffffffff1681526020016001820160009054906101000a900473ffffffffffffffffffffffffffffffffffffffff1673ffffffffffffffffffffffffffffffffffffffff1673ffffffffffffffffffffffffffffffffffffffff16815260200160028201548152602001600382018054600181600116156101000203166002900480601f0160208091040260200160405190810160405280929190818152602001828054600181600116156101000203166002900480156105ac5780601f10610581576101008083540402835291602001916105ac565b820191906000526020600020905b81548152906001019060200180831161058f57829003601f168201915b5050505050815260200160048201548152602001600582015481525050935085856000808a6000191660001916815260200190815260200160002060030191906105f79291906112a3565b5033600080896000191660001916815260200190815260200160002060010160006101000a81548173ffffffffffffffffffffffffffffffffffffffff021916908373ffffffffffffffffffffffffffffffffffffffff160217905550600260016000896000191660001916815260200190815260200160002060006101000a81548160ff0219169083600381111561068c57fe5b02179055503373ffffffffffffffffffffffffffffffffffffffff16846020015173ffffffffffffffffffffffffffffffffffffffff1614151561073a57600260003373ffffffffffffffffffffffffffffffffffffffff1673ffffffffffffffffffffffffffffffffffffffff1681526020019081526020016000208790806001815401808255809150509060018203906000526020600020016000909192909190915090600019169055505b836020015173ffffffffffffffffffffffffffffffffffffffff166108fc85604001519081150290604051600060405180830381858888f19350505050158015610788573d6000803e3d6000fd5b503373ffffffffffffffffffffffffffffffffffffffff1687600019167f5ba4d496ee2b8d87c92f60f44700c43fdee39ab246662d00311dbc31789d6f358888604051808060200182810382528484828181526020019250808284378201915050935050505060405180910390a350505050505050565b6060600260008373ffffffffffffffffffffffffffffffffffffffff1673ffffffffffffffffffffffffffffffffffffffff16815260200190815260200160002080548060200260200160405190810160405280929190818152602001828054801561088e57602002820191906000526020600020905b81546000191681526020019060010190808311610876575b50505050509050919050565b6000806000806000806108ab611240565b60016000896000191660001916815260200190815260200160002060009054906101000a900460ff169150600080896000191660001916815260200190815260200160002060c060405190810160405290816000820160009054906101000a900473ffffffffffffffffffffffffffffffffffffffff1673ffffffffffffffffffffffffffffffffffffffff1673ffffffffffffffffffffffffffffffffffffffff1681526020016001820160009054906101000a900473ffffffffffffffffffffffffffffffffffffffff1673ffffffffffffffffffffffffffffffffffffffff1673ffffffffffffffffffffffffffffffffffffffff16815260200160028201548152602001600382018054600181600116156101000203166002900480601f016020809104026020016040519081016040528092919081815260200182805460018160011615610100020316600290048015610a4b5780601f10610a2057610100808354040283529160200191610a4b565b820191906000526020600020905b815481529060010190602001808311610a2e57829003601f168201915b5050505050815260200160048201548152602001600582015481525050905080600001518160200151826040015183608001518460a00151869650965096509650965096505091939550919395565b610aa2611240565b8260006003811115610ab057fe5b60016000836000191660001916815260200190815260200160002060009054906101000a900460ff166003811115610ae457fe5b141515610af057600080fd5b60c0604051908101604052803373ffffffffffffffffffffffffffffffffffffffff168152602001600073ffffffffffffffffffffffffffffffffffffffff16815260200134815260200160006040519080825280601f01601f191660200182016040528015610b6f5781602001602082028038833980820191505090505b50815260200184815260200142815250915081600080866000191660001916815260200190815260200160002060008201518160000160006101000a81548173ffffffffffffffffffffffffffffffffffffffff021916908373ffffffffffffffffffffffffffffffffffffffff16021790555060208201518160010160006101000a81548173ffffffffffffffffffffffffffffffffffffffff021916908373ffffffffffffffffffffffffffffffffffffffff160217905550604082015181600201556060820151816003019080519060200190610c50929190611323565b506080820151816004015560a082015181600501559050506001806000866000191660001916815260200190815260200160002060006101000a81548160ff02191690836003811115610c9f57fe5b0217905550600260003373ffffffffffffffffffffffffffffffffffffffff1673ffffffffffffffffffffffffffffffffffffffff1681526020019081526020016000208490806001815401808255809150509060018203906000526020600020016000909192909190915090600019169055503373ffffffffffffffffffffffffffffffffffffffff1684600019167ffa48ecb13b782c85d632bfbac8bacc5a9fccbacaf7807914c48e6d60f875b15a426040518082815260200191505060405180910390a350505050565b610d74611240565b8160016003811115610d8257fe5b60016000836000191660001916815260200190815260200160002060009054906101000a900460ff166003811115610db657fe5b141515610dc257600080fd5b826000808260001916600019168152602001908152602001600020600401544210151515610def57600080fd5b600080856000191660001916815260200190815260200160002060c060405190810160405290816000820160009054906101000a900473ffffffffffffffffffffffffffffffffffffffff1673ffffffffffffffffffffffffffffffffffffffff1673ffffffffffffffffffffffffffffffffffffffff1681526020016001820160009054906101000a900473ffffffffffffffffffffffffffffffffffffffff1673ffffffffffffffffffffffffffffffffffffffff1673ffffffffffffffffffffffffffffffffffffffff16815260200160028201548152602001600382018054600181600116156101000203166002900480601f016020809104026020016040519081016040528092919081815260200182805460018160011615610100020316600290048015610f645780601f10610f3957610100808354040283529160200191610f64565b820191906000526020600020905b815481529060010190602001808311610f4757829003601f168201915b50505050508152602001600482015481526020016005820154815250509250600360016000866000191660001916815260200190815260200160002060006101000a81548160ff02191690836003811115610fbb57fe5b0217905550826000015173ffffffffffffffffffffffffffffffffffffffff166108fc84604001519081150290604051600060405180830381858888f1935050505015801561100e573d6000803e3d6000fd5b5083600019167fbddd9b693ea862fad6ecf78fd51c065be26fda94d1f3cad3a7d691453a38a73560405160405180910390a250505050565b6060611050611240565b826002600381111561105e57fe5b60016000836000191660001916815260200190815260200160002060009054906101000a900460ff16600381111561109257fe5b14151561109e57600080fd5b600080856000191660001916815260200190815260200160002060c060405190810160405290816000820160009054906101000a900473ffffffffffffffffffffffffffffffffffffffff1673ffffffffffffffffffffffffffffffffffffffff1673ffffffffffffffffffffffffffffffffffffffff1681526020016001820160009054906101000a900473ffffffffffffffffffffffffffffffffffffffff1673ffffffffffffffffffffffffffffffffffffffff1673ffffffffffffffffffffffffffffffffffffffff16815260200160028201548152602001600382018054600181600116156101000203166002900480601f0160208091040260200160405190810160405280929190818152602001828054600181600116156101000203166002900480156112135780601f106111e857610100808354040283529160200191611213565b820191906000526020600020905b8154815290600101906020018083116111f657829003601f168201915b50505050508152602001600482015481526020016005820154815250509150816060015192505050919050565b60c060405190810160405280600073ffffffffffffffffffffffffffffffffffffffff168152602001600073ffffffffffffffffffffffffffffffffffffffff168152602001600081526020016060815260200160008152602001600081525090565b828054600181600116156101000203166002900490600052602060002090601f016020900481019282601f106112e457803560ff1916838001178555611312565b82800160010185558215611312579182015b828111156113115782358255916020019190600101906112f6565b5b50905061131f91906113a3565b5090565b828054600181600116156101000203166002900490600052602060002090601f016020900481019282601f1061136457805160ff1916838001178555611392565b82800160010185558215611392579182015b82811115611391578251825591602001919060010190611376565b5b50905061139f91906113a3565b5090565b6113c591905b808211156113c15760008160009055506001016113a9565b5090565b905600a165627a7a72305820bc90dc6fabeac68bf5862ada75964ae2ffeb6a1bf079e906c31344389f6266c80029",
  "source": "pragma solidity ^0.4.24;\r\n\r\ncontract CounterAtomicSwapEther {\r\n\r\n    struct Swap {\r\n        address openTrader;\r\n        address withdrawTrader;\r\n        uint256 value;\r\n        bytes secretKey;\r\n        uint256 timelock;\r\n        uint256 openedOn;\r\n    }\r\n\r\n    enum States {\r\n        INVALID,\r\n        OPEN,\r\n        CLOSED,\r\n        EXPIRED\r\n    }\r\n\r\n    mapping(bytes32 => Swap) private swaps;\r\n    mapping(bytes32 => States) private swapStates;\r\n    mapping(address => bytes32[]) private accountSwaps;\r\n\r\n    event Open(bytes32 indexed _hash, address indexed _openTrader, uint256 _openedOn);\r\n    event Expire(bytes32 indexed _hash);\r\n    event Close(bytes32 indexed _hash, address indexed _withdrawTrader, bytes _secretKey);\r\n\r\n    modifier onlyInvalidSwaps(bytes32 _hash) {\r\n        require(swapStates[_hash] == States.INVALID);\r\n        _;\r\n    }\r\n\r\n    modifier onlyOpenSwaps(bytes32 _hash) {\r\n        require(swapStates[_hash] == States.OPEN);\r\n        _;\r\n    }\r\n\r\n    modifier onlyClosedSwaps(bytes32 _hash) {\r\n        require(swapStates[_hash] == States.CLOSED);\r\n        _;\r\n    }\r\n\r\n    modifier onlyExpirableSwaps(bytes32 _hash) {\r\n        require(now >= swaps[_hash].timelock);\r\n        _;\r\n    }\r\n\r\n    modifier onlyWithSecretKey(bytes32 _hash, bytes _secretKey) {\r\n        require(_hash == keccak256(_secretKey));\r\n        _;\r\n    }\r\n\r\n    function open(bytes32 _hash, uint256 _timelock) external onlyInvalidSwaps(_hash) payable {\r\n        // Store the details of the swap.\r\n        Swap memory swap = Swap({\r\n            openTrader : msg.sender,\r\n            withdrawTrader : address(0x0),\r\n            value : msg.value,\r\n            secretKey : new bytes(0),\r\n            timelock : _timelock,\r\n            openedOn: now\r\n        });\r\n        swaps[_hash] = swap;\r\n        swapStates[_hash] = States.OPEN;\r\n\r\n        // Update open account swaps\r\n        accountSwaps[msg.sender].push(_hash);\r\n\r\n        // Trigger open event.\r\n        emit Open(_hash, msg.sender, now);\r\n    }\r\n\r\n    function close(bytes32 _hash, bytes _secretKey) external onlyOpenSwaps(_hash) onlyWithSecretKey(_hash, _secretKey) {\r\n        // Close the swap.\r\n        Swap memory swap = swaps[_hash];\r\n        swaps[_hash].secretKey = _secretKey;\r\n        swaps[_hash].withdrawTrader = msg.sender;\r\n        swapStates[_hash] = States.CLOSED;\r\n\r\n        // We know withdraw trader only here so store it in case it's different than opening one\r\n        if (swap.withdrawTrader != msg.sender) {\r\n            accountSwaps[msg.sender].push(_hash);\r\n        }\r\n\r\n        // Transfer the ETH funds from this contract to the withdrawing trader.\r\n        swap.withdrawTrader.transfer(swap.value);\r\n\r\n        // Trigger close event.\r\n        emit Close(_hash, msg.sender, _secretKey);\r\n    }\r\n\r\n    function expire(bytes32 _hash) external onlyOpenSwaps(_hash) onlyExpirableSwaps(_hash) {\r\n        // Expire the swap.\r\n        Swap memory swap = swaps[_hash];\r\n        swapStates[_hash] = States.EXPIRED;\r\n\r\n        // Transfer the ETH value from this contract back to the ETH trader.\r\n        swap.openTrader.transfer(swap.value);\r\n\r\n        // Trigger expire event.\r\n        emit Expire(_hash);\r\n    }\r\n\r\n    function check(bytes32 _hash) external view returns (address openTrader, address withdrawTrader, uint256 value, uint256 timelock, uint256 openedOn, States state) {\r\n        state = swapStates[_hash];\r\n        Swap memory swap = swaps[_hash];\r\n        return (swap.openTrader, swap.withdrawTrader, swap.value, swap.timelock, swap.openedOn, state);\r\n    }\r\n\r\n    function checkSecretKey(bytes32 _hash) external view onlyClosedSwaps(_hash) returns (bytes secretKey) {\r\n        Swap memory swap = swaps[_hash];\r\n        return swap.secretKey;\r\n    }\r\n\r\n    function getAccountSwaps(address account) external view returns (bytes32[]) {\r\n        return accountSwaps[account];\r\n    }\r\n}\r\n",
  "sourcePath": "C:\\Projects\\Aerum\\aerumnet\\crosschain-swap\\contracts\\swap\\CounterAtomicSwapEther.sol",
  "compiler": {
    "name": "solc",
    "version": "0.4.24+commit.e67f0147.Emscripten.clang"
  },
  "schemaVersion": "2.0.0",
  "updatedAt": "2018-06-19T11:24:18.800Z"
}