{
  "contractName": "ENSRegistry",
  "abi": [
    {
      "inputs": [],
      "payable": false,
      "stateMutability": "nonpayable",
      "type": "constructor"
    },
    {
      "anonymous": false,
      "inputs": [
        {
          "indexed": true,
          "name": "node",
          "type": "bytes32"
        },
        {
          "indexed": true,
          "name": "label",
          "type": "bytes32"
        },
        {
          "indexed": false,
          "name": "owner",
          "type": "address"
        }
      ],
      "name": "NewOwner",
      "type": "event"
    },
    {
      "anonymous": false,
      "inputs": [
        {
          "indexed": true,
          "name": "node",
          "type": "bytes32"
        },
        {
          "indexed": false,
          "name": "owner",
          "type": "address"
        }
      ],
      "name": "Transfer",
      "type": "event"
    },
    {
      "anonymous": false,
      "inputs": [
        {
          "indexed": true,
          "name": "node",
          "type": "bytes32"
        },
        {
          "indexed": false,
          "name": "resolver",
          "type": "address"
        }
      ],
      "name": "NewResolver",
      "type": "event"
    },
    {
      "anonymous": false,
      "inputs": [
        {
          "indexed": true,
          "name": "node",
          "type": "bytes32"
        },
        {
          "indexed": false,
          "name": "ttl",
          "type": "uint64"
        }
      ],
      "name": "NewTTL",
      "type": "event"
    },
    {
      "constant": false,
      "inputs": [
        {
          "name": "node",
          "type": "bytes32"
        },
        {
          "name": "owner",
          "type": "address"
        }
      ],
      "name": "setOwner",
      "outputs": [],
      "payable": false,
      "stateMutability": "nonpayable",
      "type": "function"
    },
    {
      "constant": false,
      "inputs": [
        {
          "name": "node",
          "type": "bytes32"
        },
        {
          "name": "label",
          "type": "bytes32"
        },
        {
          "name": "owner",
          "type": "address"
        }
      ],
      "name": "setSubnodeOwner",
      "outputs": [],
      "payable": false,
      "stateMutability": "nonpayable",
      "type": "function"
    },
    {
      "constant": false,
      "inputs": [
        {
          "name": "node",
          "type": "bytes32"
        },
        {
          "name": "resolver",
          "type": "address"
        }
      ],
      "name": "setResolver",
      "outputs": [],
      "payable": false,
      "stateMutability": "nonpayable",
      "type": "function"
    },
    {
      "constant": false,
      "inputs": [
        {
          "name": "node",
          "type": "bytes32"
        },
        {
          "name": "ttl",
          "type": "uint64"
        }
      ],
      "name": "setTTL",
      "outputs": [],
      "payable": false,
      "stateMutability": "nonpayable",
      "type": "function"
    },
    {
      "constant": true,
      "inputs": [
        {
          "name": "node",
          "type": "bytes32"
        }
      ],
      "name": "owner",
      "outputs": [
        {
          "name": "",
          "type": "address"
        }
      ],
      "payable": false,
      "stateMutability": "view",
      "type": "function"
    },
    {
      "constant": true,
      "inputs": [
        {
          "name": "node",
          "type": "bytes32"
        }
      ],
      "name": "resolver",
      "outputs": [
        {
          "name": "",
          "type": "address"
        }
      ],
      "payable": false,
      "stateMutability": "view",
      "type": "function"
    },
    {
      "constant": true,
      "inputs": [
        {
          "name": "node",
          "type": "bytes32"
        }
      ],
      "name": "ttl",
      "outputs": [
        {
          "name": "",
          "type": "uint64"
        }
      ],
      "payable": false,
      "stateMutability": "view",
      "type": "function"
    }
  ],
  "bytecode": "0x6060604052341561000f57600080fd5b336000808060010260001916815260200190815260200160002060000160006101000a81548173ffffffffffffffffffffffffffffffffffffffff021916908373ffffffffffffffffffffffffffffffffffffffff1602179055506108c0806100796000396000f300606060405260043610610083576000357c0100000000000000000000000000000000000000000000000000000000900463ffffffff1680630178b8bf1461008857806302571be3146100ef57806306ab59231461015657806314ab9038146101a957806316a25cbd146101e35780631896f70a146102325780635b0fc9c314610278575b600080fd5b341561009357600080fd5b6100ad6004808035600019169060200190919050506102be565b604051808273ffffffffffffffffffffffffffffffffffffffff1673ffffffffffffffffffffffffffffffffffffffff16815260200191505060405180910390f35b34156100fa57600080fd5b610114600480803560001916906020019091905050610305565b604051808273ffffffffffffffffffffffffffffffffffffffff1673ffffffffffffffffffffffffffffffffffffffff16815260200191505060405180910390f35b341561016157600080fd5b6101a76004808035600019169060200190919080356000191690602001909190803573ffffffffffffffffffffffffffffffffffffffff1690602001909190505061034c565b005b34156101b457600080fd5b6101e160048080356000191690602001909190803567ffffffffffffffff169060200190919050506104c6565b005b34156101ee57600080fd5b6102086004808035600019169060200190919050506105d7565b604051808267ffffffffffffffff1667ffffffffffffffff16815260200191505060405180910390f35b341561023d57600080fd5b61027660048080356000191690602001909190803573ffffffffffffffffffffffffffffffffffffffff16906020019091905050610612565b005b341561028357600080fd5b6102bc60048080356000191690602001909190803573ffffffffffffffffffffffffffffffffffffffff16906020019091905050610753565b005b6000806000836000191660001916815260200190815260200160002060010160009054906101000a900473ffffffffffffffffffffffffffffffffffffffff169050919050565b6000806000836000191660001916815260200190815260200160002060000160009054906101000a900473ffffffffffffffffffffffffffffffffffffffff169050919050565b6000833373ffffffffffffffffffffffffffffffffffffffff16600080836000191660001916815260200190815260200160002060000160009054906101000a900473ffffffffffffffffffffffffffffffffffffffff1673ffffffffffffffffffffffffffffffffffffffff161415156103c657600080fd5b848460405180836000191660001916815260200182600019166000191681526020019250505060405180910390209150836000191685600019167fce0457fe73731f824cc272376169235128c118b49d344817417c6d108d155e8285604051808273ffffffffffffffffffffffffffffffffffffffff1673ffffffffffffffffffffffffffffffffffffffff16815260200191505060405180910390a382600080846000191660001916815260200190815260200160002060000160006101000a81548173ffffffffffffffffffffffffffffffffffffffff021916908373ffffffffffffffffffffffffffffffffffffffff1602179055505050505050565b813373ffffffffffffffffffffffffffffffffffffffff16600080836000191660001916815260200190815260200160002060000160009054906101000a900473ffffffffffffffffffffffffffffffffffffffff1673ffffffffffffffffffffffffffffffffffffffff1614151561053e57600080fd5b82600019167f1d4f9bbfc9cab89d66e1a1562f2233ccbf1308cb4f63de2ead5787adddb8fa6883604051808267ffffffffffffffff1667ffffffffffffffff16815260200191505060405180910390a281600080856000191660001916815260200190815260200160002060010160146101000a81548167ffffffffffffffff021916908367ffffffffffffffff160217905550505050565b6000806000836000191660001916815260200190815260200160002060010160149054906101000a900467ffffffffffffffff169050919050565b813373ffffffffffffffffffffffffffffffffffffffff16600080836000191660001916815260200190815260200160002060000160009054906101000a900473ffffffffffffffffffffffffffffffffffffffff1673ffffffffffffffffffffffffffffffffffffffff1614151561068a57600080fd5b82600019167f335721b01866dc23fbee8b6b2c7b1e14d6f05c28cd35a2c934239f94095602a083604051808273ffffffffffffffffffffffffffffffffffffffff1673ffffffffffffffffffffffffffffffffffffffff16815260200191505060405180910390a281600080856000191660001916815260200190815260200160002060010160006101000a81548173ffffffffffffffffffffffffffffffffffffffff021916908373ffffffffffffffffffffffffffffffffffffffff160217905550505050565b813373ffffffffffffffffffffffffffffffffffffffff16600080836000191660001916815260200190815260200160002060000160009054906101000a900473ffffffffffffffffffffffffffffffffffffffff1673ffffffffffffffffffffffffffffffffffffffff161415156107cb57600080fd5b82600019167fd4735d920b0f87494915f556dd9b54c8f309026070caea5c737245152564d26683604051808273ffffffffffffffffffffffffffffffffffffffff1673ffffffffffffffffffffffffffffffffffffffff16815260200191505060405180910390a281600080856000191660001916815260200190815260200160002060000160006101000a81548173ffffffffffffffffffffffffffffffffffffffff021916908373ffffffffffffffffffffffffffffffffffffffff1602179055505050505600a165627a7a72305820738eafd8f80da162f23d5c1b11b5a82b0d7a3e58fb6329936bf5d4402982adf80029",
  "source": "pragma solidity ^0.4.18;\r\n\r\nimport './ENS.sol';\r\n\r\n/**\r\n * The ENS registry contract.\r\n */\r\ncontract ENSRegistry is ENS {\r\n    struct Record {\r\n        address owner;\r\n        address resolver;\r\n        uint64 ttl;\r\n    }\r\n\r\n    mapping (bytes32 => Record) records;\r\n\r\n    // Permits modifications only by the owner of the specified node.\r\n    modifier only_owner(bytes32 node) {\r\n        require(records[node].owner == msg.sender);\r\n        _;\r\n    }\r\n\r\n    /**\r\n     * @dev Constructs a new ENS registrar.\r\n     */\r\n    function ENSRegistry() public {\r\n        records[0x0].owner = msg.sender;\r\n    }\r\n\r\n    /**\r\n     * @dev Transfers ownership of a node to a new address. May only be called by the current owner of the node.\r\n     * @param node The node to transfer ownership of.\r\n     * @param owner The address of the new owner.\r\n     */\r\n    function setOwner(bytes32 node, address owner) external only_owner(node) {\r\n        emit Transfer(node, owner);\r\n        records[node].owner = owner;\r\n    }\r\n\r\n    /**\r\n     * @dev Transfers ownership of a subnode keccak256(node, label) to a new address. May only be called by the owner of the parent node.\r\n     * @param node The parent node.\r\n     * @param label The hash of the label specifying the subnode.\r\n     * @param owner The address of the new owner.\r\n     */\r\n    function setSubnodeOwner(bytes32 node, bytes32 label, address owner) external only_owner(node) {\r\n        bytes32 subnode = keccak256(node, label);\r\n        emit NewOwner(node, label, owner);\r\n        records[subnode].owner = owner;\r\n    }\r\n\r\n    /**\r\n     * @dev Sets the resolver address for the specified node.\r\n     * @param node The node to update.\r\n     * @param resolver The address of the resolver.\r\n     */\r\n    function setResolver(bytes32 node, address resolver) external only_owner(node) {\r\n        emit NewResolver(node, resolver);\r\n        records[node].resolver = resolver;\r\n    }\r\n\r\n    /**\r\n     * @dev Sets the TTL for the specified node.\r\n     * @param node The node to update.\r\n     * @param ttl The TTL in seconds.\r\n     */\r\n    function setTTL(bytes32 node, uint64 ttl) external only_owner(node) {\r\n        emit NewTTL(node, ttl);\r\n        records[node].ttl = ttl;\r\n    }\r\n\r\n    /**\r\n     * @dev Returns the address that owns the specified node.\r\n     * @param node The specified node.\r\n     * @return address of the owner.\r\n     */\r\n    function owner(bytes32 node) external view returns (address) {\r\n        return records[node].owner;\r\n    }\r\n\r\n    /**\r\n     * @dev Returns the address of the resolver for the specified node.\r\n     * @param node The specified node.\r\n     * @return address of the resolver.\r\n     */\r\n    function resolver(bytes32 node) external view returns (address) {\r\n        return records[node].resolver;\r\n    }\r\n\r\n    /**\r\n     * @dev Returns the TTL of a node, and any records associated with it.\r\n     * @param node The specified node.\r\n     * @return ttl of the node.\r\n     */\r\n    function ttl(bytes32 node) external view returns (uint64) {\r\n        return records[node].ttl;\r\n    }\r\n\r\n}\r\n",
  "sourcePath": "C:\\Projects\\Aerum\\aerumnet\\solidity-aerum-network\\contracts\\aens\\ENSRegistry.sol",
  "compiler": {
    "name": "solc",
    "version": "0.4.21+commit.dfe3193c.Emscripten.clang"
  },
  "schemaVersion": "2.0.0",
  "updatedAt": "2018-05-07T22:43:05.119Z"
}