{
    "contractName": "Governance",
    "abi": [
        {
            "constant": true,
            "inputs": [
                {
                    "name": "",
                    "type": "address"
                }
            ],
            "name": "keepAliveTimestamps",
            "outputs": [
                {
                    "name": "",
                    "type": "uint256"
                }
            ],
            "payable": false,
            "stateMutability": "view",
            "type": "function"
        },
        {
            "constant": true,
            "inputs": [],
            "name": "owner",
            "outputs": [
                {
                    "name": "",
                    "type": "address"
                }
            ],
            "payable": false,
            "stateMutability": "view",
            "type": "function"
        },
        {
            "constant": true,
            "inputs": [
                {
                    "name": "",
                    "type": "uint256"
                }
            ],
            "name": "delegates",
            "outputs": [
                {
                    "name": "",
                    "type": "address"
                }
            ],
            "payable": false,
            "stateMutability": "view",
            "type": "function"
        },
        {
            "constant": true,
            "inputs": [],
            "name": "minBalance",
            "outputs": [
                {
                    "name": "",
                    "type": "uint256"
                }
            ],
            "payable": false,
            "stateMutability": "view",
            "type": "function"
        },
        {
            "constant": false,
            "inputs": [
                {
                    "name": "newOwner",
                    "type": "address"
                }
            ],
            "name": "transferOwnership",
            "outputs": [],
            "payable": false,
            "stateMutability": "nonpayable",
            "type": "function"
        },
        {
            "constant": true,
            "inputs": [
                {
                    "name": "",
                    "type": "address"
                }
            ],
            "name": "blacklist",
            "outputs": [
                {
                    "name": "",
                    "type": "bool"
                }
            ],
            "payable": false,
            "stateMutability": "view",
            "type": "function"
        },
        {
            "constant": true,
            "inputs": [],
            "name": "keepAliveDuration",
            "outputs": [
                {
                    "name": "",
                    "type": "uint256"
                }
            ],
            "payable": false,
            "stateMutability": "view",
            "type": "function"
        },
        {
            "constant": true,
            "inputs": [],
            "name": "token",
            "outputs": [
                {
                    "name": "",
                    "type": "address"
                }
            ],
            "payable": false,
            "stateMutability": "view",
            "type": "function"
        },
        {
            "inputs": [
                {
                    "name": "_token",
                    "type": "address"
                }
            ],
            "payable": false,
            "stateMutability": "nonpayable",
            "type": "constructor"
        },
        {
            "anonymous": false,
            "inputs": [
                {
                    "indexed": true,
                    "name": "delegate",
                    "type": "address"
                },
                {
                    "indexed": true,
                    "name": "owner",
                    "type": "address"
                }
            ],
            "name": "NewDelegate",
            "type": "event"
        },
        {
            "anonymous": false,
            "inputs": [
                {
                    "indexed": true,
                    "name": "previousOwner",
                    "type": "address"
                },
                {
                    "indexed": true,
                    "name": "newOwner",
                    "type": "address"
                }
            ],
            "name": "OwnershipTransferred",
            "type": "event"
        },
        {
            "constant": false,
            "inputs": [
                {
                    "name": "balance",
                    "type": "uint256"
                }
            ],
            "name": "setMinBalance",
            "outputs": [],
            "payable": false,
            "stateMutability": "nonpayable",
            "type": "function"
        },
        {
            "constant": false,
            "inputs": [
                {
                    "name": "duration",
                    "type": "uint256"
                }
            ],
            "name": "setKeepAliveDuration",
            "outputs": [],
            "payable": false,
            "stateMutability": "nonpayable",
            "type": "function"
        },
        {
            "constant": false,
            "inputs": [
                {
                    "name": "delegate",
                    "type": "address"
                },
                {
                    "name": "blocked",
                    "type": "bool"
                }
            ],
            "name": "updateBlacklist",
            "outputs": [],
            "payable": false,
            "stateMutability": "nonpayable",
            "type": "function"
        },
        {
            "constant": false,
            "inputs": [
                {
                    "name": "aerum",
                    "type": "address"
                }
            ],
            "name": "createDelegate",
            "outputs": [
                {
                    "name": "",
                    "type": "address"
                }
            ],
            "payable": false,
            "stateMutability": "nonpayable",
            "type": "function"
        },
        {
            "constant": false,
            "inputs": [
                {
                    "name": "delegate",
                    "type": "address"
                }
            ],
            "name": "register",
            "outputs": [],
            "payable": false,
            "stateMutability": "nonpayable",
            "type": "function"
        },
        {
            "constant": true,
            "inputs": [],
            "name": "getDelegateCount",
            "outputs": [
                {
                    "name": "",
                    "type": "uint256"
                }
            ],
            "payable": false,
            "stateMutability": "view",
            "type": "function"
        },
        {
            "constant": false,
            "inputs": [],
            "name": "keepAlive",
            "outputs": [],
            "payable": false,
            "stateMutability": "nonpayable",
            "type": "function"
        },
        {
            "constant": true,
            "inputs": [
                {
                    "name": "blockNum",
                    "type": "uint256"
                }
            ],
            "name": "getComposers",
            "outputs": [
                {
                    "name": "",
                    "type": "address[]"
                }
            ],
            "payable": false,
            "stateMutability": "view",
            "type": "function"
        }
    ],
    "bytecode": "0x608060405234801561001057600080fd5b50604051602080611ed483398101806040528101908080519060200190929190505050336000806101000a81548173ffffffffffffffffffffffffffffffffffffffff021916908373ffffffffffffffffffffffffffffffffffffffff16021790555080600160006101000a81548173ffffffffffffffffffffffffffffffffffffffff021916908373ffffffffffffffffffffffffffffffffffffffff16021790555060646005819055506201518060068190555050611dfe806100d66000396000f3006080604052600436106100e6576000357c0100000000000000000000000000000000000000000000000000000000900463ffffffff168063071836e7146100eb5780634420e486146101165780634f6753041461015957806387740c0d146101b05780638da5cb5b146101c75780639155e0831461021e5780639d0d7c301461026d578063a8a963bf146102f0578063b1548afc1461031d578063c5bb87581461038a578063c91d956c146103b5578063d7d466f5146103e2578063f2fde38b14610464578063f9f92be4146104a7578063fb38108614610502578063fc0c546a1461052d575b600080fd5b3480156100f757600080fd5b50610100610584565b6040518082815260200191505060405180910390f35b34801561012257600080fd5b50610157600480360381019080803573ffffffffffffffffffffffffffffffffffffffff169060200190929190505050610591565b005b34801561016557600080fd5b5061019a600480360381019080803573ffffffffffffffffffffffffffffffffffffffff169060200190929190505050610655565b6040518082815260200191505060405180910390f35b3480156101bc57600080fd5b506101c561066d565b005b3480156101d357600080fd5b506101dc610701565b604051808273ffffffffffffffffffffffffffffffffffffffff1673ffffffffffffffffffffffffffffffffffffffff16815260200191505060405180910390f35b34801561022a57600080fd5b5061026b600480360381019080803573ffffffffffffffffffffffffffffffffffffffff169060200190929190803515159060200190929190505050610726565b005b34801561027957600080fd5b506102ae600480360381019080803573ffffffffffffffffffffffffffffffffffffffff1690602001909291905050506107dc565b604051808273ffffffffffffffffffffffffffffffffffffffff1673ffffffffffffffffffffffffffffffffffffffff16815260200191505060405180910390f35b3480156102fc57600080fd5b5061031b60048036038101908080359060200190929190505050610a2d565b005b34801561032957600080fd5b5061034860048036038101908080359060200190929190505050610a92565b604051808273ffffffffffffffffffffffffffffffffffffffff1673ffffffffffffffffffffffffffffffffffffffff16815260200191505060405180910390f35b34801561039657600080fd5b5061039f610ad0565b6040518082815260200191505060405180910390f35b3480156103c157600080fd5b506103e060048036038101908080359060200190929190505050610ad6565b005b3480156103ee57600080fd5b5061040d60048036038101908080359060200190929190505050610b3b565b6040518080602001828103825283818151815260200191508051906020019060200280838360005b83811015610450578082015181840152602081019050610435565b505050509050019250505060405180910390f35b34801561047057600080fd5b506104a5600480360381019080803573ffffffffffffffffffffffffffffffffffffffff169060200190929190505050610ce8565b005b3480156104b357600080fd5b506104e8600480360381019080803573ffffffffffffffffffffffffffffffffffffffff169060200190929190505050610e3d565b604051808215151515815260200191505060405180910390f35b34801561050e57600080fd5b50610517610e5d565b6040518082815260200191505060405180910390f35b34801561053957600080fd5b50610542610e63565b604051808273ffffffffffffffffffffffffffffffffffffffff1673ffffffffffffffffffffffffffffffffffffffff16815260200191505060405180910390f35b6000600280549050905090565b6000809054906101000a900473ffffffffffffffffffffffffffffffffffffffff1673ffffffffffffffffffffffffffffffffffffffff163373ffffffffffffffffffffffffffffffffffffffff161415156105ec57600080fd5b60028190806001815401808255809150509060018203906000526020600020016000909192909190916101000a81548173ffffffffffffffffffffffffffffffffffffffff021916908373ffffffffffffffffffffffffffffffffffffffff1602179055505050565b60036020528060005260406000206000915090505481565b6000600360003373ffffffffffffffffffffffffffffffffffffffff1673ffffffffffffffffffffffffffffffffffffffff168152602001908152602001600020541115156106bb57600080fd5b42600360003373ffffffffffffffffffffffffffffffffffffffff1673ffffffffffffffffffffffffffffffffffffffff16815260200190815260200160002081905550565b6000809054906101000a900473ffffffffffffffffffffffffffffffffffffffff1681565b6000809054906101000a900473ffffffffffffffffffffffffffffffffffffffff1673ffffffffffffffffffffffffffffffffffffffff163373ffffffffffffffffffffffffffffffffffffffff1614151561078157600080fd5b80600460008473ffffffffffffffffffffffffffffffffffffffff1673ffffffffffffffffffffffffffffffffffffffff16815260200190815260200160002060006101000a81548160ff0219169083151502179055505050565b600080600080600160009054906101000a900473ffffffffffffffffffffffffffffffffffffffff16308661080f61128b565b808473ffffffffffffffffffffffffffffffffffffffff1673ffffffffffffffffffffffffffffffffffffffff1681526020018373ffffffffffffffffffffffffffffffffffffffff1673ffffffffffffffffffffffffffffffffffffffff1681526020018273ffffffffffffffffffffffffffffffffffffffff1673ffffffffffffffffffffffffffffffffffffffff1681526020019350505050604051809103906000f0801580156108c7573d6000803e3d6000fd5b5092503391508273ffffffffffffffffffffffffffffffffffffffff1663f2fde38b836040518263ffffffff167c0100000000000000000000000000000000000000000000000000000000028152600401808273ffffffffffffffffffffffffffffffffffffffff1673ffffffffffffffffffffffffffffffffffffffff168152602001915050600060405180830381600087803b15801561096857600080fd5b505af115801561097c573d6000803e3d6000fd5b505050508290506001600360008373ffffffffffffffffffffffffffffffffffffffff1673ffffffffffffffffffffffffffffffffffffffff168152602001908152602001600020819055508173ffffffffffffffffffffffffffffffffffffffff168173ffffffffffffffffffffffffffffffffffffffff167f91a2062b5d99931cce4660685e1c239d69642eedbb9cef9679a393f064ec362660405160405180910390a3809350505050919050565b6000809054906101000a900473ffffffffffffffffffffffffffffffffffffffff1673ffffffffffffffffffffffffffffffffffffffff163373ffffffffffffffffffffffffffffffffffffffff16141515610a8857600080fd5b8060068190555050565b600281815481101515610aa157fe5b906000526020600020016000915054906101000a900473ffffffffffffffffffffffffffffffffffffffff1681565b60055481565b6000809054906101000a900473ffffffffffffffffffffffffffffffffffffffff1673ffffffffffffffffffffffffffffffffffffffff163373ffffffffffffffffffffffffffffffffffffffff16141515610b3157600080fd5b8060058190555050565b60608060606000806000806000610b50610e89565b9650600a8751111515610b6557869750610cdc565b600a604051908082528060200260200182016040528015610b955781602001602082028038833980820191505090505b5095508651610baf6103e88b61109e90919063ffffffff16565b811515610bb857fe5b069450600a85019350600092508651841115610bd957865184039250865193505b8491505b83821015610c56578682815181101515610bf357fe5b9060200190602002015186868403815181101515610c0d57fe5b9060200190602002019073ffffffffffffffffffffffffffffffffffffffff16908173ffffffffffffffffffffffffffffffffffffffff16815250508180600101925050610bdd565b600090505b82811015610cd8578681815181101515610c7157fe5b9060200190602002015186600183600a0303815181101515610c8f57fe5b9060200190602002019073ffffffffffffffffffffffffffffffffffffffff16908173ffffffffffffffffffffffffffffffffffffffff16815250508080600101915050610c5b565b8597505b50505050505050919050565b6000809054906101000a900473ffffffffffffffffffffffffffffffffffffffff1673ffffffffffffffffffffffffffffffffffffffff163373ffffffffffffffffffffffffffffffffffffffff16141515610d4357600080fd5b600073ffffffffffffffffffffffffffffffffffffffff168173ffffffffffffffffffffffffffffffffffffffff1614151515610d7f57600080fd5b8073ffffffffffffffffffffffffffffffffffffffff166000809054906101000a900473ffffffffffffffffffffffffffffffffffffffff1673ffffffffffffffffffffffffffffffffffffffff167f8be0079c531659141344cd1fd0a4f28419497f9722a3daafe3b4186f6b6457e060405160405180910390a3806000806101000a81548173ffffffffffffffffffffffffffffffffffffffff021916908373ffffffffffffffffffffffffffffffffffffffff16021790555050565b60046020528060005260406000206000915054906101000a900460ff1681565b60065481565b600160009054906101000a900473ffffffffffffffffffffffffffffffffffffffff1681565b60608060008060606000600280549050604051908082528060200260200182016040528015610ec75781602001602082028038833980820191505090505b50945060009350600092505b6002805490508361ffff161015610fd157610f2a60028461ffff16815481101515610efa57fe5b9060005260206000200160009054906101000a900473ffffffffffffffffffffffffffffffffffffffff166110b4565b15610fc45760028361ffff16815481101515610f4257fe5b9060005260206000200160009054906101000a900473ffffffffffffffffffffffffffffffffffffffff16858561ffff16815181101515610f7f57fe5b9060200190602002019073ffffffffffffffffffffffffffffffffffffffff16908173ffffffffffffffffffffffffffffffffffffffff168152505083806001019450505b8280600101935050610ed3565b8361ffff166040519080825280602002602001820160405280156110045781602001602082028038833980820191505090505b509150600090505b8361ffff168161ffff16101561109357848161ffff1681518110151561102e57fe5b90602001906020020151828261ffff1681518110151561104a57fe5b9060200190602002019073ffffffffffffffffffffffffffffffffffffffff16908173ffffffffffffffffffffffffffffffffffffffff1681525050808060010191505061100c565b849550505050505090565b600081838115156110ab57fe5b04905092915050565b6000600460008373ffffffffffffffffffffffffffffffffffffffff1673ffffffffffffffffffffffffffffffffffffffff16815260200190815260200160002060009054906101000a900460ff161580156112095750600554600160009054906101000a900473ffffffffffffffffffffffffffffffffffffffff1673ffffffffffffffffffffffffffffffffffffffff166370a08231846040518263ffffffff167c0100000000000000000000000000000000000000000000000000000000028152600401808273ffffffffffffffffffffffffffffffffffffffff1673ffffffffffffffffffffffffffffffffffffffff168152602001915050602060405180830381600087803b1580156111cb57600080fd5b505af11580156111df573d6000803e3d6000fd5b505050506040513d60208110156111f557600080fd5b810190808051906020019092919050505010155b8015611268575042611265600654600360008673ffffffffffffffffffffffffffffffffffffffff1673ffffffffffffffffffffffffffffffffffffffff1681526020019081526020016000205461126f90919063ffffffff16565b10155b9050919050565b6000818301905082811015151561128257fe5b80905092915050565b604051610b378061129c833901905600608060405234801561001057600080fd5b50604051606080610b37833981018060405281019080805190602001909291908051906020019092919080519060200190929190505050336000806101000a81548173ffffffffffffffffffffffffffffffffffffffff021916908373ffffffffffffffffffffffffffffffffffffffff16021790555082600160006101000a81548173ffffffffffffffffffffffffffffffffffffffff021916908373ffffffffffffffffffffffffffffffffffffffff16021790555081600260006101000a81548173ffffffffffffffffffffffffffffffffffffffff021916908373ffffffffffffffffffffffffffffffffffffffff16021790555080600360006101000a81548173ffffffffffffffffffffffffffffffffffffffff021916908373ffffffffffffffffffffffffffffffffffffffff1602179055505050506109db8061015c6000396000f300608060405260043610610099576000357c0100000000000000000000000000000000000000000000000000000000900463ffffffff16806316934fc41461009e5780632e1a7d4d146100f55780635aa6e675146101225780635e7afa7d1461017957806387740c0d146101d05780638da5cb5b146101e7578063b6b55f251461023e578063f2fde38b1461026b578063fc0c546a146102ae575b600080fd5b3480156100aa57600080fd5b506100df600480360381019080803573ffffffffffffffffffffffffffffffffffffffff169060200190929190505050610305565b6040518082815260200191505060405180910390f35b34801561010157600080fd5b506101206004803603810190808035906020019092919050505061031d565b005b34801561012e57600080fd5b50610137610514565b604051808273ffffffffffffffffffffffffffffffffffffffff1673ffffffffffffffffffffffffffffffffffffffff16815260200191505060405180910390f35b34801561018557600080fd5b5061018e61053a565b604051808273ffffffffffffffffffffffffffffffffffffffff1673ffffffffffffffffffffffffffffffffffffffff16815260200191505060405180910390f35b3480156101dc57600080fd5b506101e5610560565b005b3480156101f357600080fd5b506101fc610600565b604051808273ffffffffffffffffffffffffffffffffffffffff1673ffffffffffffffffffffffffffffffffffffffff16815260200191505060405180910390f35b34801561024a57600080fd5b5061026960048036038101908080359060200190929190505050610625565b005b34801561027757600080fd5b506102ac600480360381019080803573ffffffffffffffffffffffffffffffffffffffff1690602001909291905050506107ff565b005b3480156102ba57600080fd5b506102c3610954565b604051808273ffffffffffffffffffffffffffffffffffffffff1673ffffffffffffffffffffffffffffffffffffffff16815260200191505060405180910390f35b60046020528060005260406000206000915090505481565b600033905081600460008373ffffffffffffffffffffffffffffffffffffffff1673ffffffffffffffffffffffffffffffffffffffff168152602001908152602001600020541015151561037057600080fd5b600160009054906101000a900473ffffffffffffffffffffffffffffffffffffffff1673ffffffffffffffffffffffffffffffffffffffff1663a9059cbb82846040518363ffffffff167c0100000000000000000000000000000000000000000000000000000000028152600401808373ffffffffffffffffffffffffffffffffffffffff1673ffffffffffffffffffffffffffffffffffffffff16815260200182815260200192505050602060405180830381600087803b15801561043557600080fd5b505af1158015610449573d6000803e3d6000fd5b505050506040513d602081101561045f57600080fd5b8101908080519060200190929190505050151561047b57600080fd5b6104cd82600460008473ffffffffffffffffffffffffffffffffffffffff1673ffffffffffffffffffffffffffffffffffffffff1681526020019081526020016000205461097a90919063ffffffff16565b600460008373ffffffffffffffffffffffffffffffffffffffff1673ffffffffffffffffffffffffffffffffffffffff168152602001908152602001600020819055505050565b600260009054906101000a900473ffffffffffffffffffffffffffffffffffffffff1681565b600360009054906101000a900473ffffffffffffffffffffffffffffffffffffffff1681565b600260009054906101000a900473ffffffffffffffffffffffffffffffffffffffff1673ffffffffffffffffffffffffffffffffffffffff166387740c0d6040518163ffffffff167c0100000000000000000000000000000000000000000000000000000000028152600401600060405180830381600087803b1580156105e657600080fd5b505af11580156105fa573d6000803e3d6000fd5b50505050565b6000809054906101000a900473ffffffffffffffffffffffffffffffffffffffff1681565b6000339050600160009054906101000a900473ffffffffffffffffffffffffffffffffffffffff1673ffffffffffffffffffffffffffffffffffffffff166323b872dd8230856040518463ffffffff167c0100000000000000000000000000000000000000000000000000000000028152600401808473ffffffffffffffffffffffffffffffffffffffff1673ffffffffffffffffffffffffffffffffffffffff1681526020018373ffffffffffffffffffffffffffffffffffffffff1673ffffffffffffffffffffffffffffffffffffffff1681526020018281526020019350505050602060405180830381600087803b15801561072357600080fd5b505af1158015610737573d6000803e3d6000fd5b505050506040513d602081101561074d57600080fd5b8101908080519060200190929190505050151561076657fe5b6107b882600460008473ffffffffffffffffffffffffffffffffffffffff1673ffffffffffffffffffffffffffffffffffffffff1681526020019081526020016000205461099390919063ffffffff16565b600460008373ffffffffffffffffffffffffffffffffffffffff1673ffffffffffffffffffffffffffffffffffffffff168152602001908152602001600020819055505050565b6000809054906101000a900473ffffffffffffffffffffffffffffffffffffffff1673ffffffffffffffffffffffffffffffffffffffff163373ffffffffffffffffffffffffffffffffffffffff1614151561085a57600080fd5b600073ffffffffffffffffffffffffffffffffffffffff168173ffffffffffffffffffffffffffffffffffffffff161415151561089657600080fd5b8073ffffffffffffffffffffffffffffffffffffffff166000809054906101000a900473ffffffffffffffffffffffffffffffffffffffff1673ffffffffffffffffffffffffffffffffffffffff167f8be0079c531659141344cd1fd0a4f28419497f9722a3daafe3b4186f6b6457e060405160405180910390a3806000806101000a81548173ffffffffffffffffffffffffffffffffffffffff021916908373ffffffffffffffffffffffffffffffffffffffff16021790555050565b600160009054906101000a900473ffffffffffffffffffffffffffffffffffffffff1681565b600082821115151561098857fe5b818303905092915050565b600081830190508281101515156109a657fe5b809050929150505600a165627a7a723058200cbae294fcb1b1b05e32a355e3056c9f9569d9e4c90c3d0b55e4342face5e8bc0029a165627a7a72305820b32fff89b05457beb9a55966ffa723bee96d00f7db6e356832608ef9f986da960029",
    "source": "pragma solidity ^0.4.24;\r\n\r\nimport \"openzeppelin-solidity/contracts/ownership/Ownable.sol\";\r\nimport \"openzeppelin-solidity/contracts/math/SafeMath.sol\";\r\nimport \"openzeppelin-solidity/contracts/token/ERC20/ERC20.sol\";\r\nimport \"./Delegate.sol\";\r\n\r\n/**\r\n * @title Ethereum-based governance contract\r\n */\r\ncontract Governance is Ownable {\r\n\r\n    using SafeMath for uint256;\r\n\r\n    event NewDelegate(address indexed delegate, address indexed owner);\r\n\r\n    /** AER ERC20 token **/\r\n    ERC20 public token;\r\n\r\n    /** List of registered delegates **/\r\n    address[] public delegates;\r\n\r\n    /** Mapping of (delegate address => keep alive timestamp) **/\r\n    mapping (address => uint256) public keepAliveTimestamps;\r\n\r\n    /** Mapping of blacklisted delegates **/\r\n    mapping (address => bool) public blacklist;\r\n\r\n    /** Minimum delegate balance necessary to participate in staking **/\r\n    uint256 public minBalance;\r\n  \r\n    /** Maximum duration between keep alive message and current time to consider delegate active **/\r\n    uint256 public keepAliveDuration;\r\n\r\n    /** Check if the sender is a valid delegate **/\r\n    modifier onlyDelegate {\r\n        require(keepAliveTimestamps[msg.sender] > 0);\r\n        _;\r\n    }\r\n\r\n    constructor(ERC20 _token) public {\r\n        token = _token;\r\n        minBalance = 100;\r\n        keepAliveDuration = 60 * 60 * 24; // 24h\r\n    }\r\n\r\n    /**\r\n    * @dev Set up minimum delegate balance necessary to participate in staking\r\n    */\r\n    function setMinBalance(uint256 balance) external onlyOwner {\r\n        minBalance = balance;\r\n    }\r\n\r\n    /**\r\n    * @dev Set up duration between keep alive message and current time to consider delegate active\r\n    */\r\n    function setKeepAliveDuration(uint256 duration) external onlyOwner {\r\n        keepAliveDuration = duration;\r\n    }\r\n\r\n    /**\r\n    * @dev Change delegate status in the blacklist\r\n    */\r\n    function updateBlacklist(address delegate, bool blocked) external onlyOwner {\r\n        blacklist[delegate] = blocked;\r\n    }\r\n\r\n    /**\r\n    * @dev Create new delegate contract and transfer ownership to a caller\r\n    */\r\n    function createDelegate(address aerum) external returns (address) {\r\n        Delegate delegate = new Delegate(token, this, aerum);\r\n        address owner = msg.sender;\r\n        // transfer ownership to a caller\r\n        delegate.transferOwnership(owner);\r\n        address addr = address(delegate);\r\n        // set initial keep alive timestamp to mark it as a valid delegate\r\n        keepAliveTimestamps[addr] = 1;\r\n        emit NewDelegate(addr, owner);\r\n        return addr;\r\n    }\r\n\r\n    /**\r\n    * @dev Register specified delegate after successful voting\r\n    */\r\n    function register(address delegate) external onlyOwner {\r\n        delegates.push(delegate);\r\n    }\r\n\r\n    /**\r\n    * @dev Returns number of delegates\r\n    */\r\n    function getDelegateCount() public view returns(uint) {\r\n        return delegates.length;\r\n    }\r\n\r\n    /**\r\n    * @dev Update keep alive timestamp for a caller delegate\r\n    */\r\n    function keepAlive() external onlyDelegate {\r\n        keepAliveTimestamps[msg.sender] = block.timestamp;\r\n    }\r\n\r\n    /**\r\n    * @dev list of composers for the specified block number\r\n    */\r\n    function getComposers(uint256 blockNum) external view returns(address[]) {\r\n        address[] memory candidates = getValidDelegates();\r\n        if (candidates.length <= 10) {\r\n            return candidates;\r\n        }\r\n        address[] memory composers = new address[](10);\r\n        uint256 first = blockNum.div(1000) % candidates.length;\r\n        uint256 last = first + 10;\r\n        uint256 fromStart = 0;\r\n        if (last > candidates.length) {\r\n            fromStart = last - candidates.length;\r\n            last = candidates.length;\r\n        }\r\n        for (uint256 i = first; i < last; i++) {\r\n            composers[i - first] = candidates[i];\r\n        }\r\n        for (uint256 j = 0; j < fromStart; j++) {\r\n            composers[10 - j - 1] = candidates[j];\r\n        }\r\n        return composers;\r\n    }\r\n\r\n    /**\r\n    * @dev list of valid delegates which might be composers\r\n    */\r\n    function getValidDelegates() internal view returns(address[]) {\r\n        address[] memory array = new address[](delegates.length);\r\n        uint16 length = 0;\r\n        for (uint16 i = 0; i < delegates.length; i++) {\r\n            if (isValid(delegates[i])) {\r\n                array[length] = delegates[i];\r\n                length++;\r\n            }\r\n        }\r\n        address[] memory result = new address[](length);\r\n        for (uint16 j = 0; j < length; j++) {\r\n            result[j] = array[j];\r\n        }\r\n        return array;\r\n    }\r\n\r\n    /**\r\n    * @dev whether specified delegate can be a composer\r\n    */\r\n    function isValid(address delegate) internal view returns(bool) {\r\n        // Delegate has not been blacklisted\r\n        return !blacklist[delegate] &&\r\n            // Delegate has enough minimal stake to participate in consensus\r\n            token.balanceOf(delegate) >= minBalance &&\r\n            // Delegate has produced a keep-alive message in last 24h\r\n            keepAliveTimestamps[delegate].add(keepAliveDuration) >= block.timestamp;\r\n    }\r\n\r\n}\r\n",
    "sourcePath": "C:\\Projects\\Aerum\\aerumnet\\aer-token\\contracts\\staking\\Governance.sol",
    "compiler": {
        "name": "solc",
        "version": "0.4.24+commit.e67f0147.Emscripten.clang"
    },
    "schemaVersion": "2.0.0",
    "updatedAt": "2018-07-23T22:16:35.613Z"
}