{
  "contractName": "Governance",
  "abi": [
    {
      "constant": false,
      "inputs": [],
      "name": "renounceOwnership",
      "outputs": [],
      "payable": false,
      "stateMutability": "nonpayable",
      "type": "function"
    },
    {
      "constant": true,
      "inputs": [],
      "name": "owner",
      "outputs": [
        {
          "name": "",
          "type": "address"
        }
      ],
      "payable": false,
      "stateMutability": "view",
      "type": "function"
    },
    {
      "constant": true,
      "inputs": [
        {
          "name": "",
          "type": "address"
        }
      ],
      "name": "ownedDelegates",
      "outputs": [
        {
          "name": "",
          "type": "bool"
        }
      ],
      "payable": false,
      "stateMutability": "view",
      "type": "function"
    },
    {
      "constant": true,
      "inputs": [
        {
          "name": "",
          "type": "uint256"
        }
      ],
      "name": "delegates",
      "outputs": [
        {
          "name": "",
          "type": "address"
        }
      ],
      "payable": false,
      "stateMutability": "view",
      "type": "function"
    },
    {
      "constant": true,
      "inputs": [
        {
          "name": "",
          "type": "address"
        }
      ],
      "name": "delegateLogs",
      "outputs": [
        {
          "name": "",
          "type": "address"
        }
      ],
      "payable": false,
      "stateMutability": "view",
      "type": "function"
    },
    {
      "constant": true,
      "inputs": [],
      "name": "minBalance",
      "outputs": [
        {
          "name": "",
          "type": "uint256"
        }
      ],
      "payable": false,
      "stateMutability": "view",
      "type": "function"
    },
    {
      "constant": false,
      "inputs": [
        {
          "name": "_newOwner",
          "type": "address"
        }
      ],
      "name": "transferOwnership",
      "outputs": [],
      "payable": false,
      "stateMutability": "nonpayable",
      "type": "function"
    },
    {
      "constant": true,
      "inputs": [],
      "name": "keepAliveDuration",
      "outputs": [
        {
          "name": "",
          "type": "uint256"
        }
      ],
      "payable": false,
      "stateMutability": "view",
      "type": "function"
    },
    {
      "constant": true,
      "inputs": [],
      "name": "token",
      "outputs": [
        {
          "name": "",
          "type": "address"
        }
      ],
      "payable": false,
      "stateMutability": "view",
      "type": "function"
    },
    {
      "inputs": [
        {
          "name": "_token",
          "type": "address"
        }
      ],
      "payable": false,
      "stateMutability": "nonpayable",
      "type": "constructor"
    },
    {
      "anonymous": false,
      "inputs": [
        {
          "indexed": true,
          "name": "delegate",
          "type": "address"
        },
        {
          "indexed": true,
          "name": "owner",
          "type": "address"
        }
      ],
      "name": "NewDelegate",
      "type": "event"
    },
    {
      "anonymous": false,
      "inputs": [
        {
          "indexed": true,
          "name": "previousOwner",
          "type": "address"
        }
      ],
      "name": "OwnershipRenounced",
      "type": "event"
    },
    {
      "anonymous": false,
      "inputs": [
        {
          "indexed": true,
          "name": "previousOwner",
          "type": "address"
        },
        {
          "indexed": true,
          "name": "newOwner",
          "type": "address"
        }
      ],
      "name": "OwnershipTransferred",
      "type": "event"
    },
    {
      "constant": false,
      "inputs": [
        {
          "name": "balance",
          "type": "uint256"
        }
      ],
      "name": "setMinBalance",
      "outputs": [],
      "payable": false,
      "stateMutability": "nonpayable",
      "type": "function"
    },
    {
      "constant": false,
      "inputs": [
        {
          "name": "duration",
          "type": "uint256"
        }
      ],
      "name": "setKeepAliveDuration",
      "outputs": [],
      "payable": false,
      "stateMutability": "nonpayable",
      "type": "function"
    },
    {
      "constant": false,
      "inputs": [
        {
          "name": "delegate",
          "type": "address"
        },
        {
          "name": "blocked",
          "type": "bool"
        }
      ],
      "name": "updateBlacklist",
      "outputs": [],
      "payable": false,
      "stateMutability": "nonpayable",
      "type": "function"
    },
    {
      "constant": false,
      "inputs": [
        {
          "name": "aerum",
          "type": "address"
        }
      ],
      "name": "createDelegate",
      "outputs": [
        {
          "name": "",
          "type": "address"
        }
      ],
      "payable": false,
      "stateMutability": "nonpayable",
      "type": "function"
    },
    {
      "constant": false,
      "inputs": [
        {
          "name": "delegate",
          "type": "address"
        }
      ],
      "name": "register",
      "outputs": [],
      "payable": false,
      "stateMutability": "nonpayable",
      "type": "function"
    },
    {
      "constant": true,
      "inputs": [],
      "name": "getDelegateCount",
      "outputs": [
        {
          "name": "",
          "type": "uint256"
        }
      ],
      "payable": false,
      "stateMutability": "view",
      "type": "function"
    },
    {
      "constant": false,
      "inputs": [],
      "name": "keepAlive",
      "outputs": [],
      "payable": false,
      "stateMutability": "nonpayable",
      "type": "function"
    },
    {
      "constant": false,
      "inputs": [
        {
          "name": "value",
          "type": "uint256"
        }
      ],
      "name": "setStake",
      "outputs": [],
      "payable": false,
      "stateMutability": "nonpayable",
      "type": "function"
    },
    {
      "constant": true,
      "inputs": [
        {
          "name": "blockNum",
          "type": "uint256"
        }
      ],
      "name": "getComposers",
      "outputs": [
        {
          "name": "",
          "type": "address[]"
        }
      ],
      "payable": false,
      "stateMutability": "view",
      "type": "function"
    },
    {
      "constant": true,
      "inputs": [
        {
          "name": "blockNum",
          "type": "uint256"
        }
      ],
      "name": "getValidDelegates",
      "outputs": [
        {
          "name": "",
          "type": "address[]"
        }
      ],
      "payable": false,
      "stateMutability": "view",
      "type": "function"
    },
    {
      "constant": true,
      "inputs": [
        {
          "name": "delegate",
          "type": "address"
        },
        {
          "name": "blockNum",
          "type": "uint256"
        }
      ],
      "name": "isValid",
      "outputs": [
        {
          "name": "",
          "type": "bool"
        }
      ],
      "payable": false,
      "stateMutability": "view",
      "type": "function"
    }
  ],
  "bytecode": "0x608060405234801561001057600080fd5b5060405160208061320083398101806040528101908080519060200190929190505050336000806101000a81548173ffffffffffffffffffffffffffffffffffffffff021916908373ffffffffffffffffffffffffffffffffffffffff16021790555080600160006101000a81548173ffffffffffffffffffffffffffffffffffffffff021916908373ffffffffffffffffffffffffffffffffffffffff1602179055506064600581905550620151806006819055505061312a806100d66000396000f300608060405260043610610112576000357c0100000000000000000000000000000000000000000000000000000000900463ffffffff168063071836e71461011757806335d9db53146101425780634420e4861461016f57806359647984146101b2578063659b7c8f14610217578063715018a61461029957806387740c0d146102b05780638da5cb5b146102c75780639155e0831461031e5780639d0d7c301461036d578063a51e13e5146103f0578063a8a963bf1461044b578063b1548afc14610478578063bb2a545c146104e5578063c5bb875814610568578063c91d956c14610593578063d7d466f5146105c0578063f2fde38b14610642578063fb38108614610685578063fc0c546a146106b0575b600080fd5b34801561012357600080fd5b5061012c610707565b6040518082815260200191505060405180910390f35b34801561014e57600080fd5b5061016d60048036038101908080359060200190929190505050610714565b005b34801561017b57600080fd5b506101b0600480360381019080803573ffffffffffffffffffffffffffffffffffffffff169060200190929190505050610855565b005b3480156101be57600080fd5b506101fd600480360381019080803573ffffffffffffffffffffffffffffffffffffffff16906020019092919080359060200190929190505050610a0e565b604051808215151515815260200191505060405180910390f35b34801561022357600080fd5b5061024260048036038101908080359060200190929190505050610d04565b6040518080602001828103825283818151815260200191508051906020019060200280838360005b8381101561028557808201518184015260208101905061026a565b505050509050019250505060405180910390f35b3480156102a557600080fd5b506102ae610fc0565b005b3480156102bc57600080fd5b506102c56110c2565b005b3480156102d357600080fd5b506102dc6111f7565b604051808273ffffffffffffffffffffffffffffffffffffffff1673ffffffffffffffffffffffffffffffffffffffff16815260200191505060405180910390f35b34801561032a57600080fd5b5061036b600480360381019080803573ffffffffffffffffffffffffffffffffffffffff16906020019092919080351515906020019092919050505061121c565b005b34801561037957600080fd5b506103ae600480360381019080803573ffffffffffffffffffffffffffffffffffffffff1690602001909291905050506113bd565b604051808273ffffffffffffffffffffffffffffffffffffffff1673ffffffffffffffffffffffffffffffffffffffff16815260200191505060405180910390f35b3480156103fc57600080fd5b50610431600480360381019080803573ffffffffffffffffffffffffffffffffffffffff1690602001909291905050506116c3565b604051808215151515815260200191505060405180910390f35b34801561045757600080fd5b50610476600480360381019080803590602001909291905050506116e3565b005b34801561048457600080fd5b506104a360048036038101908080359060200190929190505050611748565b604051808273ffffffffffffffffffffffffffffffffffffffff1673ffffffffffffffffffffffffffffffffffffffff16815260200191505060405180910390f35b3480156104f157600080fd5b50610526600480360381019080803573ffffffffffffffffffffffffffffffffffffffff169060200190929190505050611786565b604051808273ffffffffffffffffffffffffffffffffffffffff1673ffffffffffffffffffffffffffffffffffffffff16815260200191505060405180910390f35b34801561057457600080fd5b5061057d6117b9565b6040518082815260200191505060405180910390f35b34801561059f57600080fd5b506105be600480360381019080803590602001909291905050506117bf565b005b3480156105cc57600080fd5b506105eb60048036038101908080359060200190929190505050611824565b6040518080602001828103825283818151815260200191508051906020019060200280838360005b8381101561062e578082015181840152602081019050610613565b505050509050019250505060405180910390f35b34801561064e57600080fd5b50610683600480360381019080803573ffffffffffffffffffffffffffffffffffffffff1690602001909291905050506119d2565b005b34801561069157600080fd5b5061069a611a39565b6040518082815260200191505060405180910390f35b3480156106bc57600080fd5b506106c5611a3f565b604051808273ffffffffffffffffffffffffffffffffffffffff1673ffffffffffffffffffffffffffffffffffffffff16815260200191505060405180910390f35b6000600280549050905090565b600360003373ffffffffffffffffffffffffffffffffffffffff1673ffffffffffffffffffffffffffffffffffffffff16815260200190815260200160002060009054906101000a900460ff16151561076c57600080fd5b600460003373ffffffffffffffffffffffffffffffffffffffff1673ffffffffffffffffffffffffffffffffffffffff16815260200190815260200160002060009054906101000a900473ffffffffffffffffffffffffffffffffffffffff1673ffffffffffffffffffffffffffffffffffffffff166335d9db53826040518263ffffffff167c010000000000000000000000000000000000000000000000000000000002815260040180828152602001915050600060405180830381600087803b15801561083a57600080fd5b505af115801561084e573d6000803e3d6000fd5b5050505050565b60008060009054906101000a900473ffffffffffffffffffffffffffffffffffffffff1673ffffffffffffffffffffffffffffffffffffffff163373ffffffffffffffffffffffffffffffffffffffff161415156108b257600080fd5b600360008373ffffffffffffffffffffffffffffffffffffffff1673ffffffffffffffffffffffffffffffffffffffff16815260200190815260200160002060009054906101000a900460ff16151561090a57600080fd5b600090505b6002805490508161ffff1610156109a3578173ffffffffffffffffffffffffffffffffffffffff1660028261ffff1681548110151561094a57fe5b9060005260206000200160009054906101000a900473ffffffffffffffffffffffffffffffffffffffff1673ffffffffffffffffffffffffffffffffffffffff16141561099657610a0a565b808060010191505061090f565b60028290806001815401808255809150509060018203906000526020600020016000909192909190916101000a81548173ffffffffffffffffffffffffffffffffffffffff021916908373ffffffffffffffffffffffffffffffffffffffff160217905550505b5050565b600080600360008573ffffffffffffffffffffffffffffffffffffffff1673ffffffffffffffffffffffffffffffffffffffff16815260200190815260200160002060009054906101000a900460ff161515610a6d5760009150610cfd565b600460008573ffffffffffffffffffffffffffffffffffffffff1673ffffffffffffffffffffffffffffffffffffffff16815260200190815260200160002060009054906101000a900473ffffffffffffffffffffffffffffffffffffffff1690508073ffffffffffffffffffffffffffffffffffffffff16634752f9ef846040518263ffffffff167c010000000000000000000000000000000000000000000000000000000002815260040180828152602001915050602060405180830381600087803b158015610b3e57600080fd5b505af1158015610b52573d6000803e3d6000fd5b505050506040513d6020811015610b6857600080fd5b8101908080519060200190929190505050158015610c3157506005548173ffffffffffffffffffffffffffffffffffffffff1663ce325bf8856040518263ffffffff167c010000000000000000000000000000000000000000000000000000000002815260040180828152602001915050602060405180830381600087803b158015610bf357600080fd5b505af1158015610c07573d6000803e3d6000fd5b505050506040513d6020811015610c1d57600080fd5b810190808051906020019092919050505010155b8015610cfa575042610cf76006548373ffffffffffffffffffffffffffffffffffffffff1663536e922d876040518263ffffffff167c010000000000000000000000000000000000000000000000000000000002815260040180828152602001915050602060405180830381600087803b158015610cae57600080fd5b505af1158015610cc2573d6000803e3d6000fd5b505050506040513d6020811015610cd857600080fd5b8101908080519060200190929190505050611a6590919063ffffffff16565b10155b91505b5092915050565b606080600080600060606000600280549050604051908082528060200260200182016040528015610d445781602001602082028038833980820191505090505b50955060009450600093505b6002805490508461ffff161015610ef057610da860028561ffff16815481101515610d7757fe5b9060005260206000200160009054906101000a900473ffffffffffffffffffffffffffffffffffffffff1689610a0e565b15610ee35760028461ffff16815481101515610dc057fe5b9060005260206000200160009054906101000a900473ffffffffffffffffffffffffffffffffffffffff1692508273ffffffffffffffffffffffffffffffffffffffff16635e7afa7d6040518163ffffffff167c0100000000000000000000000000000000000000000000000000000000028152600401602060405180830381600087803b158015610e5157600080fd5b505af1158015610e65573d6000803e3d6000fd5b505050506040513d6020811015610e7b57600080fd5b8101908080519060200190929190505050868661ffff16815181101515610e9e57fe5b9060200190602002019073ffffffffffffffffffffffffffffffffffffffff16908173ffffffffffffffffffffffffffffffffffffffff168152505084806001019550505b8380600101945050610d50565b8461ffff16604051908082528060200260200182016040528015610f235781602001602082028038833980820191505090505b509150600090505b8461ffff168161ffff161015610fb257858161ffff16815181101515610f4d57fe5b90602001906020020151828261ffff16815181101515610f6957fe5b9060200190602002019073ffffffffffffffffffffffffffffffffffffffff16908173ffffffffffffffffffffffffffffffffffffffff16815250508080600101915050610f2b565b819650505050505050919050565b6000809054906101000a900473ffffffffffffffffffffffffffffffffffffffff1673ffffffffffffffffffffffffffffffffffffffff163373ffffffffffffffffffffffffffffffffffffffff1614151561101b57600080fd5b6000809054906101000a900473ffffffffffffffffffffffffffffffffffffffff1673ffffffffffffffffffffffffffffffffffffffff167ff8df31144d9c2f0f6b59d69b8b98abd5459d07f2742c4df920b25aae33c6482060405160405180910390a260008060006101000a81548173ffffffffffffffffffffffffffffffffffffffff021916908373ffffffffffffffffffffffffffffffffffffffff160217905550565b600360003373ffffffffffffffffffffffffffffffffffffffff1673ffffffffffffffffffffffffffffffffffffffff16815260200190815260200160002060009054906101000a900460ff16151561111a57600080fd5b600460003373ffffffffffffffffffffffffffffffffffffffff1673ffffffffffffffffffffffffffffffffffffffff16815260200190815260200160002060009054906101000a900473ffffffffffffffffffffffffffffffffffffffff1673ffffffffffffffffffffffffffffffffffffffff166387740c0d6040518163ffffffff167c0100000000000000000000000000000000000000000000000000000000028152600401600060405180830381600087803b1580156111dd57600080fd5b505af11580156111f1573d6000803e3d6000fd5b50505050565b6000809054906101000a900473ffffffffffffffffffffffffffffffffffffffff1681565b6000809054906101000a900473ffffffffffffffffffffffffffffffffffffffff1673ffffffffffffffffffffffffffffffffffffffff163373ffffffffffffffffffffffffffffffffffffffff1614151561127757600080fd5b600360008373ffffffffffffffffffffffffffffffffffffffff1673ffffffffffffffffffffffffffffffffffffffff16815260200190815260200160002060009054906101000a900460ff1615156112cf57600080fd5b600460008373ffffffffffffffffffffffffffffffffffffffff1673ffffffffffffffffffffffffffffffffffffffff16815260200190815260200160002060009054906101000a900473ffffffffffffffffffffffffffffffffffffffff1673ffffffffffffffffffffffffffffffffffffffff16631ec14a31826040518263ffffffff167c01000000000000000000000000000000000000000000000000000000000281526004018082151515158152602001915050600060405180830381600087803b1580156113a157600080fd5b505af11580156113b5573d6000803e3d6000fd5b505050505050565b600080600080600160009054906101000a900473ffffffffffffffffffffffffffffffffffffffff1630866113f0611b91565b808473ffffffffffffffffffffffffffffffffffffffff1673ffffffffffffffffffffffffffffffffffffffff1681526020018373ffffffffffffffffffffffffffffffffffffffff1673ffffffffffffffffffffffffffffffffffffffff1681526020018273ffffffffffffffffffffffffffffffffffffffff1673ffffffffffffffffffffffffffffffffffffffff1681526020019350505050604051809103906000f0801580156114a8573d6000803e3d6000fd5b5092503391508273ffffffffffffffffffffffffffffffffffffffff1663f2fde38b836040518263ffffffff167c0100000000000000000000000000000000000000000000000000000000028152600401808273ffffffffffffffffffffffffffffffffffffffff1673ffffffffffffffffffffffffffffffffffffffff168152602001915050600060405180830381600087803b15801561154957600080fd5b505af115801561155d573d6000803e3d6000fd5b5050505082905061156c611ba1565b604051809103906000f080158015611588573d6000803e3d6000fd5b50600460008373ffffffffffffffffffffffffffffffffffffffff1673ffffffffffffffffffffffffffffffffffffffff16815260200190815260200160002060006101000a81548173ffffffffffffffffffffffffffffffffffffffff021916908373ffffffffffffffffffffffffffffffffffffffff1602179055506001600360008373ffffffffffffffffffffffffffffffffffffffff1673ffffffffffffffffffffffffffffffffffffffff16815260200190815260200160002060006101000a81548160ff0219169083151502179055508173ffffffffffffffffffffffffffffffffffffffff168173ffffffffffffffffffffffffffffffffffffffff167f91a2062b5d99931cce4660685e1c239d69642eedbb9cef9679a393f064ec362660405160405180910390a3809350505050919050565b60036020528060005260406000206000915054906101000a900460ff1681565b6000809054906101000a900473ffffffffffffffffffffffffffffffffffffffff1673ffffffffffffffffffffffffffffffffffffffff163373ffffffffffffffffffffffffffffffffffffffff1614151561173e57600080fd5b8060068190555050565b60028181548110151561175757fe5b906000526020600020016000915054906101000a900473ffffffffffffffffffffffffffffffffffffffff1681565b60046020528060005260406000206000915054906101000a900473ffffffffffffffffffffffffffffffffffffffff1681565b60055481565b6000809054906101000a900473ffffffffffffffffffffffffffffffffffffffff1673ffffffffffffffffffffffffffffffffffffffff163373ffffffffffffffffffffffffffffffffffffffff1614151561181a57600080fd5b8060058190555050565b6060806060600080600080600061183a89610d04565b9650600a875111151561184f578697506119c6565b600a60405190808252806020026020018201604052801561187f5781602001602082028038833980820191505090505b50955086516118996103e88b611a8190919063ffffffff16565b8115156118a257fe5b069450600a850193506000925086518411156118c357865184039250865193505b8491505b838210156119405786828151811015156118dd57fe5b90602001906020020151868684038151811015156118f757fe5b9060200190602002019073ffffffffffffffffffffffffffffffffffffffff16908173ffffffffffffffffffffffffffffffffffffffff168152505081806001019250506118c7565b600090505b828110156119c257868181518110151561195b57fe5b9060200190602002015186600183600a030381518110151561197957fe5b9060200190602002019073ffffffffffffffffffffffffffffffffffffffff16908173ffffffffffffffffffffffffffffffffffffffff16815250508080600101915050611945565b8597505b50505050505050919050565b6000809054906101000a900473ffffffffffffffffffffffffffffffffffffffff1673ffffffffffffffffffffffffffffffffffffffff163373ffffffffffffffffffffffffffffffffffffffff16141515611a2d57600080fd5b611a3681611a97565b50565b60065481565b600160009054906101000a900473ffffffffffffffffffffffffffffffffffffffff1681565b60008183019050828110151515611a7857fe5b80905092915050565b60008183811515611a8e57fe5b04905092915050565b600073ffffffffffffffffffffffffffffffffffffffff168173ffffffffffffffffffffffffffffffffffffffff1614151515611ad357600080fd5b8073ffffffffffffffffffffffffffffffffffffffff166000809054906101000a900473ffffffffffffffffffffffffffffffffffffffff1673ffffffffffffffffffffffffffffffffffffffff167f8be0079c531659141344cd1fd0a4f28419497f9722a3daafe3b4186f6b6457e060405160405180910390a3806000806101000a81548173ffffffffffffffffffffffffffffffffffffffff021916908373ffffffffffffffffffffffffffffffffffffffff16021790555050565b60405161095f80611bb283390190565b604051610bee80612511833901905600608060405234801561001057600080fd5b5060405160608061095f833981018060405281019080805190602001909291908051906020019092919080519060200190929190505050336000806101000a81548173ffffffffffffffffffffffffffffffffffffffff021916908373ffffffffffffffffffffffffffffffffffffffff16021790555082600160006101000a81548173ffffffffffffffffffffffffffffffffffffffff021916908373ffffffffffffffffffffffffffffffffffffffff16021790555081600260006101000a81548173ffffffffffffffffffffffffffffffffffffffff021916908373ffffffffffffffffffffffffffffffffffffffff16021790555080600360006101000a81548173ffffffffffffffffffffffffffffffffffffffff021916908373ffffffffffffffffffffffffffffffffffffffff1602179055505050506108038061015c6000396000f30060806040526004361061008e576000357c0100000000000000000000000000000000000000000000000000000000900463ffffffff1680635aa6e675146100935780635e7afa7d146100ea578063715018a61461014157806387740c0d146101585780638da5cb5b1461016f578063f2fde38b146101c6578063f50ddb6714610209578063fc0c546a14610236575b600080fd5b34801561009f57600080fd5b506100a861028d565b604051808273ffffffffffffffffffffffffffffffffffffffff1673ffffffffffffffffffffffffffffffffffffffff16815260200191505060405180910390f35b3480156100f657600080fd5b506100ff6102b3565b604051808273ffffffffffffffffffffffffffffffffffffffff1673ffffffffffffffffffffffffffffffffffffffff16815260200191505060405180910390f35b34801561014d57600080fd5b506101566102d9565b005b34801561016457600080fd5b5061016d6103db565b005b34801561017b57600080fd5b5061018461047b565b604051808273ffffffffffffffffffffffffffffffffffffffff1673ffffffffffffffffffffffffffffffffffffffff16815260200191505060405180910390f35b3480156101d257600080fd5b50610207600480360381019080803573ffffffffffffffffffffffffffffffffffffffff1690602001909291905050506104a0565b005b34801561021557600080fd5b5061023460048036038101908080359060200190929190505050610507565b005b34801561024257600080fd5b5061024b6106b7565b604051808273ffffffffffffffffffffffffffffffffffffffff1673ffffffffffffffffffffffffffffffffffffffff16815260200191505060405180910390f35b600260009054906101000a900473ffffffffffffffffffffffffffffffffffffffff1681565b600360009054906101000a900473ffffffffffffffffffffffffffffffffffffffff1681565b6000809054906101000a900473ffffffffffffffffffffffffffffffffffffffff1673ffffffffffffffffffffffffffffffffffffffff163373ffffffffffffffffffffffffffffffffffffffff1614151561033457600080fd5b6000809054906101000a900473ffffffffffffffffffffffffffffffffffffffff1673ffffffffffffffffffffffffffffffffffffffff167ff8df31144d9c2f0f6b59d69b8b98abd5459d07f2742c4df920b25aae33c6482060405160405180910390a260008060006101000a81548173ffffffffffffffffffffffffffffffffffffffff021916908373ffffffffffffffffffffffffffffffffffffffff160217905550565b600260009054906101000a900473ffffffffffffffffffffffffffffffffffffffff1673ffffffffffffffffffffffffffffffffffffffff166387740c0d6040518163ffffffff167c0100000000000000000000000000000000000000000000000000000000028152600401600060405180830381600087803b15801561046157600080fd5b505af1158015610475573d6000803e3d6000fd5b50505050565b6000809054906101000a900473ffffffffffffffffffffffffffffffffffffffff1681565b6000809054906101000a900473ffffffffffffffffffffffffffffffffffffffff1673ffffffffffffffffffffffffffffffffffffffff163373ffffffffffffffffffffffffffffffffffffffff161415156104fb57600080fd5b610504816106dd565b50565b6000809054906101000a900473ffffffffffffffffffffffffffffffffffffffff1673ffffffffffffffffffffffffffffffffffffffff163373ffffffffffffffffffffffffffffffffffffffff1614151561056257600080fd5b600160009054906101000a900473ffffffffffffffffffffffffffffffffffffffff1673ffffffffffffffffffffffffffffffffffffffff1663f50ddb67826040518263ffffffff167c010000000000000000000000000000000000000000000000000000000002815260040180828152602001915050600060405180830381600087803b1580156105f357600080fd5b505af1158015610607573d6000803e3d6000fd5b50505050600260009054906101000a900473ffffffffffffffffffffffffffffffffffffffff1673ffffffffffffffffffffffffffffffffffffffff166335d9db53826040518263ffffffff167c010000000000000000000000000000000000000000000000000000000002815260040180828152602001915050600060405180830381600087803b15801561069c57600080fd5b505af11580156106b0573d6000803e3d6000fd5b5050505050565b600160009054906101000a900473ffffffffffffffffffffffffffffffffffffffff1681565b600073ffffffffffffffffffffffffffffffffffffffff168173ffffffffffffffffffffffffffffffffffffffff161415151561071957600080fd5b8073ffffffffffffffffffffffffffffffffffffffff166000809054906101000a900473ffffffffffffffffffffffffffffffffffffffff1673ffffffffffffffffffffffffffffffffffffffff167f8be0079c531659141344cd1fd0a4f28419497f9722a3daafe3b4186f6b6457e060405160405180910390a3806000806101000a81548173ffffffffffffffffffffffffffffffffffffffff021916908373ffffffffffffffffffffffffffffffffffffffff160217905550505600a165627a7a723058200dbd42ca914ba60e5635439af2bb257ac723720ca7f14c302db875ec87fcf7ff0029608060405234801561001057600080fd5b50610bce806100206000396000f300608060405260043610610078576000357c0100000000000000000000000000000000000000000000000000000000900463ffffffff1680631ec14a311461007d57806335d9db53146100ac5780634752f9ef146100d9578063536e922d1461011e57806387740c0d1461015f578063ce325bf814610176575b600080fd5b34801561008957600080fd5b506100aa6004803603810190808035151590602001909291905050506101b7565b005b3480156100b857600080fd5b506100d76004803603810190808035906020019092919050505061025b565b005b3480156100e557600080fd5b50610104600480360381019080803590602001909291905050506102fb565b604051808215151515815260200191505060405180910390f35b34801561012a57600080fd5b50610149600480360381019080803590602001909291905050506104cd565b6040518082815260200191505060405180910390f35b34801561016b57600080fd5b50610174610693565b005b34801561018257600080fd5b506101a160048036038101908080359060200190929190505050610732565b6040518082815260200191505060405180910390f35b600343826101c36108f8565b808381526020018215151515815260200192505050604051809103906000f0801580156101f4573d6000803e3d6000fd5b5090806001815401808255809150509060018203906000526020600020016000909192909190916101000a81548173ffffffffffffffffffffffffffffffffffffffff021916908373ffffffffffffffffffffffffffffffffffffffff1602179055505050565b60054382610267610908565b8083815260200182815260200192505050604051809103906000f080158015610294573d6000803e3d6000fd5b5090806001815401808255809150509060018203906000526020600020016000909192909190916101000a81548173ffffffffffffffffffffffffffffffffffffffff021916908373ffffffffffffffffffffffffffffffffffffffff1602179055505050565b600080600060016003805490500391505b60008260010b1215156104b45760038261ffff1681548110151561032c57fe5b9060005260206000200160009054906101000a900473ffffffffffffffffffffffffffffffffffffffff169050838173ffffffffffffffffffffffffffffffffffffffff16638ae63d6d6040518163ffffffff167c0100000000000000000000000000000000000000000000000000000000028152600401602060405180830381600087803b1580156103be57600080fd5b505af11580156103d2573d6000803e3d6000fd5b505050506040513d60208110156103e857600080fd5b81019080805190602001909291905050501115156104a6578073ffffffffffffffffffffffffffffffffffffffff16633fa4f2456040518163ffffffff167c0100000000000000000000000000000000000000000000000000000000028152600401602060405180830381600087803b15801561046457600080fd5b505af1158015610478573d6000803e3d6000fd5b505050506040513d602081101561048e57600080fd5b810190808051906020019092919050505092506104c6565b81806001900392505061030c565b6000809054906101000a900460ff1692505b5050919050565b600080600060016004805490500391505b60008260010b1215156106865760048261ffff168154811015156104fe57fe5b9060005260206000200160009054906101000a900473ffffffffffffffffffffffffffffffffffffffff169050838173ffffffffffffffffffffffffffffffffffffffff16638ae63d6d6040518163ffffffff167c0100000000000000000000000000000000000000000000000000000000028152600401602060405180830381600087803b15801561059057600080fd5b505af11580156105a4573d6000803e3d6000fd5b505050506040513d60208110156105ba57600080fd5b8101908080519060200190929190505050111515610678578073ffffffffffffffffffffffffffffffffffffffff16633fa4f2456040518163ffffffff167c0100000000000000000000000000000000000000000000000000000000028152600401602060405180830381600087803b15801561063657600080fd5b505af115801561064a573d6000803e3d6000fd5b505050506040513d602081101561066057600080fd5b8101908080519060200190929190505050925061068c565b8180600190039250506104de565b60025492505b5050919050565b6004434261069f610908565b8083815260200182815260200192505050604051809103906000f0801580156106cc573d6000803e3d6000fd5b5090806001815401808255809150509060018203906000526020600020016000909192909190916101000a81548173ffffffffffffffffffffffffffffffffffffffff021916908373ffffffffffffffffffffffffffffffffffffffff16021790555050565b600080600060016005805490500391505b60008260010b1215156108eb5760058261ffff1681548110151561076357fe5b9060005260206000200160009054906101000a900473ffffffffffffffffffffffffffffffffffffffff169050838173ffffffffffffffffffffffffffffffffffffffff16638ae63d6d6040518163ffffffff167c0100000000000000000000000000000000000000000000000000000000028152600401602060405180830381600087803b1580156107f557600080fd5b505af1158015610809573d6000803e3d6000fd5b505050506040513d602081101561081f57600080fd5b81019080805190602001909291905050501115156108dd578073ffffffffffffffffffffffffffffffffffffffff16633fa4f2456040518163ffffffff167c0100000000000000000000000000000000000000000000000000000000028152600401602060405180830381600087803b15801561089b57600080fd5b505af11580156108af573d6000803e3d6000fd5b505050506040513d60208110156108c557600080fd5b810190808051906020019092919050505092506108f1565b818060019003925050610743565b60015492505b5050919050565b6040516101578061091983390190565b60405161013380610a70833901905600608060405234801561001057600080fd5b50604051604080610157833981018060405281019080805190602001909291908051906020019092919050505081806000819055505080600160006101000a81548160ff021916908315150217905550505060e7806100706000396000f3006080604052600436106049576000357c0100000000000000000000000000000000000000000000000000000000900463ffffffff1680633fa4f24514604e5780638ae63d6d14607a575b600080fd5b348015605957600080fd5b50606060a2565b604051808215151515815260200191505060405180910390f35b348015608557600080fd5b50608c60b5565b6040518082815260200191505060405180910390f35b600160009054906101000a900460ff1681565b600054815600a165627a7a72305820c2984cd3498c43b1216ad821f1fd846457682d22469dfe070cbce430d400b9150029608060405234801561001057600080fd5b50604051604080610133833981018060405281019080805190602001909291908051906020019092919050505081806000819055505080600181905550505060d68061005d6000396000f3006080604052600436106049576000357c0100000000000000000000000000000000000000000000000000000000900463ffffffff1680633fa4f24514604e5780638ae63d6d146076575b600080fd5b348015605957600080fd5b506060609e565b6040518082815260200191505060405180910390f35b348015608157600080fd5b50608860a4565b6040518082815260200191505060405180910390f35b60015481565b600054815600a165627a7a72305820d98ae92bc83fde9abd44e0812d68a3acc466a532b747641a46f4992fda6194ed0029a165627a7a72305820c5a8f64ba5f6720e94acf54a56e3fefe4499158b22e94f328e2dc3e6f41c859b0029a165627a7a723058203801e6040aebb889aaea2f6a63d4a1f1b2475d456c73025a9ee85db1b321a4ef0029",
  "source": "pragma solidity ^0.4.24;\n\nimport \"openzeppelin-solidity/contracts/ownership/Ownable.sol\";\nimport \"openzeppelin-solidity/contracts/math/SafeMath.sol\";\nimport \"../token/AerumToken.sol\";\nimport \"./Delegate.sol\";\nimport \"./DelegateLog.sol\";\n\n/**\n * @title Ethereum-based governance contract\n */\ncontract Governance is Ownable {\n\n    using SafeMath for uint256;\n\n    event NewDelegate(address indexed delegate, address indexed owner);\n\n    /** AER ERC20 token **/\n    AerumToken public token;\n\n    /** List of registered delegates **/\n    address[] public delegates;\n\n    /** Mapping of delegates created by this contract  **/\n    mapping (address => bool) public ownedDelegates;\n\n    /** List of operations per each delegate **/\n    mapping (address => DelegateLog) public delegateLogs;\n\n    /** Minimum delegate balance necessary to participate in staking **/\n    uint256 public minBalance;\n  \n    /** Maximum duration between keep alive message and current time to consider delegate active **/\n    uint256 public keepAliveDuration;\n\n    /** Check if the sender is a valid delegate **/\n    modifier onlyDelegate {\n        require(ownedDelegates[msg.sender]);\n        _;\n    }\n\n    constructor(AerumToken _token) public {\n        token = _token;\n        minBalance = 100;\n        keepAliveDuration = 60 * 60 * 24; // 24h\n    }\n\n    /**\n    * @dev Set up minimum delegate balance necessary to participate in staking\n    */\n    function setMinBalance(uint256 balance) external onlyOwner {\n        minBalance = balance;\n    }\n\n    /**\n    * @dev Set up duration between keep alive message and current time to consider delegate active\n    */\n    function setKeepAliveDuration(uint256 duration) external onlyOwner {\n        keepAliveDuration = duration;\n    }\n\n    /**\n    * @dev Change delegate status in the blacklist\n    */\n    function updateBlacklist(address delegate, bool blocked) external onlyOwner {\n        require(ownedDelegates[delegate]);\n        delegateLogs[delegate].updateBlacklist(blocked);\n    }\n\n    /**\n    * @dev Create new delegate contract and transfer ownership to a caller\n    */\n    function createDelegate(address aerum) external returns (address) {\n        Delegate delegate = new Delegate(token, this, aerum);\n        address owner = msg.sender;\n        // transfer ownership to a caller\n        delegate.transferOwnership(owner);\n        address delegateAddress = address(delegate);\n        delegateLogs[delegateAddress] = new DelegateLog();\n        ownedDelegates[delegateAddress] = true;\n        emit NewDelegate(delegateAddress, owner);\n        return delegateAddress;\n    }\n\n    /**\n    * @dev Register specified delegate after successful voting\n    */\n    function register(address delegate) external onlyOwner {\n        require(ownedDelegates[delegate]);\n        for (uint16 i = 0; i < delegates.length; i++) {\n            if (delegates[i] == delegate) {\n                // delegate already registered\n                return;\n            }\n        }\n        delegates.push(delegate);\n    }\n\n    /**\n    * @dev Returns number of delegates\n    */\n    function getDelegateCount() public view returns(uint) {\n        return delegates.length;\n    }\n\n    /**\n    * @dev Update keep alive timestamp for a caller delegate\n    */\n    function keepAlive() external onlyDelegate {\n        delegateLogs[msg.sender].keepAlive();\n    }\n\n    /**\n    * @dev Set number of tokens staked by the caller delegate for coin distribution\n    */\n    function setStake(uint256 value) external onlyDelegate {\n        delegateLogs[msg.sender].setStake(value);\n    }\n\n    /**\n    * @dev List of composers for the specified block number\n    */\n    function getComposers(uint256 blockNum) external view returns(address[]) {\n        address[] memory candidates = getValidDelegates(blockNum);\n        if (candidates.length <= 10) {\n            return candidates;\n        }\n        address[] memory composers = new address[](10);\n        uint256 first = blockNum.div(1000) % candidates.length;\n        uint256 last = first + 10;\n        uint256 fromStart = 0;\n        if (last > candidates.length) {\n            fromStart = last - candidates.length;\n            last = candidates.length;\n        }\n        for (uint256 i = first; i < last; i++) {\n            composers[i - first] = candidates[i];\n        }\n        for (uint256 j = 0; j < fromStart; j++) {\n            composers[10 - j - 1] = candidates[j];\n        }\n        return composers;\n    }\n\n    /**\n    * @dev list of valid delegates which might be composers\n    */\n    function getValidDelegates(uint256 blockNum) public view returns(address[]) {\n        address[] memory array = new address[](delegates.length);\n        uint16 length = 0;\n        for (uint16 i = 0; i < delegates.length; i++) {\n            if (isValid(delegates[i], blockNum)) {\n                Delegate delegate = Delegate(delegates[i]);\n                array[length] = delegate.aerum();\n                length++;\n            }\n        }\n        address[] memory result = new address[](length);\n        for (uint16 j = 0; j < length; j++) {\n            result[j] = array[j];\n        }\n        return result;\n    }\n\n    /**\n    * @dev whether specified delegate can be a composer\n    */\n    function isValid(address delegate, uint256 blockNum) public view returns(bool) {\n        if (!ownedDelegates[delegate]) {\n            // Delegate not owned by this contract\n            return false;\n        }\n        DelegateLog log = delegateLogs[delegate];\n        // Delegate has not been blacklisted\n        return !log.isBlacklisted(blockNum) &&\n            // Delegate has enough minimal stake to participate in consensus\n            log.getStake(blockNum) >= minBalance &&\n            // Delegate has produced a keep-alive message in last 24h\n            log.getKeepAliveTimestamp(blockNum).add(keepAliveDuration) >= block.timestamp;\n    }\n\n}\n",
  "sourcePath": "/Users/MaVolod/Development/aerum/aerumnet/aer-token/contracts/staking/Governance.sol",
  "compiler": {
    "name": "solc",
    "version": "0.4.24+commit.e67f0147.Emscripten.clang"
  },
  "schemaVersion": "2.0.0",
  "updatedAt": "2018-08-02T13:24:59.361Z"
}