{
  "contractName": "PublicResolver",
  "abi": [
    {
      "inputs": [
        {
          "name": "ensAddr",
          "type": "address"
        }
      ],
      "payable": false,
      "stateMutability": "nonpayable",
      "type": "constructor"
    },
    {
      "anonymous": false,
      "inputs": [
        {
          "indexed": true,
          "name": "node",
          "type": "bytes32"
        },
        {
          "indexed": false,
          "name": "a",
          "type": "address"
        }
      ],
      "name": "AddrChanged",
      "type": "event"
    },
    {
      "anonymous": false,
      "inputs": [
        {
          "indexed": true,
          "name": "node",
          "type": "bytes32"
        },
        {
          "indexed": false,
          "name": "hash",
          "type": "bytes32"
        }
      ],
      "name": "ContentChanged",
      "type": "event"
    },
    {
      "anonymous": false,
      "inputs": [
        {
          "indexed": true,
          "name": "node",
          "type": "bytes32"
        },
        {
          "indexed": false,
          "name": "name",
          "type": "string"
        }
      ],
      "name": "NameChanged",
      "type": "event"
    },
    {
      "anonymous": false,
      "inputs": [
        {
          "indexed": true,
          "name": "node",
          "type": "bytes32"
        },
        {
          "indexed": true,
          "name": "contentType",
          "type": "uint256"
        }
      ],
      "name": "ABIChanged",
      "type": "event"
    },
    {
      "anonymous": false,
      "inputs": [
        {
          "indexed": true,
          "name": "node",
          "type": "bytes32"
        },
        {
          "indexed": false,
          "name": "x",
          "type": "bytes32"
        },
        {
          "indexed": false,
          "name": "y",
          "type": "bytes32"
        }
      ],
      "name": "PubkeyChanged",
      "type": "event"
    },
    {
      "anonymous": false,
      "inputs": [
        {
          "indexed": true,
          "name": "node",
          "type": "bytes32"
        },
        {
          "indexed": false,
          "name": "indexedKey",
          "type": "string"
        },
        {
          "indexed": false,
          "name": "key",
          "type": "string"
        }
      ],
      "name": "TextChanged",
      "type": "event"
    },
    {
      "constant": false,
      "inputs": [
        {
          "name": "node",
          "type": "bytes32"
        },
        {
          "name": "addr",
          "type": "address"
        }
      ],
      "name": "setAddr",
      "outputs": [],
      "payable": false,
      "stateMutability": "nonpayable",
      "type": "function"
    },
    {
      "constant": false,
      "inputs": [
        {
          "name": "node",
          "type": "bytes32"
        },
        {
          "name": "hash",
          "type": "bytes32"
        }
      ],
      "name": "setContent",
      "outputs": [],
      "payable": false,
      "stateMutability": "nonpayable",
      "type": "function"
    },
    {
      "constant": false,
      "inputs": [
        {
          "name": "node",
          "type": "bytes32"
        },
        {
          "name": "name",
          "type": "string"
        }
      ],
      "name": "setName",
      "outputs": [],
      "payable": false,
      "stateMutability": "nonpayable",
      "type": "function"
    },
    {
      "constant": false,
      "inputs": [
        {
          "name": "node",
          "type": "bytes32"
        },
        {
          "name": "contentType",
          "type": "uint256"
        },
        {
          "name": "data",
          "type": "bytes"
        }
      ],
      "name": "setABI",
      "outputs": [],
      "payable": false,
      "stateMutability": "nonpayable",
      "type": "function"
    },
    {
      "constant": false,
      "inputs": [
        {
          "name": "node",
          "type": "bytes32"
        },
        {
          "name": "x",
          "type": "bytes32"
        },
        {
          "name": "y",
          "type": "bytes32"
        }
      ],
      "name": "setPubkey",
      "outputs": [],
      "payable": false,
      "stateMutability": "nonpayable",
      "type": "function"
    },
    {
      "constant": false,
      "inputs": [
        {
          "name": "node",
          "type": "bytes32"
        },
        {
          "name": "key",
          "type": "string"
        },
        {
          "name": "value",
          "type": "string"
        }
      ],
      "name": "setText",
      "outputs": [],
      "payable": false,
      "stateMutability": "nonpayable",
      "type": "function"
    },
    {
      "constant": true,
      "inputs": [
        {
          "name": "node",
          "type": "bytes32"
        },
        {
          "name": "key",
          "type": "string"
        }
      ],
      "name": "text",
      "outputs": [
        {
          "name": "",
          "type": "string"
        }
      ],
      "payable": false,
      "stateMutability": "view",
      "type": "function"
    },
    {
      "constant": true,
      "inputs": [
        {
          "name": "node",
          "type": "bytes32"
        }
      ],
      "name": "pubkey",
      "outputs": [
        {
          "name": "x",
          "type": "bytes32"
        },
        {
          "name": "y",
          "type": "bytes32"
        }
      ],
      "payable": false,
      "stateMutability": "view",
      "type": "function"
    },
    {
      "constant": true,
      "inputs": [
        {
          "name": "node",
          "type": "bytes32"
        },
        {
          "name": "contentTypes",
          "type": "uint256"
        }
      ],
      "name": "ABI",
      "outputs": [
        {
          "name": "contentType",
          "type": "uint256"
        },
        {
          "name": "data",
          "type": "bytes"
        }
      ],
      "payable": false,
      "stateMutability": "view",
      "type": "function"
    },
    {
      "constant": true,
      "inputs": [
        {
          "name": "node",
          "type": "bytes32"
        }
      ],
      "name": "name",
      "outputs": [
        {
          "name": "",
          "type": "string"
        }
      ],
      "payable": false,
      "stateMutability": "view",
      "type": "function"
    },
    {
      "constant": true,
      "inputs": [
        {
          "name": "node",
          "type": "bytes32"
        }
      ],
      "name": "content",
      "outputs": [
        {
          "name": "",
          "type": "bytes32"
        }
      ],
      "payable": false,
      "stateMutability": "view",
      "type": "function"
    },
    {
      "constant": true,
      "inputs": [
        {
          "name": "node",
          "type": "bytes32"
        }
      ],
      "name": "addr",
      "outputs": [
        {
          "name": "",
          "type": "address"
        }
      ],
      "payable": false,
      "stateMutability": "view",
      "type": "function"
    },
    {
      "constant": true,
      "inputs": [
        {
          "name": "interfaceID",
          "type": "bytes4"
        }
      ],
      "name": "supportsInterface",
      "outputs": [
        {
          "name": "",
          "type": "bool"
        }
      ],
      "payable": false,
      "stateMutability": "pure",
      "type": "function"
    }
  ],
  "bytecode": "0x6060604052341561000f57600080fd5b6040516020806119f583398101604052808051906020019091905050806000806101000a81548173ffffffffffffffffffffffffffffffffffffffff021916908373ffffffffffffffffffffffffffffffffffffffff1602179055505061197a8061007b6000396000f3006060604052600436106100c5576000357c0100000000000000000000000000000000000000000000000000000000900463ffffffff16806301ffc9a7146100ca57806310f13a8c146101245780632203ab56146101d157806329cd62ea146102815780632dff6941146102c25780633b3b57de1461030557806359d1d43c1461036c578063623195b01461044f578063691f3431146104c25780637737221314610562578063c3d014d6146105cc578063c869023314610600578063d5fa2b0014610652575b600080fd5b34156100d557600080fd5b61010a60048080357bffffffffffffffffffffffffffffffffffffffffffffffffffffffff1916906020019091905050610698565b604051808215151515815260200191505060405180910390f35b341561012f57600080fd5b6101cf60048080356000191690602001909190803590602001908201803590602001908080601f0160208091040260200160405190810160405280939291908181526020018383808284378201915050505050509190803590602001908201803590602001908080601f01602080910402602001604051908101604052809392919081815260200183838082843782019150505050505091905050610987565b005b34156101dc57600080fd5b6101ff600480803560001916906020019091908035906020019091905050610c1f565b6040518083815260200180602001828103825283818151815260200191508051906020019080838360005b8381101561024557808201518184015260208101905061022a565b50505050905090810190601f1680156102725780820380516001836020036101000a031916815260200191505b50935050505060405180910390f35b341561028c57600080fd5b6102c06004808035600019169060200190919080356000191690602001909190803560001916906020019091905050610d68565b005b34156102cd57600080fd5b6102e7600480803560001916906020019091905050610f08565b60405180826000191660001916815260200191505060405180910390f35b341561031057600080fd5b61032a600480803560001916906020019091905050610f30565b604051808273ffffffffffffffffffffffffffffffffffffffff1673ffffffffffffffffffffffffffffffffffffffff16815260200191505060405180910390f35b341561037757600080fd5b6103d460048080356000191690602001909190803590602001908201803590602001908080601f01602080910402602001604051908101604052809392919081815260200183838082843782019150505050505091905050610f78565b6040518080602001828103825283818151815260200191508051906020019080838360005b838110156104145780820151818401526020810190506103f9565b50505050905090810190601f1680156104415780820380516001836020036101000a031916815260200191505b509250505060405180910390f35b341561045a57600080fd5b6104c060048080356000191690602001909190803590602001909190803590602001908201803590602001908080601f016020809104026020016040519081016040528093929190818152602001838380828437820191505050505050919050506110a8565b005b34156104cd57600080fd5b6104e7600480803560001916906020019091905050611220565b6040518080602001828103825283818151815260200191508051906020019080838360005b8381101561052757808201518184015260208101905061050c565b50505050905090810190601f1680156105545780820380516001836020036101000a031916815260200191505b509250505060405180910390f35b341561056d57600080fd5b6105ca60048080356000191690602001909190803590602001908201803590602001908080601f016020809104026020016040519081016040528093929190818152602001838380828437820191505050505050919050506112e6565b005b34156105d757600080fd5b6105fe600480803560001916906020019091908035600019169060200190919050506114a7565b005b341561060b57600080fd5b6106256004808035600019169060200190919050506115ff565b60405180836000191660001916815260200182600019166000191681526020019250505060405180910390f35b341561065d57600080fd5b61069660048080356000191690602001909190803573ffffffffffffffffffffffffffffffffffffffff1690602001909190505061164f565b005b6000633b3b57de7c0100000000000000000000000000000000000000000000000000000000027bffffffffffffffffffffffffffffffffffffffffffffffffffffffff1916827bffffffffffffffffffffffffffffffffffffffffffffffffffffffff19161480610769575063d8389dc57c0100000000000000000000000000000000000000000000000000000000027bffffffffffffffffffffffffffffffffffffffffffffffffffffffff1916827bffffffffffffffffffffffffffffffffffffffffffffffffffffffff1916145b806107d4575063691f34317c0100000000000000000000000000000000000000000000000000000000027bffffffffffffffffffffffffffffffffffffffffffffffffffffffff1916827bffffffffffffffffffffffffffffffffffffffffffffffffffffffff1916145b8061083f5750632203ab567c0100000000000000000000000000000000000000000000000000000000027bffffffffffffffffffffffffffffffffffffffffffffffffffffffff1916827bffffffffffffffffffffffffffffffffffffffffffffffffffffffff1916145b806108aa575063c86902337c0100000000000000000000000000000000000000000000000000000000027bffffffffffffffffffffffffffffffffffffffffffffffffffffffff1916827bffffffffffffffffffffffffffffffffffffffffffffffffffffffff1916145b8061091557506359d1d43c7c0100000000000000000000000000000000000000000000000000000000027bffffffffffffffffffffffffffffffffffffffffffffffffffffffff1916827bffffffffffffffffffffffffffffffffffffffffffffffffffffffff1916145b8061098057506301ffc9a77c0100000000000000000000000000000000000000000000000000000000027bffffffffffffffffffffffffffffffffffffffffffffffffffffffff1916827bffffffffffffffffffffffffffffffffffffffffffffffffffffffff1916145b9050919050565b823373ffffffffffffffffffffffffffffffffffffffff166000809054906101000a900473ffffffffffffffffffffffffffffffffffffffff1673ffffffffffffffffffffffffffffffffffffffff166302571be3836040518263ffffffff167c0100000000000000000000000000000000000000000000000000000000028152600401808260001916600019168152602001915050602060405180830381600087803b1515610a3657600080fd5b5af11515610a4357600080fd5b5050506040518051905073ffffffffffffffffffffffffffffffffffffffff16141515610a6f57600080fd5b81600160008660001916600019168152602001908152602001600020600501846040518082805190602001908083835b602083101515610ac45780518252602082019150602081019050602083039250610a9f565b6001836020036101000a03801982511681845116808217855250505050505090500191505090815260200160405180910390209080519060200190610b0a929190611801565b5083600019167fd8c9334b1a9c2f9da342a0a2b32629c1a229b6445dad78947f674b44444a75508485604051808060200180602001838103835285818151815260200191508051906020019080838360005b83811015610b77578082015181840152602081019050610b5c565b50505050905090810190601f168015610ba45780820380516001836020036101000a031916815260200191505b50838103825284818151815260200191508051906020019080838360005b83811015610bdd578082015181840152602081019050610bc2565b50505050905090810190601f168015610c0a5780820380516001836020036101000a031916815260200191505b5094505050505060405180910390a250505050565b6000610c29611881565b60006001600086600019166000191681526020019081526020016000209050600192505b8383111515610d5b57600084841614158015610c9257506000816006016000858152602001908152602001600020805460018160011615610100020316600290049050115b15610d4c578060060160008481526020019081526020016000208054600181600116156101000203166002900480601f016020809104026020016040519081016040528092919081815260200182805460018160011615610100020316600290048015610d405780601f10610d1557610100808354040283529160200191610d40565b820191906000526020600020905b815481529060010190602001808311610d2357829003601f168201915b50505050509150610d60565b6001839060020a029250610c4d565b600092505b509250929050565b823373ffffffffffffffffffffffffffffffffffffffff166000809054906101000a900473ffffffffffffffffffffffffffffffffffffffff1673ffffffffffffffffffffffffffffffffffffffff166302571be3836040518263ffffffff167c0100000000000000000000000000000000000000000000000000000000028152600401808260001916600019168152602001915050602060405180830381600087803b1515610e1757600080fd5b5af11515610e2457600080fd5b5050506040518051905073ffffffffffffffffffffffffffffffffffffffff16141515610e5057600080fd5b6040805190810160405280846000191681526020018360001916815250600160008660001916600019168152602001908152602001600020600301600082015181600001906000191690556020820151816001019060001916905590505083600019167f1d6f5e03d3f63eb58751986629a5439baee5079ff04f345becb66e23eb154e46848460405180836000191660001916815260200182600019166000191681526020019250505060405180910390a250505050565b6000600160008360001916600019168152602001908152602001600020600101549050919050565b600060016000836000191660001916815260200190815260200160002060000160009054906101000a900473ffffffffffffffffffffffffffffffffffffffff169050919050565b610f80611895565b600160008460001916600019168152602001908152602001600020600501826040518082805190602001908083835b602083101515610fd45780518252602082019150602081019050602083039250610faf565b6001836020036101000a03801982511681845116808217855250505050505090500191505090815260200160405180910390208054600181600116156101000203166002900480601f01602080910402602001604051908101604052809291908181526020018280546001816001161561010002031660029004801561109b5780601f106110705761010080835404028352916020019161109b565b820191906000526020600020905b81548152906001019060200180831161107e57829003601f168201915b5050505050905092915050565b823373ffffffffffffffffffffffffffffffffffffffff166000809054906101000a900473ffffffffffffffffffffffffffffffffffffffff1673ffffffffffffffffffffffffffffffffffffffff166302571be3836040518263ffffffff167c0100000000000000000000000000000000000000000000000000000000028152600401808260001916600019168152602001915050602060405180830381600087803b151561115757600080fd5b5af1151561116457600080fd5b5050506040518051905073ffffffffffffffffffffffffffffffffffffffff1614151561119057600080fd5b60008360018503161415156111a457600080fd5b81600160008660001916600019168152602001908152602001600020600601600085815260200190815260200160002090805190602001906111e79291906118a9565b508284600019167faa121bbeef5f32f5961a2a28966e769023910fc9479059ee3495d4c1a696efe360405160405180910390a350505050565b611228611895565b6001600083600019166000191681526020019081526020016000206002018054600181600116156101000203166002900480601f0160208091040260200160405190810160405280929190818152602001828054600181600116156101000203166002900480156112da5780601f106112af576101008083540402835291602001916112da565b820191906000526020600020905b8154815290600101906020018083116112bd57829003601f168201915b50505050509050919050565b813373ffffffffffffffffffffffffffffffffffffffff166000809054906101000a900473ffffffffffffffffffffffffffffffffffffffff1673ffffffffffffffffffffffffffffffffffffffff166302571be3836040518263ffffffff167c0100000000000000000000000000000000000000000000000000000000028152600401808260001916600019168152602001915050602060405180830381600087803b151561139557600080fd5b5af115156113a257600080fd5b5050506040518051905073ffffffffffffffffffffffffffffffffffffffff161415156113ce57600080fd5b816001600085600019166000191681526020019081526020016000206002019080519060200190611400929190611801565b5082600019167fb7d29e911041e8d9b843369e890bcb72c9388692ba48b65ac54e7214c4c348f7836040518080602001828103825283818151815260200191508051906020019080838360005b8381101561146857808201518184015260208101905061144d565b50505050905090810190601f1680156114955780820380516001836020036101000a031916815260200191505b509250505060405180910390a2505050565b813373ffffffffffffffffffffffffffffffffffffffff166000809054906101000a900473ffffffffffffffffffffffffffffffffffffffff1673ffffffffffffffffffffffffffffffffffffffff166302571be3836040518263ffffffff167c0100000000000000000000000000000000000000000000000000000000028152600401808260001916600019168152602001915050602060405180830381600087803b151561155657600080fd5b5af1151561156357600080fd5b5050506040518051905073ffffffffffffffffffffffffffffffffffffffff1614151561158f57600080fd5b81600160008560001916600019168152602001908152602001600020600101816000191690555082600019167f0424b6fe0d9c3bdbece0e7879dc241bb0c22e900be8b6c168b4ee08bd9bf83bc8360405180826000191660001916815260200191505060405180910390a2505050565b600080600160008460001916600019168152602001908152602001600020600301600001546001600085600019166000191681526020019081526020016000206003016001015491509150915091565b813373ffffffffffffffffffffffffffffffffffffffff166000809054906101000a900473ffffffffffffffffffffffffffffffffffffffff1673ffffffffffffffffffffffffffffffffffffffff166302571be3836040518263ffffffff167c0100000000000000000000000000000000000000000000000000000000028152600401808260001916600019168152602001915050602060405180830381600087803b15156116fe57600080fd5b5af1151561170b57600080fd5b5050506040518051905073ffffffffffffffffffffffffffffffffffffffff1614151561173757600080fd5b8160016000856000191660001916815260200190815260200160002060000160006101000a81548173ffffffffffffffffffffffffffffffffffffffff021916908373ffffffffffffffffffffffffffffffffffffffff16021790555082600019167f52d7d861f09ab3d26239d492e8968629f95e9e318cf0b73bfddc441522a15fd283604051808273ffffffffffffffffffffffffffffffffffffffff1673ffffffffffffffffffffffffffffffffffffffff16815260200191505060405180910390a2505050565b828054600181600116156101000203166002900490600052602060002090601f016020900481019282601f1061184257805160ff1916838001178555611870565b82800160010185558215611870579182015b8281111561186f578251825591602001919060010190611854565b5b50905061187d9190611929565b5090565b602060405190810160405280600081525090565b602060405190810160405280600081525090565b828054600181600116156101000203166002900490600052602060002090601f016020900481019282601f106118ea57805160ff1916838001178555611918565b82800160010185558215611918579182015b828111156119175782518255916020019190600101906118fc565b5b5090506119259190611929565b5090565b61194b91905b8082111561194757600081600090555060010161192f565b5090565b905600a165627a7a7230582060ec9fcd463970c1ae61ba8b3fa6ad7fe1c89f69ed85ddad751feb33b3d22e730029",
  "source": "pragma solidity ^0.4.18;\r\n\r\nimport './ENS.sol';\r\n\r\n/**\r\n * A simple resolver anyone can use; only allows the owner of a node to set its\r\n * address.\r\n */\r\ncontract PublicResolver {\r\n\r\n    bytes4 constant INTERFACE_META_ID = 0x01ffc9a7;\r\n    bytes4 constant ADDR_INTERFACE_ID = 0x3b3b57de;\r\n    bytes4 constant CONTENT_INTERFACE_ID = 0xd8389dc5;\r\n    bytes4 constant NAME_INTERFACE_ID = 0x691f3431;\r\n    bytes4 constant ABI_INTERFACE_ID = 0x2203ab56;\r\n    bytes4 constant PUBKEY_INTERFACE_ID = 0xc8690233;\r\n    bytes4 constant TEXT_INTERFACE_ID = 0x59d1d43c;\r\n\r\n    event AddrChanged(bytes32 indexed node, address a);\r\n    event ContentChanged(bytes32 indexed node, bytes32 hash);\r\n    event NameChanged(bytes32 indexed node, string name);\r\n    event ABIChanged(bytes32 indexed node, uint256 indexed contentType);\r\n    event PubkeyChanged(bytes32 indexed node, bytes32 x, bytes32 y);\r\n    event TextChanged(bytes32 indexed node, string indexedKey, string key);\r\n\r\n    struct PublicKey {\r\n        bytes32 x;\r\n        bytes32 y;\r\n    }\r\n\r\n    struct Record {\r\n        address addr;\r\n        bytes32 content;\r\n        string name;\r\n        PublicKey pubkey;\r\n        mapping(string=>string) text;\r\n        mapping(uint256=>bytes) abis;\r\n    }\r\n\r\n    ENS ens;\r\n\r\n    mapping (bytes32 => Record) records;\r\n\r\n    modifier only_owner(bytes32 node) {\r\n        require(ens.owner(node) == msg.sender);\r\n        _;\r\n    }\r\n\r\n    /**\r\n     * Constructor.\r\n     * @param ensAddr The ENS registrar contract.\r\n     */\r\n    function PublicResolver(ENS ensAddr) public {\r\n        ens = ensAddr;\r\n    }\r\n\r\n    /**\r\n     * Sets the address associated with an ENS node.\r\n     * May only be called by the owner of that node in the ENS registry.\r\n     * @param node The node to update.\r\n     * @param addr The address to set.\r\n     */\r\n    function setAddr(bytes32 node, address addr) public only_owner(node) {\r\n        records[node].addr = addr;\r\n        emit AddrChanged(node, addr);\r\n    }\r\n\r\n    /**\r\n     * Sets the content hash associated with an ENS node.\r\n     * May only be called by the owner of that node in the ENS registry.\r\n     * Note that this resource type is not standardized, and will likely change\r\n     * in future to a resource type based on multihash.\r\n     * @param node The node to update.\r\n     * @param hash The content hash to set\r\n     */\r\n    function setContent(bytes32 node, bytes32 hash) public only_owner(node) {\r\n        records[node].content = hash;\r\n        emit ContentChanged(node, hash);\r\n    }\r\n    \r\n    /**\r\n     * Sets the name associated with an ENS node, for reverse records.\r\n     * May only be called by the owner of that node in the ENS registry.\r\n     * @param node The node to update.\r\n     * @param name The name to set.\r\n     */\r\n    function setName(bytes32 node, string name) public only_owner(node) {\r\n        records[node].name = name;\r\n        emit NameChanged(node, name);\r\n    }\r\n\r\n    /**\r\n     * Sets the ABI associated with an ENS node.\r\n     * Nodes may have one ABI of each content type. To remove an ABI, set it to\r\n     * the empty string.\r\n     * @param node The node to update.\r\n     * @param contentType The content type of the ABI\r\n     * @param data The ABI data.\r\n     */\r\n    function setABI(bytes32 node, uint256 contentType, bytes data) public only_owner(node) {\r\n        // Content types must be powers of 2\r\n        require(((contentType - 1) & contentType) == 0);\r\n        \r\n        records[node].abis[contentType] = data;\r\n        emit ABIChanged(node, contentType);\r\n    }\r\n    \r\n    /**\r\n     * Sets the SECP256k1 public key associated with an ENS node.\r\n     * @param node The ENS node to query\r\n     * @param x the X coordinate of the curve point for the public key.\r\n     * @param y the Y coordinate of the curve point for the public key.\r\n     */\r\n    function setPubkey(bytes32 node, bytes32 x, bytes32 y) public only_owner(node) {\r\n        records[node].pubkey = PublicKey(x, y);\r\n        emit PubkeyChanged(node, x, y);\r\n    }\r\n\r\n    /**\r\n     * Sets the text data associated with an ENS node and key.\r\n     * May only be called by the owner of that node in the ENS registry.\r\n     * @param node The node to update.\r\n     * @param key The key to set.\r\n     * @param value The text data value to set.\r\n     */\r\n    function setText(bytes32 node, string key, string value) public only_owner(node) {\r\n        records[node].text[key] = value;\r\n        emit TextChanged(node, key, key);\r\n    }\r\n\r\n    /**\r\n     * Returns the text data associated with an ENS node and key.\r\n     * @param node The ENS node to query.\r\n     * @param key The text data key to query.\r\n     * @return The associated text data.\r\n     */\r\n    function text(bytes32 node, string key) public view returns (string) {\r\n        return records[node].text[key];\r\n    }\r\n\r\n    /**\r\n     * Returns the SECP256k1 public key associated with an ENS node.\r\n     * Defined in EIP 619.\r\n     * @param node The ENS node to query\r\n     * @return x, y the X and Y coordinates of the curve point for the public key.\r\n     */\r\n    function pubkey(bytes32 node) public view returns (bytes32 x, bytes32 y) {\r\n        return (records[node].pubkey.x, records[node].pubkey.y);\r\n    }\r\n\r\n    /**\r\n     * Returns the ABI associated with an ENS node.\r\n     * Defined in EIP205.\r\n     * @param node The ENS node to query\r\n     * @param contentTypes A bitwise OR of the ABI formats accepted by the caller.\r\n     * @return contentType The content type of the return value\r\n     * @return data The ABI data\r\n     */\r\n    function ABI(bytes32 node, uint256 contentTypes) public view returns (uint256 contentType, bytes data) {\r\n        Record storage record = records[node];\r\n        for (contentType = 1; contentType <= contentTypes; contentType <<= 1) {\r\n            if ((contentType & contentTypes) != 0 && record.abis[contentType].length > 0) {\r\n                data = record.abis[contentType];\r\n                return;\r\n            }\r\n        }\r\n        contentType = 0;\r\n    }\r\n\r\n    /**\r\n     * Returns the name associated with an ENS node, for reverse records.\r\n     * Defined in EIP181.\r\n     * @param node The ENS node to query.\r\n     * @return The associated name.\r\n     */\r\n    function name(bytes32 node) public view returns (string) {\r\n        return records[node].name;\r\n    }\r\n\r\n    /**\r\n     * Returns the content hash associated with an ENS node.\r\n     * Note that this resource type is not standardized, and will likely change\r\n     * in future to a resource type based on multihash.\r\n     * @param node The ENS node to query.\r\n     * @return The associated content hash.\r\n     */\r\n    function content(bytes32 node) public view returns (bytes32) {\r\n        return records[node].content;\r\n    }\r\n\r\n    /**\r\n     * Returns the address associated with an ENS node.\r\n     * @param node The ENS node to query.\r\n     * @return The associated address.\r\n     */\r\n    function addr(bytes32 node) public view returns (address) {\r\n        return records[node].addr;\r\n    }\r\n\r\n    /**\r\n     * Returns true if the resolver implements the interface specified by the provided hash.\r\n     * @param interfaceID The ID of the interface to check for.\r\n     * @return True if the contract implements the requested interface.\r\n     */\r\n    function supportsInterface(bytes4 interfaceID) public pure returns (bool) {\r\n        return interfaceID == ADDR_INTERFACE_ID ||\r\n        interfaceID == CONTENT_INTERFACE_ID ||\r\n        interfaceID == NAME_INTERFACE_ID ||\r\n        interfaceID == ABI_INTERFACE_ID ||\r\n        interfaceID == PUBKEY_INTERFACE_ID ||\r\n        interfaceID == TEXT_INTERFACE_ID ||\r\n        interfaceID == INTERFACE_META_ID;\r\n    }\r\n}\r\n",
  "sourcePath": "C:\\Projects\\Aerum\\aerumnet\\solidity-aerum-network\\contracts\\aens\\PublicResolver.sol",
  "compiler": {
    "name": "solc",
    "version": "0.4.21+commit.dfe3193c.Emscripten.clang"
  },
  "schemaVersion": "2.0.0",
  "updatedAt": "2018-05-07T22:43:05.129Z"
}