{
  "contractName": "SwapTemplateRegistry",
  "abi": [
    {
      "constant": true,
      "inputs": [],
      "name": "admin",
      "outputs": [
        {
          "name": "",
          "type": "address"
        }
      ],
      "payable": false,
      "stateMutability": "view",
      "type": "function"
    },
    {
      "inputs": [],
      "payable": false,
      "stateMutability": "nonpayable",
      "type": "constructor"
    },
    {
      "anonymous": false,
      "inputs": [
        {
          "indexed": false,
          "name": "_id",
          "type": "bytes32"
        }
      ],
      "name": "Register",
      "type": "event"
    },
    {
      "anonymous": false,
      "inputs": [
        {
          "indexed": false,
          "name": "_id",
          "type": "bytes32"
        }
      ],
      "name": "Remove",
      "type": "event"
    },
    {
      "constant": false,
      "inputs": [
        {
          "name": "_id",
          "type": "bytes32"
        },
        {
          "name": "_onchainAsset",
          "type": "string"
        },
        {
          "name": "_onchainAccount",
          "type": "string"
        },
        {
          "name": "_offchainAsset",
          "type": "string"
        },
        {
          "name": "_offchainAccount",
          "type": "string"
        },
        {
          "name": "_rate",
          "type": "uint256"
        },
        {
          "name": "_chain",
          "type": "uint8"
        }
      ],
      "name": "register",
      "outputs": [],
      "payable": false,
      "stateMutability": "nonpayable",
      "type": "function"
    },
    {
      "constant": false,
      "inputs": [
        {
          "name": "_id",
          "type": "bytes32"
        }
      ],
      "name": "remove",
      "outputs": [],
      "payable": false,
      "stateMutability": "nonpayable",
      "type": "function"
    },
    {
      "constant": true,
      "inputs": [
        {
          "name": "_id",
          "type": "bytes32"
        }
      ],
      "name": "templateById",
      "outputs": [
        {
          "name": "",
          "type": "bytes32"
        },
        {
          "name": "",
          "type": "address"
        },
        {
          "name": "",
          "type": "string"
        },
        {
          "name": "",
          "type": "string"
        },
        {
          "name": "",
          "type": "string"
        },
        {
          "name": "",
          "type": "string"
        },
        {
          "name": "",
          "type": "uint256"
        },
        {
          "name": "",
          "type": "uint8"
        }
      ],
      "payable": false,
      "stateMutability": "view",
      "type": "function"
    },
    {
      "constant": true,
      "inputs": [
        {
          "name": "_chain",
          "type": "uint8"
        }
      ],
      "name": "templatesIds",
      "outputs": [
        {
          "name": "",
          "type": "bytes32[]"
        }
      ],
      "payable": false,
      "stateMutability": "view",
      "type": "function"
    },
    {
      "constant": true,
      "inputs": [
        {
          "name": "_asset",
          "type": "string"
        },
        {
          "name": "_chain",
          "type": "uint8"
        }
      ],
      "name": "templatesIdsByAsset",
      "outputs": [
        {
          "name": "",
          "type": "bytes32[]"
        }
      ],
      "payable": false,
      "stateMutability": "view",
      "type": "function"
    }
  ],
  "bytecode": "0x608060405234801561001057600080fd5b50336000806101000a81548173ffffffffffffffffffffffffffffffffffffffff021916908373ffffffffffffffffffffffffffffffffffffffff160217905550611638806100606000396000f300608060405260043610610078576000357c0100000000000000000000000000000000000000000000000000000000900463ffffffff1680631516521e1461007d57806368cb7305146102c957806395bc267314610371578063c33f1341146103a2578063ce07ca8d1461043f578063f851a440146104c4575b600080fd5b34801561008957600080fd5b506100ac600480360381019080803560001916906020019092919050505061051b565b6040518089600019166000191681526020018873ffffffffffffffffffffffffffffffffffffffff1673ffffffffffffffffffffffffffffffffffffffff1681526020018060200180602001806020018060200187815260200186600181111561011257fe5b60ff16815260200185810385528b818151815260200191508051906020019080838360005b83811015610152578082015181840152602081019050610137565b50505050905090810190601f16801561017f5780820380516001836020036101000a031916815260200191505b5085810384528a818151815260200191508051906020019080838360005b838110156101b857808201518184015260208101905061019d565b50505050905090810190601f1680156101e55780820380516001836020036101000a031916815260200191505b50858103835289818151815260200191508051906020019080838360005b8381101561021e578082015181840152602081019050610203565b50505050905090810190601f16801561024b5780820380516001836020036101000a031916815260200191505b50858103825288818151815260200191508051906020019080838360005b83811015610284578082015181840152602081019050610269565b50505050905090810190601f1680156102b15780820380516001836020036101000a031916815260200191505b509c5050505050505050505050505060405180910390f35b3480156102d557600080fd5b5061036f600480360381019080803560001916906020019092919080359060200190820180359060200191909192939192939080359060200190820180359060200191909192939192939080359060200190820180359060200191909192939192939080359060200190820180359060200191909192939192939080359060200190929190803560ff16906020019092919050505061081f565b005b34801561037d57600080fd5b506103a06004803603810190808035600019169060200190929190505050610b5f565b005b3480156103ae57600080fd5b506103e8600480360381019080803590602001908201803590602001919091929391929390803560ff169060200190929190505050610d03565b6040518080602001828103825283818151815260200191508051906020019060200280838360005b8381101561042b578082015181840152602081019050610410565b505050509050019250505060405180910390f35b34801561044b57600080fd5b5061046d600480360381019080803560ff169060200190929190505050610f70565b6040518080602001828103825283818151815260200191508051906020019060200280838360005b838110156104b0578082015181840152602081019050610495565b505050509050019250505060405180910390f35b3480156104d057600080fd5b506104d96110c8565b604051808273ffffffffffffffffffffffffffffffffffffffff1673ffffffffffffffffffffffffffffffffffffffff16815260200191505060405180910390f35b6000806060806060806000806000600260008b600019166000191681526020019081526020016000209050898160000160009054906101000a900473ffffffffffffffffffffffffffffffffffffffff168260010183600201846003018560040186600501548760060160019054906101000a900460ff16858054600181600116156101000203166002900480601f0160208091040260200160405190810160405280929190818152602001828054600181600116156101000203166002900480156106285780601f106105fd57610100808354040283529160200191610628565b820191906000526020600020905b81548152906001019060200180831161060b57829003601f168201915b50505050509550848054600181600116156101000203166002900480601f0160208091040260200160405190810160405280929190818152602001828054600181600116156101000203166002900480156106c45780601f10610699576101008083540402835291602001916106c4565b820191906000526020600020905b8154815290600101906020018083116106a757829003601f168201915b50505050509450838054600181600116156101000203166002900480601f0160208091040260200160405190810160405280929190818152602001828054600181600116156101000203166002900480156107605780601f1061073557610100808354040283529160200191610760565b820191906000526020600020905b81548152906001019060200180831161074357829003601f168201915b50505050509350828054600181600116156101000203166002900480601f0160208091040260200160405190810160405280929190818152602001828054600181600116156101000203166002900480156107fc5780601f106107d1576101008083540402835291602001916107fc565b820191906000526020600020905b8154815290600101906020018083116107df57829003601f168201915b505050505092509850985098509850985098509850985050919395975091939597565b6108276114f5565b8b6000600181111561083557fe5b60026000836000191660001916815260200190815260200160002060060160009054906101000a900460ff16600181111561086c57fe5b14151561087857600080fd5b610100604051908101604052803373ffffffffffffffffffffffffffffffffffffffff1681526020018d8d8080601f01602080910402602001604051908101604052809392919081815260200183838082843782019150505050505081526020018b8b8080601f016020809104026020016040519081016040528093929190818152602001838380828437820191505050505050815260200189898080601f016020809104026020016040519081016040528093929190818152602001838380828437820191505050505050815260200187878080601f016020809104026020016040519081016040528093929190818152602001838380828437820191505050505050815260200185815260200160018081111561099357fe5b81526020018460018111156109a457fe5b815250915081600260008f6000191660001916815260200190815260200160002060008201518160000160006101000a81548173ffffffffffffffffffffffffffffffffffffffff021916908373ffffffffffffffffffffffffffffffffffffffff1602179055506020820151816001019080519060200190610a28929190611567565b506040820151816002019080519060200190610a45929190611567565b506060820151816003019080519060200190610a62929190611567565b506080820151816004019080519060200190610a7f929190611567565b5060a0820151816005015560c08201518160060160006101000a81548160ff02191690836001811115610aae57fe5b021790555060e08201518160060160016101000a81548160ff02191690836001811115610ad757fe5b021790555090505060018d90806001815401808255809150509060018203906000526020600020016000909192909190915090600019169055507f8cbec4f9f4b9f9a2a9f96d2f1ba00d16b99b8c0962c1396768bb32b5eddd8e738d60405180826000191660001916815260200191505060405180910390a150505050505050505050505050565b80600180811115610b6c57fe5b60026000836000191660001916815260200190815260200160002060060160009054906101000a900460ff166001811115610ba357fe5b141515610baf57600080fd5b813373ffffffffffffffffffffffffffffffffffffffff1660026000836000191660001916815260200190815260200160002060000160009054906101000a900473ffffffffffffffffffffffffffffffffffffffff1673ffffffffffffffffffffffffffffffffffffffff161480610c7457503373ffffffffffffffffffffffffffffffffffffffff166000809054906101000a900473ffffffffffffffffffffffffffffffffffffffff1673ffffffffffffffffffffffffffffffffffffffff16145b1515610c7f57600080fd5b600060026000856000191660001916815260200190815260200160002060060160006101000a81548160ff02191690836001811115610cba57fe5b02179055507fa56fb2a6d4126f324526f0668c53927c0cd8e08f41ba0fe0f2d6090a84bc75c88360405180826000191660001916815260200191505060405180910390a1505050565b6060600060606000806000610d4a89898080601f016020809104026020016040519081016040528093929190818152602001838380828437820191505050505050886110ed565b945084604051908082528060200260200182016040528015610d7b5781602001602082028038833980820191505090505b50935060009250600091505b600180549050821015610f615760026000600184815481101515610da757fe5b9060005260206000200154600019166000191681526020019081526020016000209050866001811115610dd657fe5b8160060160019054906101000a900460ff166001811115610df357fe5b148015610ed45750610ed3816001018054600181600116156101000203166002900480601f016020809104026020016040519081016040528092919081815260200182805460018160011615610100020316600290048015610e965780601f10610e6b57610100808354040283529160200191610e96565b820191906000526020600020905b815481529060010190602001808311610e7957829003601f168201915b50505050508a8a8080601f016020809104026020016040519081016040528093929190818152602001838380828437820191505050505050611270565b5b8015610f065750600180811115610ee757fe5b8160060160009054906101000a900460ff166001811115610f0457fe5b145b15610f5457600182815481101515610f1a57fe5b90600052602060002001548484815181101515610f3357fe5b90602001906020020190600019169081600019168152505082806001019350505b8180600101925050610d87565b83955050505050509392505050565b6060600060606000806000610f8487611421565b945084604051908082528060200260200182016040528015610fb55781602001602082028038833980820191505090505b50935060009250600091505b6001805490508210156110bb5760026000600184815481101515610fe157fe5b906000526020600020015460001916600019168152602001908152602001600020905086600181111561101057fe5b8160060160019054906101000a900460ff16600181111561102d57fe5b148015611060575060018081111561104157fe5b8160060160009054906101000a900460ff16600181111561105e57fe5b145b156110ae5760018281548110151561107457fe5b9060005260206000200154848481518110151561108d57fe5b90602001906020020190600019169081600019168152505082806001019350505b8180600101925050610fc1565b8395505050505050919050565b6000809054906101000a900473ffffffffffffffffffffffffffffffffffffffff1681565b60008060008060009250600091505b600180549050821015611264576002600060018481548110151561111c57fe5b906000526020600020015460001916600019168152602001908152602001600020905084600181111561114b57fe5b8160060160019054906101000a900460ff16600181111561116857fe5b1480156112175750611216816001018054600181600116156101000203166002900480601f01602080910402602001604051908101604052809291908181526020018280546001816001161561010002031660029004801561120b5780601f106111e05761010080835404028352916020019161120b565b820191906000526020600020905b8154815290600101906020018083116111ee57829003601f168201915b505050505087611270565b5b8015611249575060018081111561122a57fe5b8160060160009054906101000a900460ff16600181111561124757fe5b145b156112575782806001019350505b81806001019250506110fc565b82935050505092915050565b6000816040516020018082805190602001908083835b6020831015156112ab5780518252602082019150602081019050602083039250611286565b6001836020036101000a0380198251168184511680821785525050505050509050019150506040516020818303038152906040526040518082805190602001908083835b60208310151561131457805182526020820191506020810190506020830392506112ef565b6001836020036101000a038019825116818451168082178552505050505050905001915050604051809103902060001916836040516020018082805190602001908083835b60208310151561137e5780518252602082019150602081019050602083039250611359565b6001836020036101000a0380198251168184511680821785525050505050509050019150506040516020818303038152906040526040518082805190602001908083835b6020831015156113e757805182526020820191506020810190506020830392506113c2565b6001836020036101000a03801982511681845116808217855250505050505090500191505060405180910390206000191614905092915050565b60008060008060009250600091505b6001805490508210156114ea576002600060018481548110151561145057fe5b906000526020600020015460001916600019168152602001908152602001600020905084600181111561147f57fe5b8160060160019054906101000a900460ff16600181111561149c57fe5b1480156114cf57506001808111156114b057fe5b8160060160009054906101000a900460ff1660018111156114cd57fe5b145b156114dd5782806001019350505b8180600101925050611430565b829350505050919050565b61010060405190810160405280600073ffffffffffffffffffffffffffffffffffffffff16815260200160608152602001606081526020016060815260200160608152602001600081526020016000600181111561154f57fe5b81526020016000600181111561156157fe5b81525090565b828054600181600116156101000203166002900490600052602060002090601f016020900481019282601f106115a857805160ff19168380011785556115d6565b828001600101855582156115d6579182015b828111156115d55782518255916020019190600101906115ba565b5b5090506115e391906115e7565b5090565b61160991905b808211156116055760008160009055506001016115ed565b5090565b905600a165627a7a72305820b2b64a3714166f2943999bc8616831b4c7cca089debcda8ef4e3e0eb302ed16c0029",
  "source": "pragma solidity ^0.4.24;\r\n\r\ncontract SwapTemplateRegistry {\r\n\r\n    struct SwapTemplate {\r\n        address owner;\r\n        string onchainAsset;\r\n        string onchainAccount;\r\n        string offchainAsset;\r\n        string offchainAccount;\r\n        uint256 rate;  // use 18 decimals\r\n        State state;\r\n        Chain chain;\r\n    }\r\n\r\n    enum State {\r\n        Invalid,\r\n        Valid\r\n    }\r\n\r\n    enum Chain {\r\n        Ethereum,\r\n        Aerum\r\n    }\r\n\r\n    address public admin;\r\n\r\n    bytes32[] private indexes;\r\n    mapping(bytes32 => SwapTemplate) private templates;\r\n\r\n    event Register(bytes32 _id);\r\n    event Remove(bytes32 _id);\r\n\r\n    modifier onlyOwnerOrAdmin(bytes32 _id) {\r\n        require((templates[_id].owner == msg.sender) || (admin == msg.sender));\r\n        _;\r\n    }\r\n\r\n    modifier onlyInvalid(bytes32 _id) {\r\n        require(templates[_id].state == State.Invalid);\r\n        _;\r\n    }\r\n\r\n    modifier onlyValid(bytes32 _id) {\r\n        require(templates[_id].state == State.Valid);\r\n        _;\r\n    }\r\n\r\n    constructor() public {\r\n        admin = msg.sender;\r\n    }\r\n\r\n    function register(bytes32 _id, string _onchainAsset, string _onchainAccount, string _offchainAsset, string _offchainAccount, uint256 _rate, Chain _chain) external onlyInvalid(_id) {\r\n        SwapTemplate memory template = SwapTemplate({\r\n            owner: msg.sender,\r\n            onchainAsset: _onchainAsset,\r\n            onchainAccount: _onchainAccount,\r\n            offchainAsset: _offchainAsset,\r\n            offchainAccount: _offchainAccount,\r\n            rate: _rate,\r\n            state: State.Valid,\r\n            chain: _chain\r\n        });\r\n\r\n        templates[_id] = template;\r\n        indexes.push(_id);\r\n\r\n        emit Register(_id);\r\n    }\r\n\r\n    function remove(bytes32 _id) external onlyValid(_id) onlyOwnerOrAdmin(_id) {\r\n        templates[_id].state = State.Invalid;\r\n\r\n        emit Remove(_id);\r\n    }\r\n\r\n    function templateById(bytes32 _id) external view returns (bytes32, address, string, string, string, string, uint256, Chain) {\r\n        SwapTemplate storage template = templates[_id];\r\n\r\n        return (_id, template.owner, template.onchainAsset, template.onchainAccount, template.offchainAsset, template.offchainAccount, template.rate, template.chain);\r\n    }\r\n\r\n    function templatesIds(Chain _chain) external view returns (bytes32[]) {\r\n        uint256 count = countTemplates(_chain);\r\n\r\n        bytes32[] memory ids = new bytes32[](count);\r\n\r\n        uint256 innerIndex = 0;\r\n        for (uint256 index = 0; index < indexes.length; index++) {\r\n            SwapTemplate storage template = templates[indexes[index]];\r\n            if ((template.chain == _chain) && (template.state == State.Valid)) {\r\n                ids[innerIndex] = indexes[index];\r\n                innerIndex++;\r\n            }\r\n        }\r\n\r\n        return ids;\r\n    }\r\n\r\n    function countTemplates(Chain _chain) private view returns (uint256) {\r\n        uint256 count = 0;\r\n\r\n        for (uint256 index = 0; index < indexes.length; index++) {\r\n            SwapTemplate storage template = templates[indexes[index]];\r\n            if ((template.chain == _chain) && (template.state == State.Valid)) {\r\n                count++;\r\n            }\r\n        }\r\n\r\n        return count;\r\n    }\r\n\r\n    function templatesIdsByAsset(string _asset, Chain _chain) external view returns (bytes32[]) {\r\n        uint256 count = countTemplatesByAsset(_asset, _chain);\r\n\r\n        bytes32[] memory ids = new bytes32[](count);\r\n\r\n        uint256 innerIndex = 0;\r\n        for (uint256 index = 0; index < indexes.length; index++) {\r\n            SwapTemplate storage template = templates[indexes[index]];\r\n            if ((template.chain == _chain) && stringEquals(template.onchainAsset, _asset) && (template.state == State.Valid)) {\r\n                ids[innerIndex] = indexes[index];\r\n                innerIndex++;\r\n            }\r\n        }\r\n\r\n        return ids;\r\n    }\r\n\r\n    function countTemplatesByAsset(string _asset, Chain _chain) private view returns (uint256) {\r\n        uint256 count = 0;\r\n\r\n        for (uint256 index = 0; index < indexes.length; index++) {\r\n            SwapTemplate storage template = templates[indexes[index]];\r\n            if ((template.chain == _chain) && stringEquals(template.onchainAsset, _asset) && (template.state == State.Valid)) {\r\n                count++;\r\n            }\r\n        }\r\n\r\n        return count;\r\n    }\r\n\r\n    function stringEquals(string _one, string _two) private pure returns (bool) {\r\n        return keccak256(abi.encodePacked(_one)) == keccak256(abi.encodePacked(_two));\r\n    }\r\n}",
  "sourcePath": "C:\\Projects\\Aerum\\aerumnet\\crosschain-swap\\contracts\\swap\\SwapTemplateRegistry.sol",
  "compiler": {
    "name": "solc",
    "version": "0.4.24+commit.e67f0147.Emscripten.clang"
  },
  "schemaVersion": "2.0.0",
  "updatedAt": "2018-05-31T09:33:11.696Z"
}