{
  "contractName": "TokenFactory",
  "abi": [
    {
      "anonymous": false,
      "inputs": [
        {
          "indexed": true,
          "name": "token",
          "type": "address"
        },
        {
          "indexed": false,
          "name": "name",
          "type": "string"
        },
        {
          "indexed": false,
          "name": "symbol",
          "type": "string"
        },
        {
          "indexed": false,
          "name": "decimals",
          "type": "uint8"
        },
        {
          "indexed": false,
          "name": "totalSupply",
          "type": "uint256"
        }
      ],
      "name": "NewToken",
      "type": "event"
    },
    {
      "constant": false,
      "inputs": [
        {
          "name": "name",
          "type": "string"
        },
        {
          "name": "symbol",
          "type": "string"
        },
        {
          "name": "decimals",
          "type": "uint8"
        },
        {
          "name": "totalSupply",
          "type": "uint256"
        }
      ],
      "name": "create",
      "outputs": [
        {
          "name": "",
          "type": "address"
        }
      ],
      "payable": false,
      "stateMutability": "nonpayable",
      "type": "function"
    }
  ],
  "bytecode": "0x608060405234801561001057600080fd5b50611b1f806100206000396000f300608060405260043610610041576000357c0100000000000000000000000000000000000000000000000000000000900463ffffffff168063831e80f214610046575b600080fd5b34801561005257600080fd5b5061010a600480360381019080803590602001908201803590602001908080601f0160208091040260200160405190810160405280939291908181526020018383808284378201915050505050509192919290803590602001908201803590602001908080601f0160208091040260200160405190810160405280939291908181526020018383808284378201915050505050509192919290803560ff1690602001909291908035906020019092919050505061014c565b604051808273ffffffffffffffffffffffffffffffffffffffff1673ffffffffffffffffffffffffffffffffffffffff16815260200191505060405180910390f35b600080858585853361015c610492565b8080602001806020018660ff1660ff1681526020018581526020018473ffffffffffffffffffffffffffffffffffffffff1673ffffffffffffffffffffffffffffffffffffffff168152602001838103835288818151815260200191508051906020019080838360005b838110156101e15780820151818401526020810190506101c6565b50505050905090810190601f16801561020e5780820380516001836020036101000a031916815260200191505b50838103825287818151815260200191508051906020019080838360005b8381101561024757808201518184015260208101905061022c565b50505050905090810190601f1680156102745780820380516001836020036101000a031916815260200191505b50975050505050505050604051809103906000f08015801561029a573d6000803e3d6000fd5b5090508073ffffffffffffffffffffffffffffffffffffffff1663f2fde38b336040518263ffffffff167c0100000000000000000000000000000000000000000000000000000000028152600401808273ffffffffffffffffffffffffffffffffffffffff1673ffffffffffffffffffffffffffffffffffffffff168152602001915050600060405180830381600087803b15801561033857600080fd5b505af115801561034c573d6000803e3d6000fd5b505050508073ffffffffffffffffffffffffffffffffffffffff167f788942cfd542efe64c7f2088dab7467720f35fa908337844fb311c6d2b409b69878787876040518080602001806020018560ff1660ff168152602001848152602001838103835287818151815260200191508051906020019080838360005b838110156103e25780820151818401526020810190506103c7565b50505050905090810190601f16801561040f5780820380516001836020036101000a031916815260200191505b50838103825286818151815260200191508051906020019080838360005b8381101561044857808201518184015260208101905061042d565b50505050905090810190601f1680156104755780820380516001836020036101000a031916815260200191505b50965050505050505060405180910390a280915050949350505050565b604051611651806104a383390190560060806040523480156200001157600080fd5b5060405162001651380380620016518339810180604052810190808051820192919060200180518201929190602001805190602001909291908051906020019092919080519060200190929190505050336000806101000a81548173ffffffffffffffffffffffffffffffffffffffff021916908373ffffffffffffffffffffffffffffffffffffffff1602179055508460029080519060200190620000b992919062000144565b508360039080519060200190620000d292919062000144565b5082600460006101000a81548160ff021916908360ff1602179055508160058190555081600160008373ffffffffffffffffffffffffffffffffffffffff1673ffffffffffffffffffffffffffffffffffffffff168152602001908152602001600020819055505050505050620001f3565b828054600181600116156101000203166002900490600052602060002090601f016020900481019282601f106200018757805160ff1916838001178555620001b8565b82800160010185558215620001b8579182015b82811115620001b75782518255916020019190600101906200019a565b5b509050620001c79190620001cb565b5090565b620001f091905b80821115620001ec576000816000905550600101620001d2565b5090565b90565b61144e80620002036000396000f3006080604052600436106100af576000357c0100000000000000000000000000000000000000000000000000000000900463ffffffff16806306fdde03146100b457806318160ddd14610144578063313ce5671461016f57806370a08231146101a0578063715018a6146101f75780638da5cb5b1461020e57806395d89b4114610265578063a9059cbb146102f5578063be45fd621461035a578063f2fde38b14610405578063f6368f8a14610448575b600080fd5b3480156100c057600080fd5b506100c9610539565b6040518080602001828103825283818151815260200191508051906020019080838360005b838110156101095780820151818401526020810190506100ee565b50505050905090810190601f1680156101365780820380516001836020036101000a031916815260200191505b509250505060405180910390f35b34801561015057600080fd5b506101596105db565b6040518082815260200191505060405180910390f35b34801561017b57600080fd5b506101846105e5565b604051808260ff1660ff16815260200191505060405180910390f35b3480156101ac57600080fd5b506101e1600480360381019080803573ffffffffffffffffffffffffffffffffffffffff1690602001909291905050506105fc565b6040518082815260200191505060405180910390f35b34801561020357600080fd5b5061020c610645565b005b34801561021a57600080fd5b50610223610747565b604051808273ffffffffffffffffffffffffffffffffffffffff1673ffffffffffffffffffffffffffffffffffffffff16815260200191505060405180910390f35b34801561027157600080fd5b5061027a61076c565b6040518080602001828103825283818151815260200191508051906020019080838360005b838110156102ba57808201518184015260208101905061029f565b50505050905090810190601f1680156102e75780820380516001836020036101000a031916815260200191505b509250505060405180910390f35b34801561030157600080fd5b50610340600480360381019080803573ffffffffffffffffffffffffffffffffffffffff1690602001909291908035906020019092919050505061080e565b604051808215151515815260200191505060405180910390f35b34801561036657600080fd5b506103eb600480360381019080803573ffffffffffffffffffffffffffffffffffffffff16906020019092919080359060200190929190803590602001908201803590602001908080601f0160208091040260200160405190810160405280939291908181526020018383808284378201915050505050509192919290505050610847565b604051808215151515815260200191505060405180910390f35b34801561041157600080fd5b50610446600480360381019080803573ffffffffffffffffffffffffffffffffffffffff16906020019092919050505061087e565b005b34801561045457600080fd5b5061051f600480360381019080803573ffffffffffffffffffffffffffffffffffffffff16906020019092919080359060200190929190803590602001908201803590602001908080601f0160208091040260200160405190810160405280939291908181526020018383808284378201915050505050509192919290803590602001908201803590602001908080601f01602080910402602001604051908101604052809392919081815260200183838082843782019150505050505091929192905050506108e5565b604051808215151515815260200191505060405180910390f35b606060028054600181600116156101000203166002900480601f0160208091040260200160405190810160405280929190818152602001828054600181600116156101000203166002900480156105d15780601f106105a6576101008083540402835291602001916105d1565b820191906000526020600020905b8154815290600101906020018083116105b457829003601f168201915b5050505050905090565b6000600554905090565b6000600460009054906101000a900460ff16905090565b6000600160008373ffffffffffffffffffffffffffffffffffffffff1673ffffffffffffffffffffffffffffffffffffffff168152602001908152602001600020549050919050565b6000809054906101000a900473ffffffffffffffffffffffffffffffffffffffff1673ffffffffffffffffffffffffffffffffffffffff163373ffffffffffffffffffffffffffffffffffffffff161415156106a057600080fd5b6000809054906101000a900473ffffffffffffffffffffffffffffffffffffffff1673ffffffffffffffffffffffffffffffffffffffff167ff8df31144d9c2f0f6b59d69b8b98abd5459d07f2742c4df920b25aae33c6482060405160405180910390a260008060006101000a81548173ffffffffffffffffffffffffffffffffffffffff021916908373ffffffffffffffffffffffffffffffffffffffff160217905550565b6000809054906101000a900473ffffffffffffffffffffffffffffffffffffffff1681565b606060038054600181600116156101000203166002900480601f0160208091040260200160405190810160405280929190818152602001828054600181600116156101000203166002900480156108045780601f106107d957610100808354040283529160200191610804565b820191906000526020600020905b8154815290600101906020018083116107e757829003601f168201915b5050505050905090565b6000606061081b84610d31565b156108325761082b848483610d44565b9150610840565b61083d8484836110b2565b91505b5092915050565b600061085284610d31565b1561086957610862848484610d44565b9050610877565b6108748484846110b2565b90505b9392505050565b6000809054906101000a900473ffffffffffffffffffffffffffffffffffffffff1673ffffffffffffffffffffffffffffffffffffffff163373ffffffffffffffffffffffffffffffffffffffff161415156108d957600080fd5b6108e2816112f3565b50565b60006108f085610d31565b15610d1b57836108ff336105fc565b1015151561099b576040517f08c379a00000000000000000000000000000000000000000000000000000000081526004018080602001828103825260398152602001807f596f75206d757374206861766520737566666963656e742062616c616e63652081526020017f746f20706572666f726d2074686973206f7065726174696f6e0000000000000081525060400191505060405180910390fd5b6109b6846109a8336105fc565b6113ed90919063ffffffff16565b600160003373ffffffffffffffffffffffffffffffffffffffff1673ffffffffffffffffffffffffffffffffffffffff16815260200190815260200160002081905550610a1484610a06876105fc565b61140690919063ffffffff16565b600160008773ffffffffffffffffffffffffffffffffffffffff1673ffffffffffffffffffffffffffffffffffffffff168152602001908152602001600020819055508473ffffffffffffffffffffffffffffffffffffffff166000836040516020018082805190602001908083835b602083101515610aa95780518252602082019150602081019050602083039250610a84565b6001836020036101000a0380198251168184511680821785525050505050509050019150506040516020818303038152906040526040518082805190602001908083835b602083101515610b125780518252602082019150602081019050602083039250610aed565b6001836020036101000a03801982511681845116808217855250505050505090500191505060405180910390207c01000000000000000000000000000000000000000000000000000000009004903387876040518563ffffffff167c0100000000000000000000000000000000000000000000000000000000028152600401808473ffffffffffffffffffffffffffffffffffffffff1673ffffffffffffffffffffffffffffffffffffffff168152602001838152602001828051906020019080838360005b83811015610bf3578082015181840152602081019050610bd8565b50505050905090810190601f168015610c205780820380516001836020036101000a031916815260200191505b50935050505060006040518083038185885af193505050501515610c4057fe5b8473ffffffffffffffffffffffffffffffffffffffff163373ffffffffffffffffffffffffffffffffffffffff167fe19260aff97b920c7df27010903aeb9c8d2be5d310a2c67824cf3f15396e4c1686866040518083815260200180602001828103825283818151815260200191508051906020019080838360005b83811015610cd7578082015181840152602081019050610cbc565b50505050905090810190601f168015610d045780820380516001836020036101000a031916815260200191505b50935050505060405180910390a360019050610d29565b610d268585856110b2565b90505b949350505050565b600080823b905060008111915050919050565b60008083610d51336105fc565b10151515610ded576040517f08c379a00000000000000000000000000000000000000000000000000000000081526004018080602001828103825260398152602001807f596f75206d757374206861766520737566666963656e742062616c616e63652081526020017f746f20706572666f726d2074686973206f7065726174696f6e0000000000000081525060400191505060405180910390fd5b610e0884610dfa336105fc565b6113ed90919063ffffffff16565b600160003373ffffffffffffffffffffffffffffffffffffffff1673ffffffffffffffffffffffffffffffffffffffff16815260200190815260200160002081905550610e6684610e58876105fc565b61140690919063ffffffff16565b600160008773ffffffffffffffffffffffffffffffffffffffff1673ffffffffffffffffffffffffffffffffffffffff168152602001908152602001600020819055508490508073ffffffffffffffffffffffffffffffffffffffff1663c0ee0b8a3386866040518463ffffffff167c0100000000000000000000000000000000000000000000000000000000028152600401808473ffffffffffffffffffffffffffffffffffffffff1673ffffffffffffffffffffffffffffffffffffffff16815260200183815260200180602001828103825283818151815260200191508051906020019080838360005b83811015610f6e578082015181840152602081019050610f53565b50505050905090810190601f168015610f9b5780820380516001836020036101000a031916815260200191505b50945050505050600060405180830381600087803b158015610fbc57600080fd5b505af1158015610fd0573d6000803e3d6000fd5b505050508473ffffffffffffffffffffffffffffffffffffffff163373ffffffffffffffffffffffffffffffffffffffff167fe19260aff97b920c7df27010903aeb9c8d2be5d310a2c67824cf3f15396e4c1686866040518083815260200180602001828103825283818151815260200191508051906020019080838360005b8381101561106b578082015181840152602081019050611050565b50505050905090810190601f1680156110985780820380516001836020036101000a031916815260200191505b50935050505060405180910390a360019150509392505050565b6000826110be336105fc565b1015151561115a576040517f08c379a00000000000000000000000000000000000000000000000000000000081526004018080602001828103825260398152602001807f596f75206d757374206861766520737566666963656e742062616c616e63652081526020017f746f20706572666f726d2074686973206f7065726174696f6e0000000000000081525060400191505060405180910390fd5b61117583611167336105fc565b6113ed90919063ffffffff16565b600160003373ffffffffffffffffffffffffffffffffffffffff1673ffffffffffffffffffffffffffffffffffffffff168152602001908152602001600020819055506111d3836111c5866105fc565b61140690919063ffffffff16565b600160008673ffffffffffffffffffffffffffffffffffffffff1673ffffffffffffffffffffffffffffffffffffffff168152602001908152602001600020819055508373ffffffffffffffffffffffffffffffffffffffff163373ffffffffffffffffffffffffffffffffffffffff167fe19260aff97b920c7df27010903aeb9c8d2be5d310a2c67824cf3f15396e4c1685856040518083815260200180602001828103825283818151815260200191508051906020019080838360005b838110156112ad578082015181840152602081019050611292565b50505050905090810190601f1680156112da5780820380516001836020036101000a031916815260200191505b50935050505060405180910390a3600190509392505050565b600073ffffffffffffffffffffffffffffffffffffffff168173ffffffffffffffffffffffffffffffffffffffff161415151561132f57600080fd5b8073ffffffffffffffffffffffffffffffffffffffff166000809054906101000a900473ffffffffffffffffffffffffffffffffffffffff1673ffffffffffffffffffffffffffffffffffffffff167f8be0079c531659141344cd1fd0a4f28419497f9722a3daafe3b4186f6b6457e060405160405180910390a3806000806101000a81548173ffffffffffffffffffffffffffffffffffffffff021916908373ffffffffffffffffffffffffffffffffffffffff16021790555050565b60008282111515156113fb57fe5b818303905092915050565b6000818301905082811015151561141957fe5b809050929150505600a165627a7a72305820ed6c190d4913fd8a12d9028d533edbe8ebfa7d2631004b9c869b139e54f47ffe0029a165627a7a7230582076390b3b19ef8ae23aa177f1fdd450b3a3e8c16e5287811608ab6717784af0bd0029",
  "source": "pragma solidity ^0.4.24;\r\n\r\nimport \"./ERC223.sol\";\r\n\r\n/**\r\n * @title Aerum-based factory contract for ERC223 tokens.\r\n */\r\ncontract TokenFactory {\r\n\r\n    event NewToken(address indexed token, string name, string symbol, uint8 decimals, uint256 totalSupply);\r\n\r\n    /**\r\n     * @dev Creates a ERC223 contract owner by a caller with the givem parameters.\r\n     */\r\n    function create(string name, string symbol, uint8 decimals, uint256 totalSupply) public returns(address) {\r\n        ERC223Token token = new ERC223Token(name, symbol, decimals, totalSupply, msg.sender);\r\n        token.transferOwnership(msg.sender);\r\n        emit NewToken(address(token), name, symbol, decimals, totalSupply);\r\n        return address(token);\r\n    }\r\n\r\n}\r\n",
  "sourcePath": "C:\\Projects\\Aerum\\aerumnet\\token-factory\\contracts\\TokenFactory.sol",
  "compiler": {
    "name": "solc",
    "version": "0.4.24+commit.e67f0147.Emscripten.clang"
  },
  "schemaVersion": "2.0.0",
  "updatedAt": "2018-08-09T18:24:36.053Z"
}