{
  "contractName": "FixedPriceRegistrar",
  "abi": [
    {
      "constant": true,
      "inputs": [],
      "name": "owner",
      "outputs": [
        {
          "name": "",
          "type": "address"
        }
      ],
      "payable": false,
      "stateMutability": "view",
      "type": "function"
    },
    {
      "constant": true,
      "inputs": [],
      "name": "price",
      "outputs": [
        {
          "name": "",
          "type": "uint256"
        }
      ],
      "payable": false,
      "stateMutability": "view",
      "type": "function"
    },
    {
      "inputs": [
        {
          "name": "ensAddr",
          "type": "address"
        },
        {
          "name": "node",
          "type": "bytes32"
        }
      ],
      "payable": false,
      "stateMutability": "nonpayable",
      "type": "constructor"
    },
    {
      "payable": true,
      "stateMutability": "payable",
      "type": "fallback"
    },
    {
      "anonymous": false,
      "inputs": [
        {
          "indexed": false,
          "name": "price",
          "type": "uint256"
        }
      ],
      "name": "PriceChanged",
      "type": "event"
    },
    {
      "anonymous": false,
      "inputs": [
        {
          "indexed": false,
          "name": "owner",
          "type": "address"
        }
      ],
      "name": "OwnerChanged",
      "type": "event"
    },
    {
      "anonymous": false,
      "inputs": [
        {
          "indexed": false,
          "name": "to",
          "type": "address"
        },
        {
          "indexed": false,
          "name": "amount",
          "type": "uint256"
        }
      ],
      "name": "Widthdraw",
      "type": "event"
    },
    {
      "constant": false,
      "inputs": [
        {
          "name": "newPrice",
          "type": "uint256"
        }
      ],
      "name": "setPrice",
      "outputs": [],
      "payable": false,
      "stateMutability": "nonpayable",
      "type": "function"
    },
    {
      "constant": false,
      "inputs": [
        {
          "name": "newOwner",
          "type": "address"
        }
      ],
      "name": "setOwner",
      "outputs": [],
      "payable": false,
      "stateMutability": "nonpayable",
      "type": "function"
    },
    {
      "constant": false,
      "inputs": [
        {
          "name": "to",
          "type": "address"
        },
        {
          "name": "amount",
          "type": "uint256"
        }
      ],
      "name": "widthdraw",
      "outputs": [],
      "payable": false,
      "stateMutability": "nonpayable",
      "type": "function"
    },
    {
      "constant": false,
      "inputs": [
        {
          "name": "node",
          "type": "bytes32"
        }
      ],
      "name": "buy",
      "outputs": [],
      "payable": true,
      "stateMutability": "payable",
      "type": "function"
    },
    {
      "constant": false,
      "inputs": [
        {
          "name": "node",
          "type": "bytes32"
        },
        {
          "name": "nodeOwner",
          "type": "address"
        }
      ],
      "name": "transfer",
      "outputs": [],
      "payable": false,
      "stateMutability": "nonpayable",
      "type": "function"
    },
    {
      "constant": false,
      "inputs": [],
      "name": "destroy",
      "outputs": [],
      "payable": false,
      "stateMutability": "nonpayable",
      "type": "function"
    }
  ],
  "bytecode": "0x6060604052341561000f57600080fd5b604051604080610afd83398101604052808051906020019091908051906020019091905050816000806101000a81548173ffffffffffffffffffffffffffffffffffffffff021916908373ffffffffffffffffffffffffffffffffffffffff160217905550806001816000191690555033600260006101000a81548173ffffffffffffffffffffffffffffffffffffffff021916908373ffffffffffffffffffffffffffffffffffffffff1602179055505050610a2c806100d16000396000f30060606040526004361061008e576000357c0100000000000000000000000000000000000000000000000000000000900463ffffffff16806313af40351461009057806379ce9fac146100c957806383197ef01461010f5780638da5cb5b1461012457806391b7f5ed146101795780639c9a10611461019c578063a035b1fe146101b8578063c74b197c146101e1575b005b341561009b57600080fd5b6100c7600480803573ffffffffffffffffffffffffffffffffffffffff16906020019091905050610223565b005b34156100d457600080fd5b61010d60048080356000191690602001909190803573ffffffffffffffffffffffffffffffffffffffff16906020019091905050610348565b005b341561011a57600080fd5b610122610557565b005b341561012f57600080fd5b6101376105ee565b604051808273ffffffffffffffffffffffffffffffffffffffff1673ffffffffffffffffffffffffffffffffffffffff16815260200191505060405180910390f35b341561018457600080fd5b61019a6004808035906020019091905050610614565b005b6101b66004808035600019169060200190919050506106b3565b005b34156101c357600080fd5b6101cb6108bd565b6040518082815260200191505060405180910390f35b34156101ec57600080fd5b610221600480803573ffffffffffffffffffffffffffffffffffffffff169060200190919080359060200190919050506108c3565b005b3373ffffffffffffffffffffffffffffffffffffffff16600260009054906101000a900473ffffffffffffffffffffffffffffffffffffffff1673ffffffffffffffffffffffffffffffffffffffff1614151561027f57600080fd5b80600260006101000a81548173ffffffffffffffffffffffffffffffffffffffff021916908373ffffffffffffffffffffffffffffffffffffffff1602179055507fa2ea9883a321a3e97b8266c2b078bfeec6d50c711ed71f874a90d500ae2eaf36600260009054906101000a900473ffffffffffffffffffffffffffffffffffffffff16604051808273ffffffffffffffffffffffffffffffffffffffff1673ffffffffffffffffffffffffffffffffffffffff16815260200191505060405180910390a150565b8160008060009054906101000a900473ffffffffffffffffffffffffffffffffffffffff1673ffffffffffffffffffffffffffffffffffffffff166302571be36001548460405180836000191660001916815260200182600019166000191681526020019250505060405180910390206040518263ffffffff167c0100000000000000000000000000000000000000000000000000000000028152600401808260001916600019168152602001915050602060405180830381600087803b151561041157600080fd5b5af1151561041e57600080fd5b5050506040518051905090503373ffffffffffffffffffffffffffffffffffffffff168173ffffffffffffffffffffffffffffffffffffffff1614151561046457600080fd5b6000809054906101000a900473ffffffffffffffffffffffffffffffffffffffff1673ffffffffffffffffffffffffffffffffffffffff166306ab592360015486866040518463ffffffff167c010000000000000000000000000000000000000000000000000000000002815260040180846000191660001916815260200183600019166000191681526020018273ffffffffffffffffffffffffffffffffffffffff1673ffffffffffffffffffffffffffffffffffffffff1681526020019350505050600060405180830381600087803b151561054157600080fd5b5af1151561054e57600080fd5b50505050505050565b3373ffffffffffffffffffffffffffffffffffffffff16600260009054906101000a900473ffffffffffffffffffffffffffffffffffffffff1673ffffffffffffffffffffffffffffffffffffffff161415156105b357600080fd5b600260009054906101000a900473ffffffffffffffffffffffffffffffffffffffff1673ffffffffffffffffffffffffffffffffffffffff16ff5b600260009054906101000a900473ffffffffffffffffffffffffffffffffffffffff1681565b3373ffffffffffffffffffffffffffffffffffffffff16600260009054906101000a900473ffffffffffffffffffffffffffffffffffffffff1673ffffffffffffffffffffffffffffffffffffffff1614151561067057600080fd5b806003819055507fa6dc15bdb68da224c66db4b3838d9a2b205138e8cff6774e57d0af91e196d6226003546040518082815260200191505060405180910390a150565b8060008060009054906101000a900473ffffffffffffffffffffffffffffffffffffffff1673ffffffffffffffffffffffffffffffffffffffff166302571be36001548460405180836000191660001916815260200182600019166000191681526020019250505060405180910390206040518263ffffffff167c0100000000000000000000000000000000000000000000000000000000028152600401808260001916600019168152602001915050602060405180830381600087803b151561077c57600080fd5b5af1151561078957600080fd5b50505060405180519050905060008173ffffffffffffffffffffffffffffffffffffffff161415156107ba57600080fd5b60035434101515156107cb57600080fd5b6000809054906101000a900473ffffffffffffffffffffffffffffffffffffffff1673ffffffffffffffffffffffffffffffffffffffff166306ab592360015485336040518463ffffffff167c010000000000000000000000000000000000000000000000000000000002815260040180846000191660001916815260200183600019166000191681526020018273ffffffffffffffffffffffffffffffffffffffff1673ffffffffffffffffffffffffffffffffffffffff1681526020019350505050600060405180830381600087803b15156108a857600080fd5b5af115156108b557600080fd5b505050505050565b60035481565b3373ffffffffffffffffffffffffffffffffffffffff16600260009054906101000a900473ffffffffffffffffffffffffffffffffffffffff1673ffffffffffffffffffffffffffffffffffffffff1614151561091f57600080fd5b60008111801561094657503073ffffffffffffffffffffffffffffffffffffffff16318111155b151561095157600080fd5b8173ffffffffffffffffffffffffffffffffffffffff166108fc829081150290604051600060405180830381858888f19350505050151561099157600080fd5b7f0594f701315aa9903d34cb81c1206524a1305ee899cdb40520e4ea3e45d170fb8282604051808373ffffffffffffffffffffffffffffffffffffffff1673ffffffffffffffffffffffffffffffffffffffff1681526020018281526020019250505060405180910390a150505600a165627a7a723058209847dc5cc1090998e7d959915f1e0ffcbfbe12d2bcf152b9bebc4cb7f601c7a30029",
  "source": "pragma solidity ^0.4.18;\r\n\r\nimport './ENS.sol';\r\n\r\n/**\r\n * A registrar that allocates subdomains to the first person to claim them.\r\n */\r\ncontract FixedPriceRegistrar {\r\n    ENS ens;\r\n\r\n    bytes32 rootNode;\r\n\r\n    address public owner;    \r\n    uint256 public price;\r\n\r\n    event PriceChanged(uint256 price);\r\n    event OwnerChanged(address owner);\r\n    event Widthdraw(address to, uint256 amount);\r\n\r\n    modifier only_owner() {\r\n        require(owner == msg.sender);\r\n        _;\r\n    }\r\n\r\n    modifier only_available_node(bytes32 subnode) {\r\n        address nodeOwner = ens.owner(keccak256(rootNode, subnode));\r\n        require(nodeOwner == 0);\r\n        _;\r\n    }\r\n\r\n    modifier only_node_owner(bytes32 subnode) {\r\n        address nodeOwner = ens.owner(keccak256(rootNode, subnode));\r\n        require(nodeOwner == msg.sender);\r\n        _;\r\n    }\r\n\r\n    /**\r\n     * Constructor.\r\n     * @param ensAddr The address of the ENS registry.\r\n     * @param node The node that this registrar administers.\r\n     */\r\n    function FixedPriceRegistrar(ENS ensAddr, bytes32 node) public {\r\n        ens = ensAddr;\r\n        rootNode = node;\r\n        owner = msg.sender;\r\n    }\r\n\r\n    /**\r\n    * Sets new fixed price for name\r\n    * @param newPrice New price of node purchase\r\n    */\r\n    function setPrice(uint256 newPrice) public only_owner {\r\n        price = newPrice;\r\n        emit PriceChanged(price);\r\n    }\r\n\r\n    /**\r\n    * Sets new contract owner\r\n    * @param newOwner New owner\r\n    */\r\n    function setOwner(address newOwner) public only_owner {\r\n        owner = newOwner;\r\n        emit OwnerChanged(owner);\r\n    }\r\n\r\n    /**\r\n    * Widthdraw contract funds\r\n    * @param to Address widthdraw to\r\n    * @param amount Amount to widthdraw\r\n    */\r\n    function widthdraw(address to, uint256 amount) public only_owner {\r\n        require((amount > 0) && (amount <= address(this).balance));\r\n\r\n        to.transfer(amount);\r\n        emit Widthdraw(to, amount);\r\n    }\r\n\r\n    /**\r\n     * Register new name\r\n     * @param node The hash of the label to register.\r\n     */\r\n    function buy(bytes32 node) public payable only_available_node(node) {\r\n        require(msg.value >= price);\r\n        ens.setSubnodeOwner(rootNode, node, msg.sender);\r\n    }\r\n\r\n    /**\r\n     * Change the owner of an existing registration.\r\n     * @param node The hash of the label to register.\r\n     * @param nodeOwner The address of the new owner.\r\n     */\r\n    function transfer(bytes32 node, address nodeOwner) public only_node_owner(node) {\r\n        ens.setSubnodeOwner(rootNode, node, nodeOwner);\r\n    }\r\n\r\n    // Fallback function to accept ETH into contract.\r\n    function () public payable { }\r\n\r\n    function destroy() public only_owner {\r\n        selfdestruct(owner);\r\n    }\r\n}\r\n",
  "sourcePath": "C:\\Projects\\Aerum\\aerumnet\\solidity-aerum-network\\contracts\\aens\\FixedPriceRegistrar.sol",
  "compiler": {
    "name": "solc",
    "version": "0.4.21+commit.dfe3193c.Emscripten.clang"
  },
  "schemaVersion": "2.0.0",
  "updatedAt": "2018-05-07T22:43:05.123Z"
}